{
  "_format": "hh-sol-artifact-1",
  "contractName": "PlayDAO",
  "sourceName": "contracts/PlayDAO.sol",
  "abi": [
    {
      "inputs": [
        {
          "internalType": "address",
          "name": "attestationPublisher",
          "type": "address"
        }
      ],
      "stateMutability": "nonpayable",
      "type": "constructor"
    },
    {
      "anonymous": false,
      "inputs": [
        {
          "indexed": true,
          "internalType": "uint256",
          "name": "daoID",
          "type": "uint256"
        },
        {
          "indexed": true,
          "internalType": "address",
          "name": "to",
          "type": "address"
        },
        {
          "indexed": true,
          "internalType": "address",
          "name": "from",
          "type": "address"
        },
        {
          "indexed": false,
          "internalType": "uint256",
          "name": "badgeID",
          "type": "uint256"
        },
        {
          "indexed": false,
          "internalType": "address",
          "name": "attestationCreator",
          "type": "address"
        },
        {
          "indexed": false,
          "internalType": "bytes32",
          "name": "attestationKey",
          "type": "bytes32"
        }
      ],
      "name": "BadgeGranted",
      "type": "event"
    },
    {
      "anonymous": false,
      "inputs": [
        {
          "indexed": true,
          "internalType": "uint256",
          "name": "daoID",
          "type": "uint256"
        },
        {
          "indexed": false,
          "internalType": "uint256",
          "name": "badgeTypeID",
          "type": "uint256"
        },
        {
          "indexed": false,
          "internalType": "string",
          "name": "name",
          "type": "string"
        },
        {
          "indexed": false,
          "internalType": "string",
          "name": "metadataURI",
          "type": "string"
        }
      ],
      "name": "BadgeTypeCreated",
      "type": "event"
    },
    {
      "anonymous": false,
      "inputs": [
        {
          "indexed": false,
          "internalType": "uint256",
          "name": "daoID",
          "type": "uint256"
        },
        {
          "indexed": false,
          "internalType": "string",
          "name": "name",
          "type": "string"
        },
        {
          "indexed": false,
          "internalType": "string",
          "name": "metadataURI",
          "type": "string"
        },
        {
          "indexed": false,
          "internalType": "address",
          "name": "badgeContract",
          "type": "address"
        },
        {
          "indexed": false,
          "internalType": "address",
          "name": "owner",
          "type": "address"
        }
      ],
      "name": "DAOCreated",
      "type": "event"
    },
    {
      "anonymous": false,
      "inputs": [
        {
          "indexed": true,
          "internalType": "address",
          "name": "account",
          "type": "address"
        },
        {
          "indexed": false,
          "internalType": "uint256",
          "name": "amount",
          "type": "uint256"
        },
        {
          "indexed": false,
          "internalType": "uint256",
          "name": "total",
          "type": "uint256"
        }
      ],
      "name": "Deposited",
      "type": "event"
    },
    {
      "anonymous": false,
      "inputs": [
        {
          "indexed": true,
          "internalType": "address",
          "name": "previousOwner",
          "type": "address"
        },
        {
          "indexed": true,
          "internalType": "address",
          "name": "newOwner",
          "type": "address"
        }
      ],
      "name": "OwnershipTransferred",
      "type": "event"
    },
    {
      "anonymous": false,
      "inputs": [
        {
          "indexed": false,
          "internalType": "address",
          "name": "account",
          "type": "address"
        }
      ],
      "name": "Paused",
      "type": "event"
    },
    {
      "anonymous": false,
      "inputs": [
        {
          "indexed": true,
          "internalType": "uint256",
          "name": "daoID",
          "type": "uint256"
        },
        {
          "indexed": true,
          "internalType": "uint256",
          "name": "questID",
          "type": "uint256"
        },
        {
          "indexed": true,
          "internalType": "uint256",
          "name": "claimID",
          "type": "uint256"
        },
        {
          "indexed": false,
          "internalType": "address",
          "name": "operator",
          "type": "address"
        }
      ],
      "name": "QuestCanceled",
      "type": "event"
    },
    {
      "anonymous": false,
      "inputs": [
        {
          "indexed": true,
          "internalType": "uint256",
          "name": "daoID",
          "type": "uint256"
        },
        {
          "indexed": true,
          "internalType": "uint256",
          "name": "questTypeID",
          "type": "uint256"
        },
        {
          "indexed": true,
          "internalType": "uint256",
          "name": "questID",
          "type": "uint256"
        },
        {
          "indexed": false,
          "internalType": "uint256",
          "name": "claimID",
          "type": "uint256"
        },
        {
          "indexed": false,
          "internalType": "address",
          "name": "claimer",
          "type": "address"
        }
      ],
      "name": "QuestClaimed",
      "type": "event"
    },
    {
      "anonymous": false,
      "inputs": [
        {
          "indexed": true,
          "internalType": "uint256",
          "name": "daoID",
          "type": "uint256"
        },
        {
          "indexed": true,
          "internalType": "uint256",
          "name": "questID",
          "type": "uint256"
        },
        {
          "indexed": true,
          "internalType": "uint256",
          "name": "claimID",
          "type": "uint256"
        },
        {
          "indexed": false,
          "internalType": "address",
          "name": "verifier",
          "type": "address"
        },
        {
          "indexed": false,
          "internalType": "string",
          "name": "proofMetadataURI",
          "type": "string"
        },
        {
          "indexed": false,
          "internalType": "string",
          "name": "score",
          "type": "string"
        },
        {
          "indexed": false,
          "internalType": "address",
          "name": "attestationCreator",
          "type": "address"
        },
        {
          "indexed": false,
          "internalType": "bytes32",
          "name": "contributorAttestationKey",
          "type": "bytes32"
        },
        {
          "indexed": false,
          "internalType": "bytes32",
          "name": "verifierAttestationKey",
          "type": "bytes32"
        }
      ],
      "name": "QuestCompleted",
      "type": "event"
    },
    {
      "anonymous": false,
      "inputs": [
        {
          "indexed": true,
          "internalType": "uint256",
          "name": "daoID",
          "type": "uint256"
        },
        {
          "indexed": true,
          "internalType": "uint256",
          "name": "questTypeID",
          "type": "uint256"
        },
        {
          "indexed": false,
          "internalType": "uint256",
          "name": "questID",
          "type": "uint256"
        },
        {
          "indexed": false,
          "internalType": "string",
          "name": "name",
          "type": "string"
        },
        {
          "indexed": false,
          "internalType": "string",
          "name": "metadataURI",
          "type": "string"
        },
        {
          "indexed": false,
          "internalType": "uint256",
          "name": "numContributions",
          "type": "uint256"
        },
        {
          "indexed": false,
          "internalType": "uint256",
          "name": "requiredStake",
          "type": "uint256"
        }
      ],
      "name": "QuestStarted",
      "type": "event"
    },
    {
      "anonymous": false,
      "inputs": [
        {
          "indexed": true,
          "internalType": "uint256",
          "name": "daoID",
          "type": "uint256"
        },
        {
          "indexed": false,
          "internalType": "uint256",
          "name": "questTypeID",
          "type": "uint256"
        },
        {
          "indexed": false,
          "internalType": "string",
          "name": "name",
          "type": "string"
        },
        {
          "indexed": false,
          "internalType": "string",
          "name": "metadataURI",
          "type": "string"
        },
        {
          "indexed": false,
          "internalType": "uint256",
          "name": "contributorBadgeTypeID",
          "type": "uint256"
        },
        {
          "indexed": false,
          "internalType": "uint256",
          "name": "verifierBadgeTypeID",
          "type": "uint256"
        },
        {
          "indexed": false,
          "internalType": "uint256[]",
          "name": "starterDeps",
          "type": "uint256[]"
        },
        {
          "indexed": false,
          "internalType": "uint256[]",
          "name": "contributorDeps",
          "type": "uint256[]"
        },
        {
          "indexed": false,
          "internalType": "uint256[]",
          "name": "verifierDeps",
          "type": "uint256[]"
        }
      ],
      "name": "QuestTypeCreated",
      "type": "event"
    },
    {
      "anonymous": false,
      "inputs": [
        {
          "indexed": false,
          "internalType": "address",
          "name": "account",
          "type": "address"
        }
      ],
      "name": "Unpaused",
      "type": "event"
    },
    {
      "anonymous": false,
      "inputs": [
        {
          "indexed": true,
          "internalType": "address",
          "name": "account",
          "type": "address"
        },
        {
          "indexed": false,
          "internalType": "uint256",
          "name": "amount",
          "type": "uint256"
        },
        {
          "indexed": false,
          "internalType": "uint256",
          "name": "remaining",
          "type": "uint256"
        }
      ],
      "name": "Withdrew",
      "type": "event"
    },
    {
      "anonymous": false,
      "inputs": [
        {
          "indexed": true,
          "internalType": "uint256",
          "name": "daoID",
          "type": "uint256"
        },
        {
          "indexed": true,
          "internalType": "address",
          "name": "account",
          "type": "address"
        },
        {
          "indexed": false,
          "internalType": "uint256",
          "name": "amount",
          "type": "uint256"
        },
        {
          "indexed": false,
          "internalType": "uint256",
          "name": "remaining",
          "type": "uint256"
        }
      ],
      "name": "WithdrewFromDAO",
      "type": "event"
    },
    {
      "inputs": [],
      "name": "ERR_BADGE_TYPE_NOT_FOUND",
      "outputs": [
        {
          "internalType": "string",
          "name": "",
          "type": "string"
        }
      ],
      "stateMutability": "view",
      "type": "function"
    },
    {
      "inputs": [],
      "name": "ERR_CANCEL_CLAIM_NOT_ALLOWED",
      "outputs": [
        {
          "internalType": "string",
          "name": "",
          "type": "string"
        }
      ],
      "stateMutability": "view",
      "type": "function"
    },
    {
      "inputs": [],
      "name": "ERR_CLAIM_NOT_ALLOWED",
      "outputs": [
        {
          "internalType": "string",
          "name": "",
          "type": "string"
        }
      ],
      "stateMutability": "view",
      "type": "function"
    },
    {
      "inputs": [],
      "name": "ERR_CLAIM_NOT_FOUND",
      "outputs": [
        {
          "internalType": "string",
          "name": "",
          "type": "string"
        }
      ],
      "stateMutability": "view",
      "type": "function"
    },
    {
      "inputs": [],
      "name": "ERR_DAO_NOT_FOUND",
      "outputs": [
        {
          "internalType": "string",
          "name": "",
          "type": "string"
        }
      ],
      "stateMutability": "view",
      "type": "function"
    },
    {
      "inputs": [],
      "name": "ERR_EMPTY_BADGE_TYPE_METADATA_URI",
      "outputs": [
        {
          "internalType": "string",
          "name": "",
          "type": "string"
        }
      ],
      "stateMutability": "view",
      "type": "function"
    },
    {
      "inputs": [],
      "name": "ERR_EMPTY_BADGE_TYPE_NAME",
      "outputs": [
        {
          "internalType": "string",
          "name": "",
          "type": "string"
        }
      ],
      "stateMutability": "view",
      "type": "function"
    },
    {
      "inputs": [],
      "name": "ERR_EMPTY_DAO_BADGE_CONTRACT",
      "outputs": [
        {
          "internalType": "string",
          "name": "",
          "type": "string"
        }
      ],
      "stateMutability": "view",
      "type": "function"
    },
    {
      "inputs": [],
      "name": "ERR_EMPTY_DAO_METADATA_URI",
      "outputs": [
        {
          "internalType": "string",
          "name": "",
          "type": "string"
        }
      ],
      "stateMutability": "view",
      "type": "function"
    },
    {
      "inputs": [],
      "name": "ERR_EMPTY_DAO_NAME",
      "outputs": [
        {
          "internalType": "string",
          "name": "",
          "type": "string"
        }
      ],
      "stateMutability": "view",
      "type": "function"
    },
    {
      "inputs": [],
      "name": "ERR_EMPTY_DAO_OWNER",
      "outputs": [
        {
          "internalType": "string",
          "name": "",
          "type": "string"
        }
      ],
      "stateMutability": "view",
      "type": "function"
    },
    {
      "inputs": [],
      "name": "ERR_EMPTY_QUEST_METADATA_URI",
      "outputs": [
        {
          "internalType": "string",
          "name": "",
          "type": "string"
        }
      ],
      "stateMutability": "view",
      "type": "function"
    },
    {
      "inputs": [],
      "name": "ERR_EMPTY_QUEST_NAME",
      "outputs": [
        {
          "internalType": "string",
          "name": "",
          "type": "string"
        }
      ],
      "stateMutability": "view",
      "type": "function"
    },
    {
      "inputs": [],
      "name": "ERR_EMPTY_QUEST_TYPE_METADATA_URI",
      "outputs": [
        {
          "internalType": "string",
          "name": "",
          "type": "string"
        }
      ],
      "stateMutability": "view",
      "type": "function"
    },
    {
      "inputs": [],
      "name": "ERR_EMPTY_QUEST_TYPE_NAME",
      "outputs": [
        {
          "internalType": "string",
          "name": "",
          "type": "string"
        }
      ],
      "stateMutability": "view",
      "type": "function"
    },
    {
      "inputs": [],
      "name": "ERR_INSUFFICIENT_STAKE",
      "outputs": [
        {
          "internalType": "string",
          "name": "",
          "type": "string"
        }
      ],
      "stateMutability": "view",
      "type": "function"
    },
    {
      "inputs": [],
      "name": "ERR_NOT_DAO_OWNER",
      "outputs": [
        {
          "internalType": "string",
          "name": "",
          "type": "string"
        }
      ],
      "stateMutability": "view",
      "type": "function"
    },
    {
      "inputs": [],
      "name": "ERR_NO_MORE_CLAIM",
      "outputs": [
        {
          "internalType": "string",
          "name": "",
          "type": "string"
        }
      ],
      "stateMutability": "view",
      "type": "function"
    },
    {
      "inputs": [],
      "name": "ERR_QUEST_CLAIMED_ALREADY",
      "outputs": [
        {
          "internalType": "string",
          "name": "",
          "type": "string"
        }
      ],
      "stateMutability": "view",
      "type": "function"
    },
    {
      "inputs": [],
      "name": "ERR_QUEST_NOT_FOUND",
      "outputs": [
        {
          "internalType": "string",
          "name": "",
          "type": "string"
        }
      ],
      "stateMutability": "view",
      "type": "function"
    },
    {
      "inputs": [],
      "name": "ERR_QUEST_NOT_ONGOING",
      "outputs": [
        {
          "internalType": "string",
          "name": "",
          "type": "string"
        }
      ],
      "stateMutability": "view",
      "type": "function"
    },
    {
      "inputs": [],
      "name": "ERR_QUEST_TYPE_NOT_FOUND",
      "outputs": [
        {
          "internalType": "string",
          "name": "",
          "type": "string"
        }
      ],
      "stateMutability": "view",
      "type": "function"
    },
    {
      "inputs": [],
      "name": "ERR_SELF_VERIFICATION",
      "outputs": [
        {
          "internalType": "string",
          "name": "",
          "type": "string"
        }
      ],
      "stateMutability": "view",
      "type": "function"
    },
    {
      "inputs": [],
      "name": "ERR_START_QUEST_NOT_ALLOWED",
      "outputs": [
        {
          "internalType": "string",
          "name": "",
          "type": "string"
        }
      ],
      "stateMutability": "view",
      "type": "function"
    },
    {
      "inputs": [],
      "name": "ERR_VERIFY_CLAIM_NOT_ALLOWED",
      "outputs": [
        {
          "internalType": "string",
          "name": "",
          "type": "string"
        }
      ],
      "stateMutability": "view",
      "type": "function"
    },
    {
      "inputs": [],
      "name": "ERR_WRONG_BADGE_TYPE_ID",
      "outputs": [
        {
          "internalType": "string",
          "name": "",
          "type": "string"
        }
      ],
      "stateMutability": "view",
      "type": "function"
    },
    {
      "inputs": [],
      "name": "ERR_ZERO_NUM_CONTRIBUTIONS",
      "outputs": [
        {
          "internalType": "string",
          "name": "",
          "type": "string"
        }
      ],
      "stateMutability": "view",
      "type": "function"
    },
    {
      "inputs": [
        {
          "internalType": "uint256",
          "name": "",
          "type": "uint256"
        }
      ],
      "name": "_DAOs",
      "outputs": [
        {
          "internalType": "string",
          "name": "name",
          "type": "string"
        },
        {
          "internalType": "string",
          "name": "metadataURI",
          "type": "string"
        },
        {
          "internalType": "address",
          "name": "badgeContract",
          "type": "address"
        },
        {
          "internalType": "address",
          "name": "owner",
          "type": "address"
        },
        {
          "internalType": "uint256",
          "name": "totalStaked",
          "type": "uint256"
        },
        {
          "internalType": "uint256",
          "name": "balance",
          "type": "uint256"
        }
      ],
      "stateMutability": "view",
      "type": "function"
    },
    {
      "inputs": [
        {
          "internalType": "uint256",
          "name": "",
          "type": "uint256"
        },
        {
          "internalType": "uint256",
          "name": "",
          "type": "uint256"
        }
      ],
      "name": "_questTypes",
      "outputs": [
        {
          "internalType": "string",
          "name": "name",
          "type": "string"
        },
        {
          "internalType": "string",
          "name": "metadataURI",
          "type": "string"
        },
        {
          "internalType": "uint256",
          "name": "contributorBadgeTypeID",
          "type": "uint256"
        },
        {
          "internalType": "uint256",
          "name": "verifierBadgeTypeID",
          "type": "uint256"
        }
      ],
      "stateMutability": "view",
      "type": "function"
    },
    {
      "inputs": [
        {
          "internalType": "uint256",
          "name": "",
          "type": "uint256"
        },
        {
          "internalType": "uint256",
          "name": "",
          "type": "uint256"
        }
      ],
      "name": "_quests",
      "outputs": [
        {
          "internalType": "uint256",
          "name": "questTypeID",
          "type": "uint256"
        },
        {
          "internalType": "string",
          "name": "name",
          "type": "string"
        },
        {
          "internalType": "string",
          "name": "metadataURI",
          "type": "string"
        },
        {
          "internalType": "uint256",
          "name": "limitContributors",
          "type": "uint256"
        },
        {
          "internalType": "uint256",
          "name": "numOngoings",
          "type": "uint256"
        },
        {
          "internalType": "uint256",
          "name": "numComplted",
          "type": "uint256"
        },
        {
          "internalType": "uint256",
          "name": "numCanceled",
          "type": "uint256"
        },
        {
          "internalType": "uint256",
          "name": "requiredStake",
          "type": "uint256"
        }
      ],
      "stateMutability": "view",
      "type": "function"
    },
    {
      "inputs": [
        {
          "internalType": "uint256",
          "name": "daoID",
          "type": "uint256"
        }
      ],
      "name": "balanceOf",
      "outputs": [
        {
          "internalType": "uint256",
          "name": "",
          "type": "uint256"
        }
      ],
      "stateMutability": "view",
      "type": "function"
    },
    {
      "inputs": [
        {
          "internalType": "uint256",
          "name": "daoID",
          "type": "uint256"
        },
        {
          "internalType": "uint256",
          "name": "questID",
          "type": "uint256"
        },
        {
          "internalType": "uint256",
          "name": "claimID",
          "type": "uint256"
        }
      ],
      "name": "cancelClaim",
      "outputs": [],
      "stateMutability": "nonpayable",
      "type": "function"
    },
    {
      "inputs": [
        {
          "internalType": "uint256",
          "name": "daoID",
          "type": "uint256"
        },
        {
          "internalType": "uint256",
          "name": "questID",
          "type": "uint256"
        }
      ],
      "name": "claimQuest",
      "outputs": [],
      "stateMutability": "payable",
      "type": "function"
    },
    {
      "inputs": [
        {
          "internalType": "uint256",
          "name": "daoID",
          "type": "uint256"
        },
        {
          "internalType": "uint256",
          "name": "questID",
          "type": "uint256"
        },
        {
          "internalType": "uint256",
          "name": "claimID",
          "type": "uint256"
        },
        {
          "internalType": "string",
          "name": "proofMetadataURI",
          "type": "string"
        },
        {
          "internalType": "string",
          "name": "score",
          "type": "string"
        }
      ],
      "name": "completeQuest",
      "outputs": [],
      "stateMutability": "nonpayable",
      "type": "function"
    },
    {
      "inputs": [
        {
          "internalType": "uint256",
          "name": "daoID",
          "type": "uint256"
        },
        {
          "internalType": "string",
          "name": "name",
          "type": "string"
        },
        {
          "internalType": "string",
          "name": "metadataURI",
          "type": "string"
        }
      ],
      "name": "createBadgeType",
      "outputs": [],
      "stateMutability": "nonpayable",
      "type": "function"
    },
    {
      "inputs": [
        {
          "internalType": "string",
          "name": "name",
          "type": "string"
        },
        {
          "internalType": "string",
          "name": "metadataURI",
          "type": "string"
        },
        {
          "internalType": "address",
          "name": "badgeContractAddress",
          "type": "address"
        },
        {
          "internalType": "address",
          "name": "owner",
          "type": "address"
        }
      ],
      "name": "createDAO",
      "outputs": [],
      "stateMutability": "nonpayable",
      "type": "function"
    },
    {
      "inputs": [
        {
          "internalType": "uint256",
          "name": "daoID",
          "type": "uint256"
        },
        {
          "internalType": "string",
          "name": "name",
          "type": "string"
        },
        {
          "internalType": "string",
          "name": "metadataURI",
          "type": "string"
        },
        {
          "internalType": "uint256",
          "name": "contributorBadgeTypeID",
          "type": "uint256"
        },
        {
          "internalType": "uint256",
          "name": "verifierBadgeTypeID",
          "type": "uint256"
        },
        {
          "internalType": "uint256[]",
          "name": "starterDeps",
          "type": "uint256[]"
        },
        {
          "internalType": "uint256[]",
          "name": "contributorDeps",
          "type": "uint256[]"
        },
        {
          "internalType": "uint256[]",
          "name": "verifierDeps",
          "type": "uint256[]"
        }
      ],
      "name": "createQuestType",
      "outputs": [],
      "stateMutability": "nonpayable",
      "type": "function"
    },
    {
      "inputs": [],
      "name": "deposit",
      "outputs": [],
      "stateMutability": "payable",
      "type": "function"
    },
    {
      "inputs": [
        {
          "internalType": "address",
          "name": "account",
          "type": "address"
        }
      ],
      "name": "depositedOf",
      "outputs": [
        {
          "internalType": "uint256",
          "name": "",
          "type": "uint256"
        }
      ],
      "stateMutability": "view",
      "type": "function"
    },
    {
      "inputs": [
        {
          "internalType": "uint256",
          "name": "daoID",
          "type": "uint256"
        },
        {
          "internalType": "uint256",
          "name": "badgeTypeID",
          "type": "uint256"
        },
        {
          "internalType": "address",
          "name": "to",
          "type": "address"
        }
      ],
      "name": "grantBadge",
      "outputs": [],
      "stateMutability": "nonpayable",
      "type": "function"
    },
    {
      "inputs": [],
      "name": "owner",
      "outputs": [
        {
          "internalType": "address",
          "name": "",
          "type": "address"
        }
      ],
      "stateMutability": "view",
      "type": "function"
    },
    {
      "inputs": [],
      "name": "pause",
      "outputs": [],
      "stateMutability": "nonpayable",
      "type": "function"
    },
    {
      "inputs": [],
      "name": "paused",
      "outputs": [
        {
          "internalType": "bool",
          "name": "",
          "type": "bool"
        }
      ],
      "stateMutability": "view",
      "type": "function"
    },
    {
      "inputs": [],
      "name": "renounceOwnership",
      "outputs": [],
      "stateMutability": "nonpayable",
      "type": "function"
    },
    {
      "inputs": [
        {
          "internalType": "uint256",
          "name": "daoID",
          "type": "uint256"
        },
        {
          "internalType": "uint256",
          "name": "questTypeID",
          "type": "uint256"
        },
        {
          "internalType": "string",
          "name": "name",
          "type": "string"
        },
        {
          "internalType": "string",
          "name": "metadataURI",
          "type": "string"
        },
        {
          "internalType": "uint256",
          "name": "numContributions",
          "type": "uint256"
        },
        {
          "internalType": "uint256",
          "name": "requiredStake",
          "type": "uint256"
        }
      ],
      "name": "startQuest",
      "outputs": [],
      "stateMutability": "nonpayable",
      "type": "function"
    },
    {
      "inputs": [
        {
          "internalType": "uint256",
          "name": "daoID",
          "type": "uint256"
        },
        {
          "internalType": "uint256",
          "name": "questID",
          "type": "uint256"
        }
      ],
      "name": "totalClaims",
      "outputs": [
        {
          "internalType": "uint256",
          "name": "",
          "type": "uint256"
        }
      ],
      "stateMutability": "view",
      "type": "function"
    },
    {
      "inputs": [],
      "name": "totalDAOs",
      "outputs": [
        {
          "internalType": "uint256",
          "name": "",
          "type": "uint256"
        }
      ],
      "stateMutability": "view",
      "type": "function"
    },
    {
      "inputs": [
        {
          "internalType": "uint256",
          "name": "daoID",
          "type": "uint256"
        }
      ],
      "name": "totalQuestTypes",
      "outputs": [
        {
          "internalType": "uint256",
          "name": "",
          "type": "uint256"
        }
      ],
      "stateMutability": "view",
      "type": "function"
    },
    {
      "inputs": [
        {
          "internalType": "uint256",
          "name": "daoID",
          "type": "uint256"
        }
      ],
      "name": "totalQuests",
      "outputs": [
        {
          "internalType": "uint256",
          "name": "",
          "type": "uint256"
        }
      ],
      "stateMutability": "view",
      "type": "function"
    },
    {
      "inputs": [
        {
          "internalType": "uint256",
          "name": "daoID",
          "type": "uint256"
        }
      ],
      "name": "totalStaked",
      "outputs": [
        {
          "internalType": "uint256",
          "name": "",
          "type": "uint256"
        }
      ],
      "stateMutability": "view",
      "type": "function"
    },
    {
      "inputs": [
        {
          "internalType": "address",
          "name": "newOwner",
          "type": "address"
        }
      ],
      "name": "transferOwnership",
      "outputs": [],
      "stateMutability": "nonpayable",
      "type": "function"
    },
    {
      "inputs": [],
      "name": "unpause",
      "outputs": [],
      "stateMutability": "nonpayable",
      "type": "function"
    },
    {
      "inputs": [
        {
          "internalType": "uint256",
          "name": "amount",
          "type": "uint256"
        }
      ],
      "name": "withdraw",
      "outputs": [],
      "stateMutability": "nonpayable",
      "type": "function"
    },
    {
      "inputs": [
        {
          "internalType": "uint256",
          "name": "daoID",
          "type": "uint256"
        },
        {
          "internalType": "uint256",
          "name": "amount",
          "type": "uint256"
        }
      ],
      "name": "withdrawFromDAO",
      "outputs": [],
      "stateMutability": "nonpayable",
      "type": "function"
    },
    {
      "stateMutability": "payable",
      "type": "receive"
    }
  ],
  "bytecode": "0x60806040523480156200001157600080fd5b5060405162005777380380620057778339810160408190526200003491620000c2565b6200003f3362000072565b6000805460ff60a01b19169055600180546001600160a01b0319166001600160a01b0392909216919091179055620000f4565b600080546001600160a01b038381166001600160a01b0319831681178455604051919092169283917f8be0079c531659141344cd1fd0a4f28419497f9722a3daafe3b4186f6b6457e09190a35050565b600060208284031215620000d557600080fd5b81516001600160a01b0381168114620000ed57600080fd5b9392505050565b61567380620001046000396000f3fe6080604052600436106103395760003560e01c8063860766ce116101ab578063b4130459116100f7578063dc5dba1f11610095578063ecf0d5681161006f578063ecf0d56814610ce0578063ef16d99114610d25578063f2fde38b14610d45578063f7e6873e14610d6557600080fd5b8063dc5dba1f14610c19578063e32508de14610c62578063e7620db214610ca357600080fd5b8063d0e30db0116100d1578063d0e30db014610b5c578063d441b4e314610b64578063d91fba8114610b96578063db63516e14610bd557600080fd5b8063b413045914610ab9578063bb3fb99514610b02578063c5e5655b14610b1757600080fd5b80639cc7f708116101645780639fd5a5d81161013e5780639fd5a5d8146109f1578063a40205aa14610a3a578063a4c0426d14610a5a578063abf6477814610a7a57600080fd5b80639cc7f7081461096d5780639d92da961461099d5780639f75fb37146109d157600080fd5b8063860766ce1461086e5780638da5cb5b1461088e5780638ed0ac26146108b65780638f383280146108f75780638fed1e96146109175780639bcae5061461092c57600080fd5b80634a28b9111161028557806369ae653511610223578063715018a6116101fd578063715018a6146107c757806381d50034146107dc57806382286ec7146108195780638456cb591461085957600080fd5b806369ae6535146107555780636b68003b146107755780636f0965671461078a57600080fd5b8063576c4f961161025f578063576c4f961461069e57806358b219b0146106be5780635c975abb146106f55780635c99d8cc1461071f57600080fd5b80634a28b911146105f25780634c81aa7e1461063b5780635566f2a31461065b57600080fd5b806326f8ca0d116102f25780632e1a7d4d116102cc5780632e1a7d4d1461054a5780633f4ba83a1461056a57806341cb8c201461057f57806343223762146105b057600080fd5b806326f8ca0d146104e7578063277de7ca146105075780632d4a47e71461051a57600080fd5b8063120420651461034f578063152520fb146103aa578063171aae19146103e85780631cd70c11146104165780631e0c01a914610455578063200e8d231461049e57600080fd5b3661034a576103483334610dae565b005b600080fd5b34801561035b57600080fd5b50610394604051806040016040528060198152602001784552525f454d5054595f42414447455f545950455f4e414d4560381b81525081565b6040516103a19190614abb565b60405180910390f35b3480156103b657600080fd5b50610394604051806040016040528060128152602001714552525f454d5054595f44414f5f4e414d4560701b81525081565b3480156103f457600080fd5b50610408610403366004614ace565b610e31565b6040519081526020016103a1565b34801561042257600080fd5b506103946040518060400160405280601381526020017222a9292fa2a6a82a2cafa220a7afa7aba722a960691b81525081565b34801561046157600080fd5b506103946040518060400160405280601b81526020017f4552525f53544152545f51554553545f4e4f545f414c4c4f574544000000000081525081565b3480156104aa57600080fd5b506103946040518060400160405280601a81526020017f4552525f454d5054595f44414f5f4d455441444154415f55524900000000000081525081565b3480156104f357600080fd5b50610348610502366004614b03565b610e47565b610348610515366004614b38565b611013565b34801561052657600080fd5b5061053a610535366004614b38565b6110f7565b6040516103a19493929190614b5a565b34801561055657600080fd5b50610348610565366004614ace565b61123a565b34801561057657600080fd5b50610348611247565b34801561058b57600080fd5b5061040861059a366004614ace565b6000908152600460208190526040909120015490565b3480156105bc57600080fd5b50610394604051806040016040528060168152602001754552525f494e53554646494349454e545f5354414b4560501b81525081565b3480156105fe57600080fd5b506103946040518060400160405280601c81526020017f4552525f454d5054595f44414f5f42414447455f434f4e54524143540000000081525081565b34801561064757600080fd5b50610348610656366004614c4a565b611261565b34801561066757600080fd5b506103946040518060400160405280601781526020017611549497d5d493d391d7d0905111d157d516541157d251604a1b81525081565b3480156106aa57600080fd5b506104086106b9366004614ace565b6113bb565b3480156106ca57600080fd5b506103946040518060400160405280601881526020016000805160206155fd83398151915281525081565b34801561070157600080fd5b50600054600160a01b900460ff1660405190151581526020016103a1565b34801561072b57600080fd5b5061040861073a366004614ccb565b6001600160a01b03166000908152600d602052604090205490565b34801561076157600080fd5b50610348610770366004614b38565b6113cf565b34801561078157600080fd5b506103946114ad565b34801561079657600080fd5b50610394604051806040016040528060118152602001704552525f4e4f5f4d4f52455f434c41494d60781b81525081565b3480156107d357600080fd5b506103486114c9565b3480156107e857600080fd5b506103946040518060400160405280601181526020017011549497d11053d7d393d517d193d55391607a1b81525081565b34801561082557600080fd5b50610394604051806040016040528060148152602001734552525f454d5054595f51554553545f4e414d4560601b81525081565b34801561086557600080fd5b506103486114db565b34801561087a57600080fd5b50610348610889366004614ce6565b6114f3565b34801561089a57600080fd5b506000546040516001600160a01b0390911681526020016103a1565b3480156108c257600080fd5b506103946040518060400160405280601581526020017422a9292fa9a2a6232fab22a924a324a1a0aa24a7a760591b81525081565b34801561090357600080fd5b50610348610912366004614def565b6115e2565b34801561092357600080fd5b506103946116cd565b34801561093857600080fd5b506103946040518060400160405280601581526020017411549497d0d310525357d393d517d0531313d5d151605a1b81525081565b34801561097957600080fd5b50610408610988366004614ace565b60009081526004602052604090206005015490565b3480156109a957600080fd5b506109bd6109b8366004614b38565b6116e9565b6040516103a1989796959493929190614ede565b3480156109dd57600080fd5b506103486109ec366004614f38565b611845565b3480156109fd57600080fd5b506103946040518060400160405280601c81526020017f4552525f5645524946595f434c41494d5f4e4f545f414c4c4f5745440000000081525081565b348015610a4657600080fd5b50610348610a55366004614fa5565b611933565b348015610a6657600080fd5b50610408610a75366004614b38565b61194d565b348015610a8657600080fd5b506103946040518060400160405280601381526020017211549497d4555154d517d393d517d193d55391606a1b81525081565b348015610ac557600080fd5b506103946040518060400160405280601c81526020017f4552525f43414e43454c5f434c41494d5f4e4f545f414c4c4f5745440000000081525081565b348015610b0e57600080fd5b5061040861196f565b348015610b2357600080fd5b50610394604051806040016040528060198152602001784552525f51554553545f434c41494d45445f414c524541445960381b81525081565b61034861197f565b348015610b7057600080fd5b50610b84610b7f366004614ace565b611991565b6040516103a19695949392919061502a565b348015610ba257600080fd5b506103946040518060400160405280601381526020017211549497d0d310525357d393d517d193d55391606a1b81525081565b348015610be157600080fd5b506103946040518060400160405280601881526020017711549497d4555154d517d516541157d393d517d193d5539160421b81525081565b348015610c2557600080fd5b506103946040518060400160405280601a81526020017f4552525f5a45524f5f4e554d5f434f4e545249425554494f4e5300000000000081525081565b348015610c6e57600080fd5b50610394604051806040016040528060158152602001744552525f51554553545f4e4f545f4f4e474f494e4760581b81525081565b348015610caf57600080fd5b506103946040518060400160405280601181526020017022a9292fa727aa2fa220a7afa7aba722a960791b81525081565b348015610cec57600080fd5b50610394604051806040016040528060198152602001784552525f454d5054595f51554553545f545950455f4e414d4560381b81525081565b348015610d3157600080fd5b50610348610d4036600461507e565b611ae4565b348015610d5157600080fd5b50610348610d60366004614ccb565b611c2e565b348015610d7157600080fd5b506103946040518060400160405280601c81526020017f4552525f454d5054595f51554553545f4d455441444154415f5552490000000081525081565b6001600160a01b0382166000908152600d6020526040902054610dd19082611ca4565b6001600160a01b0383166000818152600d6020526040908190208390555190917f73a19dd210f1a7f902193214c0ee91dd35ee5b4d920cba8d519eca65a7b488ca91610e2591858252602082015260400190565b60405180910390a25050565b6000818152600760205260408120545b92915050565b610e4f611cb0565b600083815260046020526040902080548491610ef291610e6e906150aa565b80601f0160208091040260200160405190810160405280929190818152602001828054610e9a906150aa565b8015610ee75780601f10610ebc57610100808354040283529160200191610ee7565b820191906000526020600020905b815481529060010190602001808311610eca57829003601f168201915b505050505051151590565b6040518060400160405280601181526020017011549497d11053d7d393d517d193d55391607a1b81525090610f435760405162461bcd60e51b8152600401610f3a9190614abb565b60405180910390fd5b50600084815260046020908152604091829020600301548251808401909352601183527022a9292fa727aa2fa220a7afa7aba722a960791b91830191909152859133916001600160a01b03168214610fae5760405162461bcd60e51b8152600401610f3a9190614abb565b508585610fbb8282611cfd565b6040518060400160405280601881526020016000805160206155fd83398151915281525090610ffd5760405162461bcd60e51b8152600401610f3a9190614abb565b50611009888888611d81565b5050505050505050565b61101b611cb0565b60008281526004602052604090208054839161103a91610e6e906150aa565b6040518060400160405280601181526020017011549497d11053d7d393d517d193d55391607a1b815250906110825760405162461bcd60e51b8152600401610f3a9190614abb565b50600083815260076020526040902054839083908111156040518060400160405280601381526020017211549497d4555154d517d393d517d193d55391606a1b815250906110e35760405162461bcd60e51b8152600401610f3a9190614abb565b506110f085853334611fdf565b5050505050565b600660209081526000928352604080842090915290825290208054819061111d906150aa565b80601f0160208091040260200160405190810160405280929190818152602001828054611149906150aa565b80156111965780601f1061116b57610100808354040283529160200191611196565b820191906000526020600020905b81548152906001019060200180831161117957829003601f168201915b5050505050908060010180546111ab906150aa565b80601f01602080910402602001604051908101604052809291908181526020018280546111d7906150aa565b80156112245780601f106111f957610100808354040283529160200191611224565b820191906000526020600020905b81548152906001019060200180831161120757829003601f168201915b5050505050908060020154908060030154905084565b61124433826123bc565b50565b61124f612475565b6112576124cf565b61125f61251f565b565b611269611cb0565b60008581526004602052604090208054869161128891610e6e906150aa565b6040518060400160405280601181526020017011549497d11053d7d393d517d193d55391607a1b815250906112d05760405162461bcd60e51b8152600401610f3a9190614abb565b50600086815260076020526040902054869086908111156040518060400160405280601381526020017211549497d4555154d517d393d517d193d55391606a1b815250906113315760405162461bcd60e51b8152600401610f3a9190614abb565b5060008881526009602090815260408083208a84529091529020548890889088908111156040518060400160405280601381526020017211549497d0d310525357d393d517d193d55391606a1b8152509061139f5760405162461bcd60e51b8152600401610f3a9190614abb565b506113ae8b8b8b8b8b33612574565b5050505050505050505050565b600081815260056020526040812054610e41565b6000828152600460205260409020805483916113ee91610e6e906150aa565b6040518060400160405280601181526020017011549497d11053d7d393d517d193d55391607a1b815250906114365760405162461bcd60e51b8152600401610f3a9190614abb565b50600083815260046020908152604091829020600301548251808401909352601183527022a9292fa727aa2fa220a7afa7aba722a960791b91830191909152849133916001600160a01b031682146114a15760405162461bcd60e51b8152600401610f3a9190614abb565b506110f0853386612a69565b60405180606001604052806021815260200161561d6021913981565b6114d1612475565b61125f6000612b2b565b6114e3612475565b6114eb611cb0565b61125f612b7b565b6114fb611cb0565b60008681526004602052604090208054879161151a91610e6e906150aa565b6040518060400160405280601181526020017011549497d11053d7d393d517d193d55391607a1b815250906115625760405162461bcd60e51b8152600401610f3a9190614abb565b50600087815260056020526040902054879087908111156040518060400160405280601881526020017711549497d4555154d517d516541157d393d517d193d5539160421b815250906115c85760405162461bcd60e51b8152600401610f3a9190614abb565b506115d7898989898989612bbe565b505050505050505050565b6115ea611cb0565b60008881526004602052604090208054899161160991610e6e906150aa565b6040518060400160405280601181526020017011549497d11053d7d393d517d193d55391607a1b815250906116515760405162461bcd60e51b8152600401610f3a9190614abb565b50600089815260046020908152604091829020600301548251808401909352601183527022a9292fa727aa2fa220a7afa7aba722a960791b918301919091528a9133916001600160a01b031682146116bc5760405162461bcd60e51b8152600401610f3a9190614abb565b506113ae8b8b8b8b8b8b8b8b612e9e565b6040518060600160405280602181526020016155dc6021913981565b600860209081526000928352604080842090915290825290208054600182018054919291611716906150aa565b80601f0160208091040260200160405190810160405280929190818152602001828054611742906150aa565b801561178f5780601f106117645761010080835404028352916020019161178f565b820191906000526020600020905b81548152906001019060200180831161177257829003601f168201915b5050505050908060020180546117a4906150aa565b80601f01602080910402602001604051908101604052809291908181526020018280546117d0906150aa565b801561181d5780601f106117f25761010080835404028352916020019161181d565b820191906000526020600020905b81548152906001019060200180831161180057829003601f168201915b5050505050908060030154908060040154908060050154908060060154908060070154905088565b61184d611cb0565b60008381526004602052604090208054849161186c91610e6e906150aa565b6040518060400160405280601181526020017011549497d11053d7d393d517d193d55391607a1b815250906118b45760405162461bcd60e51b8152600401610f3a9190614abb565b50600084815260046020908152604091829020600301548251808401909352601183527022a9292fa727aa2fa220a7afa7aba722a960791b91830191909152859133916001600160a01b0316821461191f5760405162461bcd60e51b8152600401610f3a9190614abb565b5061192b8686866132b9565b505050505050565b61193b611cb0565b61194784848484613426565b50505050565b60008281526009602090815260408083208484529091528120545b9392505050565b600061197a60035490565b905090565b611987611cb0565b61125f3334610dae565b6004602052600090815260409020805481906119ac906150aa565b80601f01602080910402602001604051908101604052809291908181526020018280546119d8906150aa565b8015611a255780601f106119fa57610100808354040283529160200191611a25565b820191906000526020600020905b815481529060010190602001808311611a0857829003601f168201915b505050505090806001018054611a3a906150aa565b80601f0160208091040260200160405190810160405280929190818152602001828054611a66906150aa565b8015611ab35780601f10611a8857610100808354040283529160200191611ab3565b820191906000526020600020905b815481529060010190602001808311611a9657829003601f168201915b5050505060028301546003840154600485015460059095015493946001600160a01b03928316949290911692509086565b611aec611cb0565b600083815260046020526040902080548491611b0b91610e6e906150aa565b6040518060400160405280601181526020017011549497d11053d7d393d517d193d55391607a1b81525090611b535760405162461bcd60e51b8152600401610f3a9190614abb565b50600084815260076020526040902054849084908111156040518060400160405280601381526020017211549497d4555154d517d393d517d193d55391606a1b81525090611bb45760405162461bcd60e51b8152600401610f3a9190614abb565b5060008681526009602090815260408083208884529091529020548690869086908111156040518060400160405280601381526020017211549497d0d310525357d393d517d193d55391606a1b81525090611c225760405162461bcd60e51b8152600401610f3a9190614abb565b506115d789898961369a565b611c36612475565b6001600160a01b038116611c9b5760405162461bcd60e51b815260206004820152602660248201527f4f776e61626c653a206e6577206f776e657220697320746865207a65726f206160448201526564647265737360d01b6064820152608401610f3a565b61124481612b2b565b600061196882846150fa565b600054600160a01b900460ff161561125f5760405162461bcd60e51b815260206004820152601060248201526f14185d5cd8589b194e881c185d5cd95960821b6044820152606401610f3a565b6000828152600460208181526040808420600201548151630fb365d160e41b815291516001600160a01b039091169363fb365d109383820193909291908290030181865afa158015611d53573d6000803e3d6000fd5b505050506040513d601f19601f82011682018060405250810190611d77919061510d565b9091111592915050565b82600c600084815260200190815260200160002054146040518060400160405280601781526020017611549497d5d493d391d7d0905111d157d516541157d251604a1b81525090611de55760405162461bcd60e51b8152600401610f3a9190614abb565b506001546000906001600160a01b031615611eeb576001546001600160a01b03166390d12e758585611e1660025490565b60405167383630bcb230b79760c11b6020820152602881019390935266173130b233b29760c91b6048840152604f8301919091526c1733b930b73a173737b731b29760991b606f830152607c820152609c016040516020818303038152906040528433611e8260025490565b89896040518763ffffffff1660e01b8152600401611ea596959493929190615126565b6020604051808303816000875af1158015611ec4573d6000803e3d6000fd5b505050506040513d601f19601f82011682018060405250810190611ee8919061510d565b90505b611ef9600280546001019055565b60008481526004602090815260409182902060020154825180830185905283518082039093018352808401938490526253df9f60e71b9093526001600160a01b0316916329efcf8091611f52918691889160440161516e565b600060405180830381600087803b158015611f6c57600080fd5b505af1158015611f80573d6000803e3d6000fd5b5050600154604080518781526001600160a01b039283166020820152908101859052339350908516915086907f6b74574084467b8633483892563a28f8ef44d384879055f224bc4de6af615e2b9060600160405180910390a450505050565b600084815260086020908152604080832086845282528083208784526006835281842081548552835292819020600501805482518185028101850190935280835261206393899392919083018282801561205857602002820191906000526020600020905b815481526020019060010190808311612044575b5050505050856138f7565b6040518060400160405280601581526020017411549497d0d310525357d393d517d0531313d5d151605a1b815250906120af5760405162461bcd60e51b8152600401610f3a9190614abb565b506000858152600b6020908152604080832087845282528083206001600160a01b038716845282529182902054825180840190935260198352784552525f51554553545f434c41494d45445f414c524541445960381b9183019190915260ff161561212d5760405162461bcd60e51b8152600401610f3a9190614abb565b5080600301548160050154826004015461214791906150fa565b10604051806040016040528060118152602001704552525f4e4f5f4d4f52455f434c41494d60781b815250906121905760405162461bcd60e51b8152600401610f3a9190614abb565b5081156121a1576121a18383610dae565b8060070154600d6000856001600160a01b03166001600160a01b03168152602001908152602001600020541015604051806040016040528060168152602001754552525f494e53554646494349454e545f5354414b4560501b8152509061221b5760405162461bcd60e51b8152600401610f3a9190614abb565b5061222b858483600701546139e8565b60048101805490600061223d8361519e565b90915550506000858152600b6020908152604080832087845282528083206001600160a01b03871684528252808320805460ff191660011790558783526009825280832087845290915290206122969080546001019055565b600085815260096020908152604080832087845282528083205481516080810183526001600160a01b0388811682528185018681528285018781528551808801875288815260608501528c8852600a87528588208c8952875285882085895290965293909520815181549087166001600160a01b03199182161782559351600182018054919097169481168517875594519295919490936001600160a81b031990911617600160a01b836002811115612351576123516151b7565b02179055506060820151600282019061236a9082615218565b50508254604080518481526001600160a01b038816602082015288935089917ff7ef2508bb2ddf882787d355581ad8f7fa9391b81b323ef36cb2c9b3482ee834910160405180910390a4505050505050565b6001600160a01b0382166000908152600d60205260409020546123df9082613aa1565b6001600160a01b0383166000818152600d6020526040808220939093559151909183156108fc02918491818181858888f19350505050158015612426573d6000803e3d6000fd5b506001600160a01b0382166000818152600d6020908152604091829020548251858152918201527fadec52fcd1408589179b85e44b434374db078b4eaf793e7d1a1bb0ae4ecfeee59101610e25565b6000546001600160a01b0316331461125f5760405162461bcd60e51b815260206004820181905260248201527f4f776e61626c653a2063616c6c6572206973206e6f7420746865206f776e65726044820152606401610f3a565b600054600160a01b900460ff1661125f5760405162461bcd60e51b815260206004820152601460248201527314185d5cd8589b194e881b9bdd081c185d5cd95960621b6044820152606401610f3a565b6125276124cf565b6000805460ff60a01b191690557f5db9ee0a495bf2e6ff9c91a7834c1ba4fdd244a5e8aa4e537bd38aeae4b073aa335b6040516001600160a01b03909116815260200160405180910390a1565b600086815260086020908152604080832088845282528083208984526006835281842081548552909252808320815160e081019092528054929392829082906125bc906150aa565b80601f01602080910402602001604051908101604052809291908181526020018280546125e8906150aa565b80156126355780601f1061260a57610100808354040283529160200191612635565b820191906000526020600020905b81548152906001019060200180831161261857829003601f168201915b5050505050815260200160018201805461264e906150aa565b80601f016020809104026020016040519081016040528092919081815260200182805461267a906150aa565b80156126c75780601f1061269c576101008083540402835291602001916126c7565b820191906000526020600020905b8154815290600101906020018083116126aa57829003601f168201915b5050505050815260200160028201548152602001600382015481526020016004820180548060200260200160405190810160405280929190818152602001828054801561273357602002820191906000526020600020905b81548152602001906001019080831161271f575b505050505081526020016005820180548060200260200160405190810160405280929190818152602001828054801561278b57602002820191906000526020600020905b815481526020019060010190808311612777575b50505050508152602001600682018054806020026020016040519081016040528092919081815260200182805480156127e357602002820191906000526020600020905b8154815260200190600101908083116127cf575b505050919092525050506000898152600a602090815260408083208b845282528083208a8452909152812091925089906001830154600160a01b900460ff166002811115612833576128336151b7565b14604051806040016040528060158152602001744552525f51554553545f4e4f545f4f4e474f494e4760581b815250906128805760405162461bcd60e51b8152600401610f3a9190614abb565b50815460408051808201909152601581527422a9292fa9a2a6232fab22a924a324a1a0aa24a7a760591b6020820152906001600160a01b03908116908716036128dc5760405162461bcd60e51b8152600401610f3a9190614abb565b506128ec818460c00151876138f7565b6040518060400160405280601c81526020017f4552525f5645524946595f434c41494d5f4e4f545f414c4c4f57454400000000815250906129405760405162461bcd60e51b8152600401610f3a9190614abb565b508154600785015461295f9183916001600160a01b0390911690613aad565b6005840180549060006129718361519e565b9091555050600484018054906000612988836152d8565b909155505060018201805460ff60a01b1916600160a01b1790556040805160c0810182528b8152855460208201529081018a905260608101899052608081018790526001600160a01b03861660a082015260006129e482613b47565b905060006129f18361426d565b9050612a01600280546001019055565b8a8c857f11305f5d002fced644b255e9217b5bbeb05871b43ba2bf520649db5b9ebc68888b8e8e600160009054906101000a90046001600160a01b03168989604051612a52969594939291906152ef565b60405180910390a450505050505050505050505050565b600083815260046020526040902060050154612a859082613aa1565b6000848152600460205260408082206005019290925590516001600160a01b0384169183156108fc02918491818181858888f19350505050158015612ace573d6000803e3d6000fd5b50600083815260046020908152604091829020600501548251848152918201526001600160a01b0384169185917fad05c6f34c1d0f1cdeef8906ab2d7c74fea0487adf9f98e930b12a2f59135188910160405180910390a3505050565b600080546001600160a01b038381166001600160a01b0319831681178455604051919092169283917f8be0079c531659141344cd1fd0a4f28419497f9722a3daafe3b4186f6b6457e09190a35050565b612b83611cb0565b6000805460ff60a01b1916600160a01b1790557f62e78cea01bee320cd4e420270b5ea74000d11b0c9f74754ebdbfc544b05a2586125573390565b83511515604051806040016040528060198152602001784552525f454d5054595f51554553545f545950455f4e414d4560381b81525090612c125760405162461bcd60e51b8152600401610f3a9190614abb565b50825115156040518060400160405280601c81526020017f4552525f454d5054595f51554553545f4d455441444154415f5552490000000081525090612c6b5760405162461bcd60e51b8152600401610f3a9190614abb565b5060408051808201909152601a81527f4552525f5a45524f5f4e554d5f434f4e545249425554494f4e53000000000000602082015282612cbe5760405162461bcd60e51b8152600401610f3a9190614abb565b5060008681526006602090815260408083208884528252918290206004018054835181840281018401909452808452612d31938a9390929190830182828015612d2657602002820191906000526020600020905b815481526020019060010190808311612d12575b5050505050336138f7565b6040518060400160405280601b81526020017f4552525f53544152545f51554553545f4e4f545f414c4c4f574544000000000081525090612d855760405162461bcd60e51b8152600401610f3a9190614abb565b50600086815260076020908152604080832080546001908101918290558251610100810184528a81528085018a81528185018a9052606082018990526080820187905260a0820187905260c0820187905260e082018890528c875260088652848720848852909552929094208251815592519093919291820190612e099082615218565b5060408201516002820190612e1e9082615218565b50606082015181600301556080820151816004015560a0820151816005015560c0820151816006015560e0820151816007015590505085877fc73523a26432ebd11dd03a831db1a4f7f057a70ce0b18c111a50cf6ca41918288388888888604051612e8d959493929190615341565b60405180910390a350505050505050565b86511515604051806040016040528060198152602001784552525f454d5054595f51554553545f545950455f4e414d4560381b81525090612ef25760405162461bcd60e51b8152600401610f3a9190614abb565b508551151560405180606001604052806021815260200161561d6021913990612f2e5760405162461bcd60e51b8152600401610f3a9190614abb565b50612f398886611cfd565b6040518060400160405280601881526020016000805160206155fd83398151915281525090612f7b5760405162461bcd60e51b8152600401610f3a9190614abb565b5087600c600087815260200190815260200160002054146040518060400160405280601781526020017611549497d5d493d391d7d0905111d157d516541157d251604a1b81525090612fe05760405162461bcd60e51b8152600401610f3a9190614abb565b50612feb8885611cfd565b6040518060400160405280601881526020016000805160206155fd8339815191528152509061302d5760405162461bcd60e51b8152600401610f3a9190614abb565b5087600c600086815260200190815260200160002054146040518060400160405280601781526020017611549497d5d493d391d7d0905111d157d516541157d251604a1b815250906130925760405162461bcd60e51b8152600401610f3a9190614abb565b5061309d8884614897565b6040518060400160405280601881526020016000805160206155fd833981519152815250906130df5760405162461bcd60e51b8152600401610f3a9190614abb565b506130ea8883614897565b6040518060400160405280601881526020016000805160206155fd8339815191528152509061312c5760405162461bcd60e51b8152600401610f3a9190614abb565b506131378882614897565b6040518060400160405280601881526020016000805160206155fd833981519152815250906131795760405162461bcd60e51b8152600401610f3a9190614abb565b506000888152600560209081526040808320805460010190819055815160e0810183528b81528084018b90528083018a9052606081018990526080810188905260a0810187905260c081018690528c8552600684528285208286529093529220815181906131e79082615218565b50602082015160018201906131fc9082615218565b5060408201516002820155606082015160038201556080820151805161322c916004840191602090910190614a15565b5060a08201518051613248916005840191602090910190614a15565b5060c08201518051613264916006840191602090910190614a15565b50905050887fec35fe0264aa660686063e253b07bb6245fbf3d068bd83e664049f4e83e34b3d828a8a8a8a8a8a8a6040516132a69897969594939291906153bc565b60405180910390a2505050505050505050565b81511515604051806040016040528060198152602001784552525f454d5054595f42414447455f545950455f4e414d4560381b8152509061330d5760405162461bcd60e51b8152600401610f3a9190614abb565b50805115156040518060600160405280602181526020016155dc60219139906133495760405162461bcd60e51b8152600401610f3a9190614abb565b50600083815260046020819052604080832060020154905163038c547f60e11b81526001600160a01b0390911691630718a8fe9161338b918791879101615441565b6020604051808303816000875af11580156133aa573d6000803e3d6000fd5b505050506040513d601f19601f820116820180604052508101906133ce919061510d565b6000818152600c6020526040908190208690555190915084907fef0b9088382c158b6d4fba36d3a3c2ded49b7908e5e039abc026c697c5a532519061341890849087908790615466565b60405180910390a250505050565b83511515604051806040016040528060128152602001714552525f454d5054595f44414f5f4e414d4560701b815250906134735760405162461bcd60e51b8152600401610f3a9190614abb565b50825115156040518060400160405280601a81526020017f4552525f454d5054595f44414f5f4d455441444154415f555249000000000000815250906134cc5760405162461bcd60e51b8152600401610f3a9190614abb565b5060408051808201909152601c81527f4552525f454d5054595f44414f5f42414447455f434f4e54524143540000000060208201526001600160a01b0383166135285760405162461bcd60e51b8152600401610f3a9190614abb565b5060408051808201909152601381527222a9292fa2a6a82a2cafa220a7afa7aba722a960691b60208201526001600160a01b03821661357a5760405162461bcd60e51b8152600401610f3a9190614abb565b50613589600380546001019055565b600061359460035490565b6040805160c08101825287815260208082018890526001600160a01b03808816838501528616606083015260006080830181905260a083018190528481526004909152919091208151929350909181906135ee9082615218565b50602082015160018201906136039082615218565b506040828101516002830180546001600160a01b039283166001600160a01b03199182161790915560608501516003850180549190931691161790556080830151600483015560a090920151600590910155517f753b3b83ee44963ae0e15950e8696d5fef5ed1ae9b55e6106cd3d00567ec9ba99061368b908390889088908890889061549b565b60405180910390a15050505050565b60008381526008602090815260408083208584528252808320868452600a83528184208685528352818420858552909252822090916001820154600160a01b900460ff1660028111156136ef576136ef6151b7565b14604051806040016040528060158152602001744552525f51554553545f4e4f545f4f4e474f494e4760581b8152509061373c5760405162461bcd60e51b8152600401610f3a9190614abb565b5080546001600160a01b03163314806137cf5750600085815260066020818152604080842060088352818520898652835281852054855282529283902090910180548351818402810184019094528084526137cf93899390929190830182828015612d265760200282019190600052602060002090815481526020019060010190808311612d12575050505050336138f7565b6040518060400160405280601c81526020017f4552525f43414e43454c5f434c41494d5f4e4f545f414c4c4f57454400000000815250906138235760405162461bcd60e51b8152600401610f3a9190614abb565b506000858152600a6020908152604080832087845282528083208684528252808320600101805460ff60a01b1916600160a11b179055835488845260088352818420888552909252909120600701546138899187916001600160a01b039091169061496a565b60068201805490600061389b8361519e565b90915550506004820180549060006138b2836152d8565b90915550506040513381528390859087907f1ef401ee500254c5ed793961e7461e63de2521ebda38e55798fd786ebefd9af79060200160405180910390a45050505050565b6000838152600460205260408120600201546001600160a01b0316815b84518110156139dc57816001600160a01b031662fdd58e8587848151811061393e5761393e6154ec565b60200260200101516040518363ffffffff1660e01b81526004016139779291906001600160a01b03929092168252602082015260400190565b602060405180830381865afa158015613994573d6000803e3d6000fd5b505050506040513d601f19601f820116820180604052508101906139b8919061510d565b6000036139ca57600092505050611968565b806139d48161519e565b915050613914565b50600195945050505050565b6001600160a01b0382166000908152600d6020526040902054613a0b9082613aa1565b6001600160a01b0383166000818152600d6020908152604080832094909455868252600e8152838220928252919091522054613a479082611ca4565b6000848152600e602090815260408083206001600160a01b03871684528252808320939093558582526004908190529190200154613a859082611ca4565b6000938452600460208190526040909420909301929092555050565b60006119688284615502565b6000838152600e602090815260408083206001600160a01b0386168452909152902054613ada9082613aa1565b6000848152600e602090815260408083206001600160a01b0387168452825280832093909355600d90522054613b109082611ca4565b6001600160a01b0383166000908152600d60209081526040808320939093558582526004908190529190200154613a859082613aa1565b8051600090815260046020526040808220815160c0810190925280548392919082908290613b74906150aa565b80601f0160208091040260200160405190810160405280929190818152602001828054613ba0906150aa565b8015613bed5780601f10613bc257610100808354040283529160200191613bed565b820191906000526020600020905b815481529060010190602001808311613bd057829003601f168201915b50505050508152602001600182018054613c06906150aa565b80601f0160208091040260200160405190810160405280929190818152602001828054613c32906150aa565b8015613c7f5780601f10613c5457610100808354040283529160200191613c7f565b820191906000526020600020905b815481529060010190602001808311613c6257829003601f168201915b505050918352505060028201546001600160a01b039081166020808401919091526003840154909116604080840191909152600484015460608401526005909301546080909201919091528551600090815260068252828120878301518252909152818120825160e081019093528054939450909282908290613d01906150aa565b80601f0160208091040260200160405190810160405280929190818152602001828054613d2d906150aa565b8015613d7a5780601f10613d4f57610100808354040283529160200191613d7a565b820191906000526020600020905b815481529060010190602001808311613d5d57829003601f168201915b50505050508152602001600182018054613d93906150aa565b80601f0160208091040260200160405190810160405280929190818152602001828054613dbf906150aa565b8015613e0c5780601f10613de157610100808354040283529160200191613e0c565b820191906000526020600020905b815481529060010190602001808311613def57829003601f168201915b50505050508152602001600282015481526020016003820154815260200160048201805480602002602001604051908101604052809291908181526020018280548015613e7857602002820191906000526020600020905b815481526020019060010190808311613e64575b5050505050815260200160058201805480602002602001604051908101604052809291908181526020018280548015613ed057602002820191906000526020600020905b815481526020019060010190808311613ebc575b5050505050815260200160068201805480602002602001604051908101604052809291908181526020018280548015613f2857602002820191906000526020600020905b815481526020019060010190808311613f14575b50505091909252505085516000908152600a60209081526040808320818a01518452825280832060608a015184528252808320815160808101835281546001600160a01b03908116825260018301549081169482019490945295965092949350830190600160a01b900460ff166002811115613fa657613fa66151b7565b6002811115613fb757613fb76151b7565b8152602001600282018054613fcb906150aa565b80601f0160208091040260200160405190810160405280929190818152602001828054613ff7906150aa565b80156140445780601f1061401957610100808354040283529160200191614044565b820191906000526020600020905b81548152906001019060200180831161402757829003601f168201915b50505091909252505050604080850151908401516001549293509091600091906001600160a01b0316156141da5760015460408051610140810190915289516001600160a01b03909216916316e9450091908190856140a260025490565b60405167383630bcb230b79760c11b6020820152602881019390935266173130b233b29760c91b6048840152604f830191909152721731b7b73a3934b13aba32b2173737b731b29760691b606f830152608282015260a201604051602081830303815290604052815260200187600001516001600160a01b031681526020018b60a001516001600160a01b031681526020018b60800151815260200161414760025490565b81526020018b6000015181526020018481526020018b6020015181526020018b6040015181526020018b606001518152506040518263ffffffff1660e01b815260040161419491906155c8565b6020604051808303816000875af11580156141b3573d6000803e3d6000fd5b505050506040513d601f19601f820116820180604052508101906141d7919061510d565b91505b826001600160a01b03166329efcf808560000151838560405160200161420291815260200190565b6040516020818303038152906040526040518463ffffffff1660e01b815260040161422f9392919061516e565b600060405180830381600087803b15801561424957600080fd5b505af115801561425d573d6000803e3d6000fd5b50939a9950505050505050505050565b6020808201518251600090815260049092526040808320815160c08101909252805484929190829082906142a0906150aa565b80601f01602080910402602001604051908101604052809291908181526020018280546142cc906150aa565b80156143195780601f106142ee57610100808354040283529160200191614319565b820191906000526020600020905b8154815290600101906020018083116142fc57829003601f168201915b50505050508152602001600182018054614332906150aa565b80601f016020809104026020016040519081016040528092919081815260200182805461435e906150aa565b80156143ab5780601f10614380576101008083540402835291602001916143ab565b820191906000526020600020905b81548152906001019060200180831161438e57829003601f168201915b505050918352505060028201546001600160a01b039081166020808401919091526003840154909116604080840191909152600484015460608401526005909301546080909201919091528651600090815260068252828120868252909152818120825160e08101909352805493945090928290829061442a906150aa565b80601f0160208091040260200160405190810160405280929190818152602001828054614456906150aa565b80156144a35780601f10614478576101008083540402835291602001916144a3565b820191906000526020600020905b81548152906001019060200180831161448657829003601f168201915b505050505081526020016001820180546144bc906150aa565b80601f01602080910402602001604051908101604052809291908181526020018280546144e8906150aa565b80156145355780601f1061450a57610100808354040283529160200191614535565b820191906000526020600020905b81548152906001019060200180831161451857829003601f168201915b505050505081526020016002820154815260200160038201548152602001600482018054806020026020016040519081016040528092919081815260200182805480156145a157602002820191906000526020600020905b81548152602001906001019080831161458d575b50505050508152602001600582018054806020026020016040519081016040528092919081815260200182805480156145f957602002820191906000526020600020905b8154815260200190600101908083116145e5575b505050505081526020016006820180548060200260200160405190810160405280929190818152602001828054801561465157602002820191906000526020600020905b81548152602001906001019080831161463d575b50505091909252505086516000908152600a60209081526040808320818b0151845282528083206060808c01518552925280832090870151918501516001549596509094919350906001600160a01b031615614803576001546040805161014081019091528a516001600160a01b039092169163b1facc9591908190856146d760025490565b60405167383630bcb230b79760c11b6020820152602881019390935266173130b233b29760c91b6048840152604f8301919091526f173b32b934b334b2b2173737b731b29760811b606f830152607f820152609f0160408051601f1981840301815291815290825260a08e01516001600160a01b039081166020840152895416908201526080808e015160608301520161477060025490565b81526020018c6000015181526020018481526020018c6020015181526020018c6040015181526020018c606001518152506040518263ffffffff1660e01b81526004016147bd91906155c8565b6020604051808303816000875af11580156147dc573d6000803e3d6000fd5b505050506040513d601f19601f82011682018060405250810190614800919061510d565b91505b826001600160a01b03166329efcf808a60a00151838560405160200161482b91815260200190565b6040516020818303038152906040526040518463ffffffff1660e01b81526004016148589392919061516e565b600060405180830381600087803b15801561487257600080fd5b505af1158015614886573d6000803e3d6000fd5b50939b9a5050505050505050505050565b6000828152600460208181526040808420600201548151630fb365d160e41b8152915185946001600160a01b039092169363fb365d109380840193919291908290030181865afa1580156148ef573d6000803e3d6000fd5b505050506040513d601f19601f82011682018060405250810190614913919061510d565b905060005b835181101561495f5781848281518110614934576149346154ec565b6020026020010151111561494d57600092505050610e41565b806149578161519e565b915050614918565b506001949350505050565b6000838152600e602090815260408083206001600160a01b03861684529091529020546149979082613aa1565b6000848152600e602090815260408083206001600160a01b038716845282528083209390935585825260049081905291902001546149d59082613aa1565b600084815260046020819052604090912090810191909155600501546149fb9082611ca4565b600093845260046020526040909320600501929092555050565b828054828255906000526020600020908101928215614a50579160200282015b82811115614a50578251825591602001919060010190614a35565b50614a5c929150614a60565b5090565b5b80821115614a5c5760008155600101614a61565b6000815180845260005b81811015614a9b57602081850181015186830182015201614a7f565b506000602082860101526020601f19601f83011685010191505092915050565b6020815260006119686020830184614a75565b600060208284031215614ae057600080fd5b5035919050565b80356001600160a01b0381168114614afe57600080fd5b919050565b600080600060608486031215614b1857600080fd5b8335925060208401359150614b2f60408501614ae7565b90509250925092565b60008060408385031215614b4b57600080fd5b50508035926020909101359150565b608081526000614b6d6080830187614a75565b8281036020840152614b7f8187614a75565b604084019590955250506060015292915050565b634e487b7160e01b600052604160045260246000fd5b604051601f8201601f1916810167ffffffffffffffff81118282101715614bd257614bd2614b93565b604052919050565b600082601f830112614beb57600080fd5b813567ffffffffffffffff811115614c0557614c05614b93565b614c18601f8201601f1916602001614ba9565b818152846020838601011115614c2d57600080fd5b816020850160208301376000918101602001919091529392505050565b600080600080600060a08688031215614c6257600080fd5b853594506020860135935060408601359250606086013567ffffffffffffffff80821115614c8f57600080fd5b614c9b89838a01614bda565b93506080880135915080821115614cb157600080fd5b50614cbe88828901614bda565b9150509295509295909350565b600060208284031215614cdd57600080fd5b61196882614ae7565b60008060008060008060c08789031215614cff57600080fd5b8635955060208701359450604087013567ffffffffffffffff80821115614d2557600080fd5b614d318a838b01614bda565b95506060890135915080821115614d4757600080fd5b50614d5489828a01614bda565b9350506080870135915060a087013590509295509295509295565b600082601f830112614d8057600080fd5b8135602067ffffffffffffffff821115614d9c57614d9c614b93565b8160051b614dab828201614ba9565b9283528481018201928281019087851115614dc557600080fd5b83870192505b84831015614de457823582529183019190830190614dcb565b979650505050505050565b600080600080600080600080610100898b031215614e0c57600080fd5b88359750602089013567ffffffffffffffff80821115614e2b57600080fd5b614e378c838d01614bda565b985060408b0135915080821115614e4d57600080fd5b614e598c838d01614bda565b975060608b0135965060808b0135955060a08b0135915080821115614e7d57600080fd5b614e898c838d01614d6f565b945060c08b0135915080821115614e9f57600080fd5b614eab8c838d01614d6f565b935060e08b0135915080821115614ec157600080fd5b50614ece8b828c01614d6f565b9150509295985092959890939650565b60006101008a8352806020840152614ef88184018b614a75565b90508281036040840152614f0c818a614a75565b60608401989098525050608081019490945260a084019290925260c083015260e0909101529392505050565b600080600060608486031215614f4d57600080fd5b83359250602084013567ffffffffffffffff80821115614f6c57600080fd5b614f7887838801614bda565b93506040860135915080821115614f8e57600080fd5b50614f9b86828701614bda565b9150509250925092565b60008060008060808587031215614fbb57600080fd5b843567ffffffffffffffff80821115614fd357600080fd5b614fdf88838901614bda565b95506020870135915080821115614ff557600080fd5b5061500287828801614bda565b93505061501160408601614ae7565b915061501f60608601614ae7565b905092959194509250565b60c08152600061503d60c0830189614a75565b828103602084015261504f8189614a75565b6001600160a01b03978816604085015295909616606083015250608081019290925260a0909101529392505050565b60008060006060848603121561509357600080fd5b505081359360208301359350604090920135919050565b600181811c908216806150be57607f821691505b6020821081036150de57634e487b7160e01b600052602260045260246000fd5b50919050565b634e487b7160e01b600052601160045260246000fd5b80820180821115610e4157610e416150e4565b60006020828403121561511f57600080fd5b5051919050565b60c08152600061513960c0830189614a75565b6001600160a01b0397881660208401529590961660408201526060810193909352608083019190915260a09091015292915050565b60018060a01b03841681528260208201526060604082015260006151956060830184614a75565b95945050505050565b6000600182016151b0576151b06150e4565b5060010190565b634e487b7160e01b600052602160045260246000fd5b601f82111561521357600081815260208120601f850160051c810160208610156151f45750805b601f850160051c820191505b8181101561192b57828155600101615200565b505050565b815167ffffffffffffffff81111561523257615232614b93565b6152468161524084546150aa565b846151cd565b602080601f83116001811461527b57600084156152635750858301515b600019600386901b1c1916600185901b17855561192b565b600085815260208120601f198616915b828110156152aa5788860151825594840194600190910190840161528b565b50858210156152c85787850151600019600388901b60f8161c191681555b5050505050600190811b01905550565b6000816152e7576152e76150e4565b506000190190565b600060018060a01b03808916835260c0602084015261531160c0840189614a75565b83810360408501526153238189614a75565b91909616606084015260808301949094525060a00152949350505050565b85815260a06020820152600061535a60a0830187614a75565b828103604084015261536c8187614a75565b60608401959095525050608001529392505050565b600081518084526020808501945080840160005b838110156153b157815187529582019590820190600101615395565b509495945050505050565b60006101008a83528060208401526153d68184018b614a75565b905082810360408401526153ea818a614a75565b905087606084015286608084015282810360a084015261540a8187615381565b905082810360c084015261541e8186615381565b905082810360e08401526154328185615381565b9b9a5050505050505050505050565b6040815260006154546040830185614a75565b82810360208401526151958185614a75565b83815260606020820152600061547f6060830185614a75565b82810360408401526154918185614a75565b9695505050505050565b85815260a0602082015260006154b460a0830187614a75565b82810360408401526154c68187614a75565b6001600160a01b0395861660608501529390941660809092019190915250949350505050565b634e487b7160e01b600052603260045260246000fd5b81810381811115610e4157610e416150e4565b6000610140825181855261552b82860182614a75565b915050602083015161554860208601826001600160a01b03169052565b50604083015161556360408601826001600160a01b03169052565b506060830151848203606086015261557b8282614a75565b9150506080830151608085015260a083015160a085015260c083015160c085015260e083015160e08501526101008084015181860152506101208084015181860152508091505092915050565b602081526000611968602083018461551556fe4552525f454d5054595f42414447455f545950455f4d455441444154415f5552494552525f42414447455f545950455f4e4f545f464f554e4400000000000000004552525f454d5054595f51554553545f545950455f4d455441444154415f555249a2646970667358221220ce5c049669aa20c75be4cb2371c5a839292bd17bbf1e2c6a07be4856468c792e64736f6c63430008110033",
  "linkReferences": {},
  "deployedLinkReferences": {}
}