{
  "_format": "hh-sol-artifact-1",
  "contractName": "PlayDAO",
  "sourceName": "contracts/PlayDAO.sol",
  "abi": [
    {
      "inputs": [],
      "stateMutability": "nonpayable",
      "type": "constructor"
    },
    {
      "anonymous": false,
      "inputs": [
        {
          "indexed": true,
          "internalType": "uint256",
          "name": "daoID",
          "type": "uint256"
        },
        {
          "indexed": false,
          "internalType": "uint256",
          "name": "badgeTypeID",
          "type": "uint256"
        },
        {
          "indexed": false,
          "internalType": "string",
          "name": "name",
          "type": "string"
        },
        {
          "indexed": false,
          "internalType": "string",
          "name": "metadataURI",
          "type": "string"
        }
      ],
      "name": "BadgeTypeCreated",
      "type": "event"
    },
    {
      "anonymous": false,
      "inputs": [
        {
          "indexed": false,
          "internalType": "uint256",
          "name": "daoID",
          "type": "uint256"
        },
        {
          "indexed": false,
          "internalType": "string",
          "name": "name",
          "type": "string"
        },
        {
          "indexed": false,
          "internalType": "string",
          "name": "metadataURI",
          "type": "string"
        },
        {
          "indexed": false,
          "internalType": "address",
          "name": "badgeContract",
          "type": "address"
        },
        {
          "indexed": false,
          "internalType": "address",
          "name": "owner",
          "type": "address"
        }
      ],
      "name": "DAOCreated",
      "type": "event"
    },
    {
      "anonymous": false,
      "inputs": [
        {
          "indexed": true,
          "internalType": "address",
          "name": "account",
          "type": "address"
        },
        {
          "indexed": false,
          "internalType": "uint256",
          "name": "amount",
          "type": "uint256"
        },
        {
          "indexed": false,
          "internalType": "uint256",
          "name": "total",
          "type": "uint256"
        }
      ],
      "name": "Deposited",
      "type": "event"
    },
    {
      "anonymous": false,
      "inputs": [
        {
          "indexed": true,
          "internalType": "address",
          "name": "previousOwner",
          "type": "address"
        },
        {
          "indexed": true,
          "internalType": "address",
          "name": "newOwner",
          "type": "address"
        }
      ],
      "name": "OwnershipTransferred",
      "type": "event"
    },
    {
      "anonymous": false,
      "inputs": [
        {
          "indexed": false,
          "internalType": "address",
          "name": "account",
          "type": "address"
        }
      ],
      "name": "Paused",
      "type": "event"
    },
    {
      "anonymous": false,
      "inputs": [
        {
          "indexed": true,
          "internalType": "uint256",
          "name": "daoID",
          "type": "uint256"
        },
        {
          "indexed": true,
          "internalType": "uint256",
          "name": "questID",
          "type": "uint256"
        },
        {
          "indexed": true,
          "internalType": "uint256",
          "name": "claimID",
          "type": "uint256"
        },
        {
          "indexed": false,
          "internalType": "address",
          "name": "operator",
          "type": "address"
        }
      ],
      "name": "QuestCanceled",
      "type": "event"
    },
    {
      "anonymous": false,
      "inputs": [
        {
          "indexed": true,
          "internalType": "uint256",
          "name": "daoID",
          "type": "uint256"
        },
        {
          "indexed": true,
          "internalType": "uint256",
          "name": "questTypeID",
          "type": "uint256"
        },
        {
          "indexed": true,
          "internalType": "uint256",
          "name": "questID",
          "type": "uint256"
        },
        {
          "indexed": false,
          "internalType": "uint256",
          "name": "claimID",
          "type": "uint256"
        },
        {
          "indexed": false,
          "internalType": "address",
          "name": "claimer",
          "type": "address"
        }
      ],
      "name": "QuestClaimed",
      "type": "event"
    },
    {
      "anonymous": false,
      "inputs": [
        {
          "indexed": true,
          "internalType": "uint256",
          "name": "daoID",
          "type": "uint256"
        },
        {
          "indexed": true,
          "internalType": "uint256",
          "name": "questID",
          "type": "uint256"
        },
        {
          "indexed": true,
          "internalType": "uint256",
          "name": "claimID",
          "type": "uint256"
        },
        {
          "indexed": false,
          "internalType": "address",
          "name": "verifier",
          "type": "address"
        },
        {
          "indexed": false,
          "internalType": "string",
          "name": "proofMetadataURI",
          "type": "string"
        }
      ],
      "name": "QuestCompleted",
      "type": "event"
    },
    {
      "anonymous": false,
      "inputs": [
        {
          "indexed": true,
          "internalType": "uint256",
          "name": "daoID",
          "type": "uint256"
        },
        {
          "indexed": true,
          "internalType": "uint256",
          "name": "questTypeID",
          "type": "uint256"
        },
        {
          "indexed": false,
          "internalType": "uint256",
          "name": "questID",
          "type": "uint256"
        },
        {
          "indexed": false,
          "internalType": "string",
          "name": "name",
          "type": "string"
        },
        {
          "indexed": false,
          "internalType": "string",
          "name": "metadataURI",
          "type": "string"
        },
        {
          "indexed": false,
          "internalType": "uint256",
          "name": "numContributions",
          "type": "uint256"
        },
        {
          "indexed": false,
          "internalType": "uint256",
          "name": "requiredStake",
          "type": "uint256"
        }
      ],
      "name": "QuestStarted",
      "type": "event"
    },
    {
      "anonymous": false,
      "inputs": [
        {
          "indexed": true,
          "internalType": "uint256",
          "name": "daoID",
          "type": "uint256"
        },
        {
          "indexed": false,
          "internalType": "uint256",
          "name": "questTypeID",
          "type": "uint256"
        },
        {
          "indexed": false,
          "internalType": "string",
          "name": "name",
          "type": "string"
        },
        {
          "indexed": false,
          "internalType": "string",
          "name": "metadataURI",
          "type": "string"
        },
        {
          "indexed": false,
          "internalType": "uint256",
          "name": "contributorBadgeTypeID",
          "type": "uint256"
        },
        {
          "indexed": false,
          "internalType": "uint256",
          "name": "verifierBadgeTypeID",
          "type": "uint256"
        },
        {
          "indexed": false,
          "internalType": "uint256[]",
          "name": "starterDeps",
          "type": "uint256[]"
        },
        {
          "indexed": false,
          "internalType": "uint256[]",
          "name": "contributorDeps",
          "type": "uint256[]"
        },
        {
          "indexed": false,
          "internalType": "uint256[]",
          "name": "verifierDeps",
          "type": "uint256[]"
        }
      ],
      "name": "QuestTypeCreated",
      "type": "event"
    },
    {
      "anonymous": false,
      "inputs": [
        {
          "indexed": false,
          "internalType": "address",
          "name": "account",
          "type": "address"
        }
      ],
      "name": "Unpaused",
      "type": "event"
    },
    {
      "anonymous": false,
      "inputs": [
        {
          "indexed": true,
          "internalType": "address",
          "name": "account",
          "type": "address"
        },
        {
          "indexed": false,
          "internalType": "uint256",
          "name": "amount",
          "type": "uint256"
        },
        {
          "indexed": false,
          "internalType": "uint256",
          "name": "remaining",
          "type": "uint256"
        }
      ],
      "name": "Withdrew",
      "type": "event"
    },
    {
      "anonymous": false,
      "inputs": [
        {
          "indexed": true,
          "internalType": "uint256",
          "name": "daoID",
          "type": "uint256"
        },
        {
          "indexed": true,
          "internalType": "address",
          "name": "account",
          "type": "address"
        },
        {
          "indexed": false,
          "internalType": "uint256",
          "name": "amount",
          "type": "uint256"
        },
        {
          "indexed": false,
          "internalType": "uint256",
          "name": "remaining",
          "type": "uint256"
        }
      ],
      "name": "WithdrewFromDAO",
      "type": "event"
    },
    {
      "inputs": [],
      "name": "ERR_BADGE_TYPE_NOT_FOUND",
      "outputs": [
        {
          "internalType": "string",
          "name": "",
          "type": "string"
        }
      ],
      "stateMutability": "view",
      "type": "function"
    },
    {
      "inputs": [],
      "name": "ERR_CANCEL_CLAIM_NOT_ALLOWED",
      "outputs": [
        {
          "internalType": "string",
          "name": "",
          "type": "string"
        }
      ],
      "stateMutability": "view",
      "type": "function"
    },
    {
      "inputs": [],
      "name": "ERR_CLAIM_NOT_ALLOWED",
      "outputs": [
        {
          "internalType": "string",
          "name": "",
          "type": "string"
        }
      ],
      "stateMutability": "view",
      "type": "function"
    },
    {
      "inputs": [],
      "name": "ERR_CLAIM_NOT_FOUND",
      "outputs": [
        {
          "internalType": "string",
          "name": "",
          "type": "string"
        }
      ],
      "stateMutability": "view",
      "type": "function"
    },
    {
      "inputs": [],
      "name": "ERR_DAO_NOT_FOUND",
      "outputs": [
        {
          "internalType": "string",
          "name": "",
          "type": "string"
        }
      ],
      "stateMutability": "view",
      "type": "function"
    },
    {
      "inputs": [],
      "name": "ERR_EMPTY_BADGE_TYPE_METADATA_URI",
      "outputs": [
        {
          "internalType": "string",
          "name": "",
          "type": "string"
        }
      ],
      "stateMutability": "view",
      "type": "function"
    },
    {
      "inputs": [],
      "name": "ERR_EMPTY_BADGE_TYPE_NAME",
      "outputs": [
        {
          "internalType": "string",
          "name": "",
          "type": "string"
        }
      ],
      "stateMutability": "view",
      "type": "function"
    },
    {
      "inputs": [],
      "name": "ERR_EMPTY_DAO_BADGE_CONTRACT",
      "outputs": [
        {
          "internalType": "string",
          "name": "",
          "type": "string"
        }
      ],
      "stateMutability": "view",
      "type": "function"
    },
    {
      "inputs": [],
      "name": "ERR_EMPTY_DAO_METADATA_URI",
      "outputs": [
        {
          "internalType": "string",
          "name": "",
          "type": "string"
        }
      ],
      "stateMutability": "view",
      "type": "function"
    },
    {
      "inputs": [],
      "name": "ERR_EMPTY_DAO_NAME",
      "outputs": [
        {
          "internalType": "string",
          "name": "",
          "type": "string"
        }
      ],
      "stateMutability": "view",
      "type": "function"
    },
    {
      "inputs": [],
      "name": "ERR_EMPTY_DAO_OWNER",
      "outputs": [
        {
          "internalType": "string",
          "name": "",
          "type": "string"
        }
      ],
      "stateMutability": "view",
      "type": "function"
    },
    {
      "inputs": [],
      "name": "ERR_EMPTY_QUEST_METADATA_URI",
      "outputs": [
        {
          "internalType": "string",
          "name": "",
          "type": "string"
        }
      ],
      "stateMutability": "view",
      "type": "function"
    },
    {
      "inputs": [],
      "name": "ERR_EMPTY_QUEST_NAME",
      "outputs": [
        {
          "internalType": "string",
          "name": "",
          "type": "string"
        }
      ],
      "stateMutability": "view",
      "type": "function"
    },
    {
      "inputs": [],
      "name": "ERR_EMPTY_QUEST_TYPE_METADATA_URI",
      "outputs": [
        {
          "internalType": "string",
          "name": "",
          "type": "string"
        }
      ],
      "stateMutability": "view",
      "type": "function"
    },
    {
      "inputs": [],
      "name": "ERR_EMPTY_QUEST_TYPE_NAME",
      "outputs": [
        {
          "internalType": "string",
          "name": "",
          "type": "string"
        }
      ],
      "stateMutability": "view",
      "type": "function"
    },
    {
      "inputs": [],
      "name": "ERR_INSUFFICIENT_STAKE",
      "outputs": [
        {
          "internalType": "string",
          "name": "",
          "type": "string"
        }
      ],
      "stateMutability": "view",
      "type": "function"
    },
    {
      "inputs": [],
      "name": "ERR_NOT_DAO_OWNER",
      "outputs": [
        {
          "internalType": "string",
          "name": "",
          "type": "string"
        }
      ],
      "stateMutability": "view",
      "type": "function"
    },
    {
      "inputs": [],
      "name": "ERR_NO_MORE_CLAIM",
      "outputs": [
        {
          "internalType": "string",
          "name": "",
          "type": "string"
        }
      ],
      "stateMutability": "view",
      "type": "function"
    },
    {
      "inputs": [],
      "name": "ERR_QUEST_CLAIMED_ALREADY",
      "outputs": [
        {
          "internalType": "string",
          "name": "",
          "type": "string"
        }
      ],
      "stateMutability": "view",
      "type": "function"
    },
    {
      "inputs": [],
      "name": "ERR_QUEST_NOT_FOUND",
      "outputs": [
        {
          "internalType": "string",
          "name": "",
          "type": "string"
        }
      ],
      "stateMutability": "view",
      "type": "function"
    },
    {
      "inputs": [],
      "name": "ERR_QUEST_TYPE_NOT_FOUND",
      "outputs": [
        {
          "internalType": "string",
          "name": "",
          "type": "string"
        }
      ],
      "stateMutability": "view",
      "type": "function"
    },
    {
      "inputs": [],
      "name": "ERR_SELF_VERIFICATION",
      "outputs": [
        {
          "internalType": "string",
          "name": "",
          "type": "string"
        }
      ],
      "stateMutability": "view",
      "type": "function"
    },
    {
      "inputs": [],
      "name": "ERR_START_QUEST_NOT_ALLOWED",
      "outputs": [
        {
          "internalType": "string",
          "name": "",
          "type": "string"
        }
      ],
      "stateMutability": "view",
      "type": "function"
    },
    {
      "inputs": [],
      "name": "ERR_VERIFY_CLAIM_NOT_ALLOWED",
      "outputs": [
        {
          "internalType": "string",
          "name": "",
          "type": "string"
        }
      ],
      "stateMutability": "view",
      "type": "function"
    },
    {
      "inputs": [],
      "name": "ERR_WRONG_BADGE_TYPE_ID",
      "outputs": [
        {
          "internalType": "string",
          "name": "",
          "type": "string"
        }
      ],
      "stateMutability": "view",
      "type": "function"
    },
    {
      "inputs": [],
      "name": "ERR_ZERO_NUM_CONTRIBUTIONS",
      "outputs": [
        {
          "internalType": "string",
          "name": "",
          "type": "string"
        }
      ],
      "stateMutability": "view",
      "type": "function"
    },
    {
      "inputs": [
        {
          "internalType": "uint256",
          "name": "",
          "type": "uint256"
        }
      ],
      "name": "_DAOs",
      "outputs": [
        {
          "internalType": "string",
          "name": "name",
          "type": "string"
        },
        {
          "internalType": "string",
          "name": "metadataURI",
          "type": "string"
        },
        {
          "internalType": "address",
          "name": "badgeContract",
          "type": "address"
        },
        {
          "internalType": "address",
          "name": "owner",
          "type": "address"
        },
        {
          "internalType": "uint256",
          "name": "totalStaked",
          "type": "uint256"
        },
        {
          "internalType": "uint256",
          "name": "balance",
          "type": "uint256"
        }
      ],
      "stateMutability": "view",
      "type": "function"
    },
    {
      "inputs": [
        {
          "internalType": "uint256",
          "name": "",
          "type": "uint256"
        },
        {
          "internalType": "uint256",
          "name": "",
          "type": "uint256"
        }
      ],
      "name": "_questTypes",
      "outputs": [
        {
          "internalType": "string",
          "name": "name",
          "type": "string"
        },
        {
          "internalType": "string",
          "name": "metadataURI",
          "type": "string"
        },
        {
          "internalType": "uint256",
          "name": "contributorBadgeTypeID",
          "type": "uint256"
        },
        {
          "internalType": "uint256",
          "name": "verifierBadgeTypeID",
          "type": "uint256"
        }
      ],
      "stateMutability": "view",
      "type": "function"
    },
    {
      "inputs": [
        {
          "internalType": "uint256",
          "name": "",
          "type": "uint256"
        },
        {
          "internalType": "uint256",
          "name": "",
          "type": "uint256"
        }
      ],
      "name": "_quests",
      "outputs": [
        {
          "internalType": "uint256",
          "name": "questTypeID",
          "type": "uint256"
        },
        {
          "internalType": "string",
          "name": "name",
          "type": "string"
        },
        {
          "internalType": "string",
          "name": "metadataURI",
          "type": "string"
        },
        {
          "internalType": "uint256",
          "name": "limitContributors",
          "type": "uint256"
        },
        {
          "internalType": "uint256",
          "name": "numOngoings",
          "type": "uint256"
        },
        {
          "internalType": "uint256",
          "name": "numComplted",
          "type": "uint256"
        },
        {
          "internalType": "uint256",
          "name": "numCanceled",
          "type": "uint256"
        },
        {
          "internalType": "uint256",
          "name": "requiredStake",
          "type": "uint256"
        }
      ],
      "stateMutability": "view",
      "type": "function"
    },
    {
      "inputs": [
        {
          "internalType": "uint256",
          "name": "daoID",
          "type": "uint256"
        }
      ],
      "name": "balanceOf",
      "outputs": [
        {
          "internalType": "uint256",
          "name": "",
          "type": "uint256"
        }
      ],
      "stateMutability": "view",
      "type": "function"
    },
    {
      "inputs": [
        {
          "internalType": "uint256",
          "name": "daoID",
          "type": "uint256"
        },
        {
          "internalType": "uint256",
          "name": "questID",
          "type": "uint256"
        },
        {
          "internalType": "uint256",
          "name": "claimID",
          "type": "uint256"
        }
      ],
      "name": "cancelClaim",
      "outputs": [],
      "stateMutability": "nonpayable",
      "type": "function"
    },
    {
      "inputs": [
        {
          "internalType": "uint256",
          "name": "daoID",
          "type": "uint256"
        },
        {
          "internalType": "uint256",
          "name": "questID",
          "type": "uint256"
        }
      ],
      "name": "claimQuest",
      "outputs": [],
      "stateMutability": "payable",
      "type": "function"
    },
    {
      "inputs": [
        {
          "internalType": "uint256",
          "name": "daoID",
          "type": "uint256"
        },
        {
          "internalType": "uint256",
          "name": "questID",
          "type": "uint256"
        },
        {
          "internalType": "uint256",
          "name": "claimID",
          "type": "uint256"
        },
        {
          "internalType": "string",
          "name": "proofMetadataURI",
          "type": "string"
        }
      ],
      "name": "completeQuest",
      "outputs": [],
      "stateMutability": "nonpayable",
      "type": "function"
    },
    {
      "inputs": [
        {
          "internalType": "uint256",
          "name": "daoID",
          "type": "uint256"
        },
        {
          "internalType": "string",
          "name": "name",
          "type": "string"
        },
        {
          "internalType": "string",
          "name": "metadataURI",
          "type": "string"
        }
      ],
      "name": "createBadgeType",
      "outputs": [],
      "stateMutability": "nonpayable",
      "type": "function"
    },
    {
      "inputs": [
        {
          "internalType": "string",
          "name": "name",
          "type": "string"
        },
        {
          "internalType": "string",
          "name": "metadataURI",
          "type": "string"
        },
        {
          "internalType": "address",
          "name": "badgeContractAddress",
          "type": "address"
        },
        {
          "internalType": "address",
          "name": "owner",
          "type": "address"
        }
      ],
      "name": "createDAO",
      "outputs": [],
      "stateMutability": "nonpayable",
      "type": "function"
    },
    {
      "inputs": [
        {
          "internalType": "uint256",
          "name": "daoID",
          "type": "uint256"
        },
        {
          "internalType": "string",
          "name": "name",
          "type": "string"
        },
        {
          "internalType": "string",
          "name": "metadataURI",
          "type": "string"
        },
        {
          "internalType": "uint256",
          "name": "contributorBadgeTypeID",
          "type": "uint256"
        },
        {
          "internalType": "uint256",
          "name": "verifierBadgeTypeID",
          "type": "uint256"
        },
        {
          "internalType": "uint256[]",
          "name": "starterDeps",
          "type": "uint256[]"
        },
        {
          "internalType": "uint256[]",
          "name": "contributorDeps",
          "type": "uint256[]"
        },
        {
          "internalType": "uint256[]",
          "name": "verifierDeps",
          "type": "uint256[]"
        }
      ],
      "name": "createQuestType",
      "outputs": [],
      "stateMutability": "nonpayable",
      "type": "function"
    },
    {
      "inputs": [],
      "name": "deposit",
      "outputs": [],
      "stateMutability": "payable",
      "type": "function"
    },
    {
      "inputs": [
        {
          "internalType": "address",
          "name": "account",
          "type": "address"
        }
      ],
      "name": "depositedOf",
      "outputs": [
        {
          "internalType": "uint256",
          "name": "",
          "type": "uint256"
        }
      ],
      "stateMutability": "view",
      "type": "function"
    },
    {
      "inputs": [
        {
          "internalType": "uint256",
          "name": "daoID",
          "type": "uint256"
        },
        {
          "internalType": "uint256",
          "name": "badgeTypeID",
          "type": "uint256"
        },
        {
          "internalType": "address",
          "name": "to",
          "type": "address"
        }
      ],
      "name": "grantBadge",
      "outputs": [],
      "stateMutability": "nonpayable",
      "type": "function"
    },
    {
      "inputs": [],
      "name": "owner",
      "outputs": [
        {
          "internalType": "address",
          "name": "",
          "type": "address"
        }
      ],
      "stateMutability": "view",
      "type": "function"
    },
    {
      "inputs": [],
      "name": "pause",
      "outputs": [],
      "stateMutability": "nonpayable",
      "type": "function"
    },
    {
      "inputs": [],
      "name": "paused",
      "outputs": [
        {
          "internalType": "bool",
          "name": "",
          "type": "bool"
        }
      ],
      "stateMutability": "view",
      "type": "function"
    },
    {
      "inputs": [],
      "name": "renounceOwnership",
      "outputs": [],
      "stateMutability": "nonpayable",
      "type": "function"
    },
    {
      "inputs": [
        {
          "internalType": "uint256",
          "name": "daoID",
          "type": "uint256"
        },
        {
          "internalType": "uint256",
          "name": "questTypeID",
          "type": "uint256"
        },
        {
          "internalType": "string",
          "name": "name",
          "type": "string"
        },
        {
          "internalType": "string",
          "name": "metadataURI",
          "type": "string"
        },
        {
          "internalType": "uint256",
          "name": "numContributions",
          "type": "uint256"
        },
        {
          "internalType": "uint256",
          "name": "requiredStake",
          "type": "uint256"
        }
      ],
      "name": "startQuest",
      "outputs": [],
      "stateMutability": "nonpayable",
      "type": "function"
    },
    {
      "inputs": [
        {
          "internalType": "uint256",
          "name": "daoID",
          "type": "uint256"
        },
        {
          "internalType": "uint256",
          "name": "questID",
          "type": "uint256"
        }
      ],
      "name": "totalClaims",
      "outputs": [
        {
          "internalType": "uint256",
          "name": "",
          "type": "uint256"
        }
      ],
      "stateMutability": "view",
      "type": "function"
    },
    {
      "inputs": [],
      "name": "totalDAOs",
      "outputs": [
        {
          "internalType": "uint256",
          "name": "",
          "type": "uint256"
        }
      ],
      "stateMutability": "view",
      "type": "function"
    },
    {
      "inputs": [
        {
          "internalType": "uint256",
          "name": "daoID",
          "type": "uint256"
        }
      ],
      "name": "totalQuestTypes",
      "outputs": [
        {
          "internalType": "uint256",
          "name": "",
          "type": "uint256"
        }
      ],
      "stateMutability": "view",
      "type": "function"
    },
    {
      "inputs": [
        {
          "internalType": "uint256",
          "name": "daoID",
          "type": "uint256"
        }
      ],
      "name": "totalQuests",
      "outputs": [
        {
          "internalType": "uint256",
          "name": "",
          "type": "uint256"
        }
      ],
      "stateMutability": "view",
      "type": "function"
    },
    {
      "inputs": [
        {
          "internalType": "uint256",
          "name": "daoID",
          "type": "uint256"
        }
      ],
      "name": "totalStaked",
      "outputs": [
        {
          "internalType": "uint256",
          "name": "",
          "type": "uint256"
        }
      ],
      "stateMutability": "view",
      "type": "function"
    },
    {
      "inputs": [
        {
          "internalType": "address",
          "name": "newOwner",
          "type": "address"
        }
      ],
      "name": "transferOwnership",
      "outputs": [],
      "stateMutability": "nonpayable",
      "type": "function"
    },
    {
      "inputs": [],
      "name": "unpause",
      "outputs": [],
      "stateMutability": "nonpayable",
      "type": "function"
    },
    {
      "inputs": [
        {
          "internalType": "uint256",
          "name": "amount",
          "type": "uint256"
        }
      ],
      "name": "withdraw",
      "outputs": [],
      "stateMutability": "nonpayable",
      "type": "function"
    },
    {
      "inputs": [
        {
          "internalType": "uint256",
          "name": "daoID",
          "type": "uint256"
        },
        {
          "internalType": "uint256",
          "name": "amount",
          "type": "uint256"
        }
      ],
      "name": "withdrawFromDAO",
      "outputs": [],
      "stateMutability": "nonpayable",
      "type": "function"
    },
    {
      "stateMutability": "payable",
      "type": "receive"
    }
  ],
  "bytecode": "0x60806040523480156200001157600080fd5b506200001d3362000030565b6000805460ff60a01b1916905562000080565b600080546001600160a01b038381166001600160a01b0319831681178455604051919092169283917f8be0079c531659141344cd1fd0a4f28419497f9722a3daafe3b4186f6b6457e09190a35050565b6153fd80620000906000396000f3fe60806040526004361061031e5760003560e01c8063860766ce116101ab578063b4130459116100f7578063db63516e11610095578063ecf0d5681161006f578063ecf0d56814610c83578063ef16d99114610cc8578063f2fde38b14610ce8578063f7e6873e14610d0857600080fd5b8063db63516e14610bb9578063dc5dba1f14610bfd578063e7620db214610c4657600080fd5b8063d0e30db0116100d1578063d0e30db014610b20578063d441b4e314610b28578063d91fba8114610b5a578063dadd6b9114610b9957600080fd5b8063b413045914610a7d578063bb3fb99514610ac6578063c5e5655b14610adb57600080fd5b80639cc7f708116101645780639fd5a5d81161013e5780639fd5a5d8146109b5578063a40205aa146109fe578063a4c0426d14610a1e578063abf6477814610a3e57600080fd5b80639cc7f708146109315780639d92da96146109615780639f75fb371461099557600080fd5b8063860766ce146108325780638da5cb5b146108525780638ed0ac261461087a5780638f383280146108bb5780638fed1e96146108db5780639bcae506146108f057600080fd5b80634a28b9111161026a57806369ae653511610223578063715018a6116101fd578063715018a61461078b57806381d50034146107a057806382286ec7146107dd5780638456cb591461081d57600080fd5b806369ae6535146107195780636b68003b146107395780636f0965671461074e57600080fd5b80634a28b911146105d65780635566f2a31461061f578063576c4f961461066257806358b219b0146106825780635c975abb146106b95780635c99d8cc146106e357600080fd5b806326f8ca0d116102d75780632e1a7d4d116102b15780632e1a7d4d1461052f5780633f4ba83a1461054f57806341cb8c2014610564578063432237621461059457600080fd5b806326f8ca0d146104cc578063277de7ca146104ec5780632d4a47e7146104ff57600080fd5b80631204206514610334578063152520fb1461038f578063171aae19146103cd5780631cd70c11146103fb5780631e0c01a91461043a578063200e8d231461048357600080fd5b3661032f5761032d3334610d51565b005b600080fd5b34801561034057600080fd5b50610379604051806040016040528060198152602001784552525f454d5054595f42414447455f545950455f4e414d4560381b81525081565b60405161038691906145d4565b60405180910390f35b34801561039b57600080fd5b50610379604051806040016040528060128152602001714552525f454d5054595f44414f5f4e414d4560701b81525081565b3480156103d957600080fd5b506103ed6103e83660046145e7565b610dd4565b604051908152602001610386565b34801561040757600080fd5b506103796040518060400160405280601381526020017222a9292fa2a6a82a2cafa220a7afa7aba722a960691b81525081565b34801561044657600080fd5b506103796040518060400160405280601b81526020017f4552525f53544152545f51554553545f4e4f545f414c4c4f574544000000000081525081565b34801561048f57600080fd5b506103796040518060400160405280601a81526020017f4552525f454d5054595f44414f5f4d455441444154415f55524900000000000081525081565b3480156104d857600080fd5b5061032d6104e736600461461c565b610dea565b61032d6104fa366004614651565b610fb6565b34801561050b57600080fd5b5061051f61051a366004614651565b61109a565b6040516103869493929190614673565b34801561053b57600080fd5b5061032d61054a3660046145e7565b6111dd565b34801561055b57600080fd5b5061032d6111ea565b34801561057057600080fd5b506103ed61057f3660046145e7565b60009081526002602052604090206004015490565b3480156105a057600080fd5b50610379604051806040016040528060168152602001754552525f494e53554646494349454e545f5354414b4560501b81525081565b3480156105e257600080fd5b506103796040518060400160405280601c81526020017f4552525f454d5054595f44414f5f42414447455f434f4e54524143540000000081525081565b34801561062b57600080fd5b506103796040518060400160405280601781526020017611549497d5d493d391d7d0905111d157d516541157d251604a1b81525081565b34801561066e57600080fd5b506103ed61067d3660046145e7565b611204565b34801561068e57600080fd5b5061037960405180604001604052806018815260200160008051602061538783398151915281525081565b3480156106c557600080fd5b50600054600160a01b900460ff166040519015158152602001610386565b3480156106ef57600080fd5b506103ed6106fe3660046146ac565b6001600160a01b03166000908152600b602052604090205490565b34801561072557600080fd5b5061032d610734366004614651565b611218565b34801561074557600080fd5b506103796112f6565b34801561075a57600080fd5b50610379604051806040016040528060118152602001704552525f4e4f5f4d4f52455f434c41494d60781b81525081565b34801561079757600080fd5b5061032d611312565b3480156107ac57600080fd5b506103796040518060400160405280601181526020017011549497d11053d7d393d517d193d55391607a1b81525081565b3480156107e957600080fd5b50610379604051806040016040528060148152602001734552525f454d5054595f51554553545f4e414d4560601b81525081565b34801561082957600080fd5b5061032d611324565b34801561083e57600080fd5b5061032d61084d36600461477e565b61133c565b34801561085e57600080fd5b506000546040516001600160a01b039091168152602001610386565b34801561088657600080fd5b506103796040518060400160405280601581526020017422a9292fa9a2a6232fab22a924a324a1a0aa24a7a760591b81525081565b3480156108c757600080fd5b5061032d6108d6366004614887565b61142b565b3480156108e757600080fd5b50610379611523565b3480156108fc57600080fd5b506103796040518060400160405280601581526020017411549497d0d310525357d393d517d0531313d5d151605a1b81525081565b34801561093d57600080fd5b506103ed61094c3660046145e7565b60009081526002602052604090206005015490565b34801561096d57600080fd5b5061098161097c366004614651565b61153f565b604051610386989796959493929190614976565b3480156109a157600080fd5b5061032d6109b03660046149d0565b61169b565b3480156109c157600080fd5b506103796040518060400160405280601c81526020017f4552525f5645524946595f434c41494d5f4e4f545f414c4c4f5745440000000081525081565b348015610a0a57600080fd5b5061032d610a19366004614a3d565b611789565b348015610a2a57600080fd5b506103ed610a39366004614651565b6117a3565b348015610a4a57600080fd5b506103796040518060400160405280601381526020017211549497d4555154d517d393d517d193d55391606a1b81525081565b348015610a8957600080fd5b506103796040518060400160405280601c81526020017f4552525f43414e43454c5f434c41494d5f4e4f545f414c4c4f5745440000000081525081565b348015610ad257600080fd5b506103ed6117c5565b348015610ae757600080fd5b50610379604051806040016040528060198152602001784552525f51554553545f434c41494d45445f414c524541445960381b81525081565b61032d6117d5565b348015610b3457600080fd5b50610b48610b433660046145e7565b6117e7565b60405161038696959493929190614ac2565b348015610b6657600080fd5b506103796040518060400160405280601381526020017211549497d0d310525357d393d517d193d55391606a1b81525081565b348015610ba557600080fd5b5061032d610bb4366004614b16565b61193a565b348015610bc557600080fd5b506103796040518060400160405280601881526020017711549497d4555154d517d516541157d393d517d193d5539160421b81525081565b348015610c0957600080fd5b506103796040518060400160405280601a81526020017f4552525f5a45524f5f4e554d5f434f4e545249425554494f4e5300000000000081525081565b348015610c5257600080fd5b506103796040518060400160405280601181526020017022a9292fa727aa2fa220a7afa7aba722a960791b81525081565b348015610c8f57600080fd5b50610379604051806040016040528060198152602001784552525f454d5054595f51554553545f545950455f4e414d4560381b81525081565b348015610cd457600080fd5b5061032d610ce3366004614b70565b611a92565b348015610cf457600080fd5b5061032d610d033660046146ac565b611bdc565b348015610d1457600080fd5b506103796040518060400160405280601c81526020017f4552525f454d5054595f51554553545f4d455441444154415f5552490000000081525081565b6001600160a01b0382166000908152600b6020526040902054610d749082611c52565b6001600160a01b0383166000818152600b6020526040908190208390555190917f73a19dd210f1a7f902193214c0ee91dd35ee5b4d920cba8d519eca65a7b488ca91610dc891858252602082015260400190565b60405180910390a25050565b6000818152600560205260408120545b92915050565b610df2611c5e565b600083815260026020526040902080548491610e9591610e1190614b9c565b80601f0160208091040260200160405190810160405280929190818152602001828054610e3d90614b9c565b8015610e8a5780601f10610e5f57610100808354040283529160200191610e8a565b820191906000526020600020905b815481529060010190602001808311610e6d57829003601f168201915b505050505051151590565b6040518060400160405280601181526020017011549497d11053d7d393d517d193d55391607a1b81525090610ee65760405162461bcd60e51b8152600401610edd91906145d4565b60405180910390fd5b50600084815260026020908152604091829020600301548251808401909352601183527022a9292fa727aa2fa220a7afa7aba722a960791b91830191909152859133916001600160a01b03168214610f515760405162461bcd60e51b8152600401610edd91906145d4565b508585610f5e8282611cab565b60405180604001604052806018815260200160008051602061538783398151915281525090610fa05760405162461bcd60e51b8152600401610edd91906145d4565b50610fac888888611d2f565b5050505050505050565b610fbe611c5e565b600082815260026020526040902080548391610fdd91610e1190614b9c565b6040518060400160405280601181526020017011549497d11053d7d393d517d193d55391607a1b815250906110255760405162461bcd60e51b8152600401610edd91906145d4565b50600083815260056020526040902054839083908111156040518060400160405280601381526020017211549497d4555154d517d393d517d193d55391606a1b815250906110865760405162461bcd60e51b8152600401610edd91906145d4565b5061109385853334611f07565b5050505050565b60046020908152600092835260408084209091529082529020805481906110c090614b9c565b80601f01602080910402602001604051908101604052809291908181526020018280546110ec90614b9c565b80156111395780601f1061110e57610100808354040283529160200191611139565b820191906000526020600020905b81548152906001019060200180831161111c57829003601f168201915b50505050509080600101805461114e90614b9c565b80601f016020809104026020016040519081016040528092919081815260200182805461117a90614b9c565b80156111c75780601f1061119c576101008083540402835291602001916111c7565b820191906000526020600020905b8154815290600101906020018083116111aa57829003601f168201915b5050505050908060020154908060030154905084565b6111e733826122e4565b50565b6111f261239d565b6111fa6123f7565b611202612447565b565b600081815260036020526040812054610de4565b60008281526002602052604090208054839161123791610e1190614b9c565b6040518060400160405280601181526020017011549497d11053d7d393d517d193d55391607a1b8152509061127f5760405162461bcd60e51b8152600401610edd91906145d4565b50600083815260026020908152604091829020600301548251808401909352601183527022a9292fa727aa2fa220a7afa7aba722a960791b91830191909152849133916001600160a01b031682146112ea5760405162461bcd60e51b8152600401610edd91906145d4565b5061109385338661249c565b6040518060600160405280602181526020016153a76021913981565b61131a61239d565b611202600061255e565b61132c61239d565b611334611c5e565b6112026125ae565b611344611c5e565b60008681526002602052604090208054879161136391610e1190614b9c565b6040518060400160405280601181526020017011549497d11053d7d393d517d193d55391607a1b815250906113ab5760405162461bcd60e51b8152600401610edd91906145d4565b50600087815260036020526040902054879087908111156040518060400160405280601881526020017711549497d4555154d517d516541157d393d517d193d5539160421b815250906114115760405162461bcd60e51b8152600401610edd91906145d4565b506114208989898989896125f1565b505050505050505050565b611433611c5e565b60008881526002602052604090208054899161145291610e1190614b9c565b6040518060400160405280601181526020017011549497d11053d7d393d517d193d55391607a1b8152509061149a5760405162461bcd60e51b8152600401610edd91906145d4565b50600089815260026020908152604091829020600301548251808401909352601183527022a9292fa727aa2fa220a7afa7aba722a960791b918301919091528a9133916001600160a01b031682146115055760405162461bcd60e51b8152600401610edd91906145d4565b506115168b8b8b8b8b8b8b8b6128d1565b5050505050505050505050565b6040518060600160405280602181526020016153666021913981565b60066020908152600092835260408084209091529082529020805460018201805491929161156c90614b9c565b80601f016020809104026020016040519081016040528092919081815260200182805461159890614b9c565b80156115e55780601f106115ba576101008083540402835291602001916115e5565b820191906000526020600020905b8154815290600101906020018083116115c857829003601f168201915b5050505050908060020180546115fa90614b9c565b80601f016020809104026020016040519081016040528092919081815260200182805461162690614b9c565b80156116735780601f1061164857610100808354040283529160200191611673565b820191906000526020600020905b81548152906001019060200180831161165657829003601f168201915b5050505050908060030154908060040154908060050154908060060154908060070154905088565b6116a3611c5e565b6000838152600260205260409020805484916116c291610e1190614b9c565b6040518060400160405280601181526020017011549497d11053d7d393d517d193d55391607a1b8152509061170a5760405162461bcd60e51b8152600401610edd91906145d4565b50600084815260026020908152604091829020600301548251808401909352601183527022a9292fa727aa2fa220a7afa7aba722a960791b91830191909152859133916001600160a01b031682146117755760405162461bcd60e51b8152600401610edd91906145d4565b50611781868686612c22565b505050505050565b611791611c5e565b61179d84848484612d91565b50505050565b60008281526007602090815260408083208484529091528120545b9392505050565b60006117d060015490565b905090565b6117dd611c5e565b6112023334610d51565b60026020526000908152604090208054819061180290614b9c565b80601f016020809104026020016040519081016040528092919081815260200182805461182e90614b9c565b801561187b5780601f106118505761010080835404028352916020019161187b565b820191906000526020600020905b81548152906001019060200180831161185e57829003601f168201915b50505050509080600101805461189090614b9c565b80601f01602080910402602001604051908101604052809291908181526020018280546118bc90614b9c565b80156119095780601f106118de57610100808354040283529160200191611909565b820191906000526020600020905b8154815290600101906020018083116118ec57829003601f168201915b5050505060028301546003840154600485015460059095015493946001600160a01b03928316949290911692509086565b611942611c5e565b60008481526002602052604090208054859161196191610e1190614b9c565b6040518060400160405280601181526020017011549497d11053d7d393d517d193d55391607a1b815250906119a95760405162461bcd60e51b8152600401610edd91906145d4565b50600085815260056020526040902054859085908111156040518060400160405280601381526020017211549497d4555154d517d393d517d193d55391606a1b81525090611a0a5760405162461bcd60e51b8152600401610edd91906145d4565b5060008781526007602090815260408083208984529091529020548790879087908111156040518060400160405280601381526020017211549497d0d310525357d393d517d193d55391606a1b81525090611a785760405162461bcd60e51b8152600401610edd91906145d4565b50611a868a8a8a8a33613005565b50505050505050505050565b611a9a611c5e565b600083815260026020526040902080548491611ab991610e1190614b9c565b6040518060400160405280601181526020017011549497d11053d7d393d517d193d55391607a1b81525090611b015760405162461bcd60e51b8152600401610edd91906145d4565b50600084815260056020526040902054849084908111156040518060400160405280601381526020017211549497d4555154d517d393d517d193d55391606a1b81525090611b625760405162461bcd60e51b8152600401610edd91906145d4565b5060008681526007602090815260408083208884529091529020548690869086908111156040518060400160405280601381526020017211549497d0d310525357d393d517d193d55391606a1b81525090611bd05760405162461bcd60e51b8152600401610edd91906145d4565b50611420898989613535565b611be461239d565b6001600160a01b038116611c495760405162461bcd60e51b815260206004820152602660248201527f4f776e61626c653a206e6577206f776e657220697320746865207a65726f206160448201526564647265737360d01b6064820152608401610edd565b6111e78161255e565b60006117be8284614bec565b600054600160a01b900460ff16156112025760405162461bcd60e51b815260206004820152601060248201526f14185d5cd8589b194e881c185d5cd95960821b6044820152606401610edd565b6000828152600260208181526040808420909201548251630fb365d160e41b815292516001600160a01b039091169263fb365d109260048083019391928290030181865afa158015611d01573d6000803e3d6000fd5b505050506040513d601f19601f82011682018060405250810190611d259190614bff565b9091111592915050565b82600a600084815260200190815260200160002054146040518060400160405280601781526020017611549497d5d493d391d7d0905111d157d516541157d251604a1b81525090611d935760405162461bcd60e51b8152600401610edd91906145d4565b50604080518082019091526000815260606020820152611db281613725565b9050611e02604051806040016040528060048152602001635479706560e01b8152506040518060400160405280600581526020016411dc985b9d60da1b815250836137489092919063ffffffff16565b604080518082019091526006815265125cdcdd595960d21b6020820152909150611e2e908290306137ee565b60408051808201909152600381526244414f60e81b6020820152909150611e5790829086613895565b60408051808201909152600981526814995c5d595cdd195960ba1b6020820152909150611e86908290336137ee565b9050611e91816138fc565b600085815260026020818152604092839020909101549083015191516253df9f60e71b81529293506001600160a01b0316916329efcf8091611ed99186918891600401614c18565b600060405180830381600087803b158015611ef357600080fd5b505af1158015610fac573d6000803e3d6000fd5b6000848152600660209081526040808320868452825280832087845260048352818420815485528352928190206005018054825181850281018501909352808352611f8b938993929190830182828015611f8057602002820191906000526020600020905b815481526020019060010190808311611f6c575b50505050508561391f565b6040518060400160405280601581526020017411549497d0d310525357d393d517d0531313d5d151605a1b81525090611fd75760405162461bcd60e51b8152600401610edd91906145d4565b50600085815260096020908152604080832087845282528083206001600160a01b038716845282529182902054825180840190935260198352784552525f51554553545f434c41494d45445f414c524541445960381b9183019190915260ff16156120555760405162461bcd60e51b8152600401610edd91906145d4565b5080600301548160050154826004015461206f9190614bec565b10604051806040016040528060118152602001704552525f4e4f5f4d4f52455f434c41494d60781b815250906120b85760405162461bcd60e51b8152600401610edd91906145d4565b5081156120c9576120c98383610d51565b8060070154600b6000856001600160a01b03166001600160a01b03168152602001908152602001600020541015604051806040016040528060168152602001754552525f494e53554646494349454e545f5354414b4560501b815250906121435760405162461bcd60e51b8152600401610edd91906145d4565b5061215385848360070154613a11565b60048101805490600061216583614c48565b9091555050600085815260096020908152604080832087845282528083206001600160a01b03871684528252808320805460ff191660011790558783526007825280832087845290915290206121be9080546001019055565b600085815260076020908152604080832087845282528083205481516080810183526001600160a01b0388811682528185018681528285018781528551808801875288815260608501528c8852600887528588208c8952875285882085895290965293909520815181549087166001600160a01b03199182161782559351600182018054919097169481168517875594519295919490936001600160a81b031990911617600160a01b83600281111561227957612279614c61565b0217905550606082015160028201906122929082614cc2565b50508254604080518481526001600160a01b038816602082015288935089917ff7ef2508bb2ddf882787d355581ad8f7fa9391b81b323ef36cb2c9b3482ee834910160405180910390a4505050505050565b6001600160a01b0382166000908152600b60205260409020546123079082613ac6565b6001600160a01b0383166000818152600b6020526040808220939093559151909183156108fc02918491818181858888f1935050505015801561234e573d6000803e3d6000fd5b506001600160a01b0382166000818152600b6020908152604091829020548251858152918201527fadec52fcd1408589179b85e44b434374db078b4eaf793e7d1a1bb0ae4ecfeee59101610dc8565b6000546001600160a01b031633146112025760405162461bcd60e51b815260206004820181905260248201527f4f776e61626c653a2063616c6c6572206973206e6f7420746865206f776e65726044820152606401610edd565b600054600160a01b900460ff166112025760405162461bcd60e51b815260206004820152601460248201527314185d5cd8589b194e881b9bdd081c185d5cd95960621b6044820152606401610edd565b61244f6123f7565b6000805460ff60a01b191690557f5db9ee0a495bf2e6ff9c91a7834c1ba4fdd244a5e8aa4e537bd38aeae4b073aa335b6040516001600160a01b03909116815260200160405180910390a1565b6000838152600260205260409020600501546124b89082613ac6565b6000848152600260205260408082206005019290925590516001600160a01b0384169183156108fc02918491818181858888f19350505050158015612501573d6000803e3d6000fd5b50600083815260026020908152604091829020600501548251848152918201526001600160a01b0384169185917fad05c6f34c1d0f1cdeef8906ab2d7c74fea0487adf9f98e930b12a2f59135188910160405180910390a3505050565b600080546001600160a01b038381166001600160a01b0319831681178455604051919092169283917f8be0079c531659141344cd1fd0a4f28419497f9722a3daafe3b4186f6b6457e09190a35050565b6125b6611c5e565b6000805460ff60a01b1916600160a01b1790557f62e78cea01bee320cd4e420270b5ea74000d11b0c9f74754ebdbfc544b05a25861247f3390565b83511515604051806040016040528060198152602001784552525f454d5054595f51554553545f545950455f4e414d4560381b815250906126455760405162461bcd60e51b8152600401610edd91906145d4565b50825115156040518060400160405280601c81526020017f4552525f454d5054595f51554553545f4d455441444154415f555249000000008152509061269e5760405162461bcd60e51b8152600401610edd91906145d4565b5060408051808201909152601a81527f4552525f5a45524f5f4e554d5f434f4e545249425554494f4e530000000000006020820152826126f15760405162461bcd60e51b8152600401610edd91906145d4565b5060008681526004602081815260408084208985528252928390209091018054835181840281018401909452808452612764938a939092919083018282801561275957602002820191906000526020600020905b815481526020019060010190808311612745575b50505050503361391f565b6040518060400160405280601b81526020017f4552525f53544152545f51554553545f4e4f545f414c4c4f5745440000000000815250906127b85760405162461bcd60e51b8152600401610edd91906145d4565b50600086815260056020908152604080832080546001908101918290558251610100810184528a81528085018a81528185018a9052606082018990526080820187905260a0820187905260c0820187905260e082018890528c87526006865284872084885290955292909420825181559251909391929182019061283c9082614cc2565b50604082015160028201906128519082614cc2565b50606082015181600301556080820151816004015560a0820151816005015560c0820151816006015560e0820151816007015590505085877fc73523a26432ebd11dd03a831db1a4f7f057a70ce0b18c111a50cf6ca419182883888888886040516128c0959493929190614d82565b60405180910390a350505050505050565b86511515604051806040016040528060198152602001784552525f454d5054595f51554553545f545950455f4e414d4560381b815250906129255760405162461bcd60e51b8152600401610edd91906145d4565b50855115156040518060600160405280602181526020016153a760219139906129615760405162461bcd60e51b8152600401610edd91906145d4565b5061296c8886611cab565b604051806040016040528060188152602001600080516020615387833981519152815250906129ae5760405162461bcd60e51b8152600401610edd91906145d4565b506129b98885611cab565b604051806040016040528060188152602001600080516020615387833981519152815250906129fb5760405162461bcd60e51b8152600401610edd91906145d4565b50612a068884613ad2565b60405180604001604052806018815260200160008051602061538783398151915281525090612a485760405162461bcd60e51b8152600401610edd91906145d4565b50612a538883613ad2565b60405180604001604052806018815260200160008051602061538783398151915281525090612a955760405162461bcd60e51b8152600401610edd91906145d4565b50612aa08882613ad2565b60405180604001604052806018815260200160008051602061538783398151915281525090612ae25760405162461bcd60e51b8152600401610edd91906145d4565b506000888152600360209081526040808320805460010190819055815160e0810183528b81528084018b90528083018a9052606081018990526080810188905260a0810187905260c081018690528c855260048452828520828652909352922081518190612b509082614cc2565b5060208201516001820190612b659082614cc2565b50604082015160028201556060820151600382015560808201518051612b95916004840191602090910190614524565b5060a08201518051612bb1916005840191602090910190614524565b5060c08201518051612bcd916006840191602090910190614524565b50905050887fec35fe0264aa660686063e253b07bb6245fbf3d068bd83e664049f4e83e34b3d828a8a8a8a8a8a8a604051612c0f989796959493929190614dfd565b60405180910390a2505050505050505050565b81511515604051806040016040528060198152602001784552525f454d5054595f42414447455f545950455f4e414d4560381b81525090612c765760405162461bcd60e51b8152600401610edd91906145d4565b50805115156040518060600160405280602181526020016153666021913990612cb25760405162461bcd60e51b8152600401610edd91906145d4565b50600083815260026020819052604080832090910154905163038c547f60e11b81526001600160a01b0390911690630718a8fe90612cf69086908690600401614e82565b6020604051808303816000875af1158015612d15573d6000803e3d6000fd5b505050506040513d601f19601f82011682018060405250810190612d399190614bff565b6000818152600a6020526040908190208690555190915084907fef0b9088382c158b6d4fba36d3a3c2ded49b7908e5e039abc026c697c5a5325190612d8390849087908790614ea7565b60405180910390a250505050565b83511515604051806040016040528060128152602001714552525f454d5054595f44414f5f4e414d4560701b81525090612dde5760405162461bcd60e51b8152600401610edd91906145d4565b50825115156040518060400160405280601a81526020017f4552525f454d5054595f44414f5f4d455441444154415f55524900000000000081525090612e375760405162461bcd60e51b8152600401610edd91906145d4565b5060408051808201909152601c81527f4552525f454d5054595f44414f5f42414447455f434f4e54524143540000000060208201526001600160a01b038316612e935760405162461bcd60e51b8152600401610edd91906145d4565b5060408051808201909152601381527222a9292fa2a6a82a2cafa220a7afa7aba722a960691b60208201526001600160a01b038216612ee55760405162461bcd60e51b8152600401610edd91906145d4565b50612ef4600180546001019055565b6000612eff60015490565b6040805160c08101825287815260208082018890526001600160a01b03808816838501528616606083015260006080830181905260a08301819052848152600290915291909120815192935090918190612f599082614cc2565b5060208201516001820190612f6e9082614cc2565b506040828101516002830180546001600160a01b039283166001600160a01b03199182161790915560608501516003850180549190931691161790556080830151600483015560a090920151600590910155517f753b3b83ee44963ae0e15950e8696d5fef5ed1ae9b55e6106cd3d00567ec9ba990612ff69083908890889088908890614edc565b60405180910390a15050505050565b6000858152600660209081526040808320878452825280832088845260088352818420888552835281842087855283529281902080548251808401909352601583527422a9292fa9a2a6232fab22a924a324a1a0aa24a7a760591b93830193909352916001600160a01b03908116908516036130945760405162461bcd60e51b8152600401610edd91906145d4565b506000878152600460209081526040808320855484528252918290206006018054835181840281018401909452808452613106938b9390929190830182828015611f805760200282019190600052602060002090815481526020019060010190808311611f6c5750505050508561391f565b6040518060400160405280601c81526020017f4552525f5645524946595f434c41494d5f4e4f545f414c4c4f574544000000008152509061315a5760405162461bcd60e51b8152600401610edd91906145d4565b50805460078301546131799189916001600160a01b0390911690613ba4565b60058201805490600061318b83614c48565b90915550506004820180549060006131a283614f2d565b909155505060018101805460ff60a01b1916600160a01b1790556040805180820190915260008152606060208201526131da81613725565b9050613230604051806040016040528060048152602001635479706560e01b8152506040518060400160405280600b81526020016a10dbdb9d1c9a589d5d195960aa1b815250836137489092919063ffffffff16565b604080518082019091526006815265125cdcdd595960d21b602082015290915061325c908290306137ee565b60408051808201909152600381526244414f60e81b60208201529091506132859082908a613895565b60408051808201909152600881526715995c9a599a595960c21b60208201529091506132b3908290866137ee565b90506132be816138fc565b6000898152600260208181526040808420830154875460048085528387208b548852855295839020909401549286015191516253df9f60e71b81529596506001600160a01b03908116956329efcf809561331e9590921693929101614c18565b600060405180830381600087803b15801561333857600080fd5b505af115801561334c573d6000803e3d6000fd5b5050505061336d604051806040016040528060008152602001606081525090565b61337681613725565b90506133c9604051806040016040528060048152602001635479706560e01b8152506040518060400160405280600881526020016715995c9a599a595960c21b815250836137489092919063ffffffff16565b604080518082019091526006815265125cdcdd595960d21b60208201529091506133f5908290306137ee565b60408051808201909152600381526244414f60e81b602082015290915061341e9082908b613895565b60408051808201909152600681526515185c99d95d60d21b60208201528454919250613455918391906001600160a01b03166137ee565b9050613460816138fc565b60008a81526002602081815260408084209092015460048083528385208a548652835293839020600301549185015192516253df9f60e71b81529495506001600160a01b0316936329efcf80936134bc938b9392909101614c18565b600060405180830381600087803b1580156134d657600080fd5b505af11580156134ea573d6000803e3d6000fd5b5050505086888a7f2c73dcae2c540aa69e0f87ebb1eb594257e87b4ed218a75f8e18c0b6afd4224f888a604051613522929190614f44565b60405180910390a4505050505050505050565b6000838152600660209081526040808320858452825280832086845260088352818420868552835281842085855290925290912080546001600160a01b03163314806135fd57506000858152600460209081526040808320600680845282852089865284528285205485529083529281902090920180548351818402810184019094528084526135fd9389939092919083018282801561275957602002820191906000526020600020908154815260200190600101908083116127455750505050503361391f565b6040518060400160405280601c81526020017f4552525f43414e43454c5f434c41494d5f4e4f545f414c4c4f57454400000000815250906136515760405162461bcd60e51b8152600401610edd91906145d4565b50600085815260086020908152604080832087845282528083208684528252808320600101805460ff60a01b1916600160a11b179055835488845260068352818420888552909252909120600701546136b79187916001600160a01b0390911690613c3c565b6006820180549060006136c983614c48565b90915550506004820180549060006136e083614f2d565b90915550506040513381528390859087907f1ef401ee500254c5ed793961e7461e63de2521ebda38e55798fd786ebefd9af79060200160405180910390a45050505050565b604080518082019091526000815260606020820152610de482607b60f81b613ce3565b604080518082019091526000815260606020820152600061376883613d84565b90506000856000015112156137ae5760208086015160405161379492600b60fa1b918891869101614f70565b60408051601f1981840301815291905260208601526137db565b6020808601516040516137c5928791859101614fec565b60408051601f1981840301815291905260208601525b50508251600160ff1b1783525090919050565b60408051808201909152600081526060602082015283516000131561384e578360200151600b60fa1b84613821856141e1565b6040516020016138349493929190614f70565b60408051601f198184030181529190526020850152613885565b83602001518361385d846141e1565b60405160200161386f93929190614fec565b60408051601f1981840301815291905260208501525b50508151600160ff1b1782525090565b6040805180820190915260008152606060208201528351600013156138db578360200151600b60fa1b846138c8856143a4565b6040516020016138349493929190615058565b8360200151836138ea846143a4565b60405160200161386f939291906150ca565b604080518082019091526000815260606020820152610de482607d60f81b6144b9565b6000838152600260208190526040822001546001600160a01b0316815b8451811015613a0557816001600160a01b031662fdd58e85876000815181106139675761396761512b565b60200260200101516040518363ffffffff1660e01b81526004016139a09291906001600160a01b03929092168252602082015260400190565b602060405180830381865afa1580156139bd573d6000803e3d6000fd5b505050506040513d601f19601f820116820180604052508101906139e19190614bff565b6000036139f3576000925050506117be565b806139fd81614c48565b91505061393c565b50600195945050505050565b6001600160a01b0382166000908152600b6020526040902054613a349082613ac6565b6001600160a01b0383166000818152600b6020908152604080832094909455868252600c8152838220928252919091522054613a709082611c52565b6000848152600c602090815260408083206001600160a01b0387168452825280832093909355858252600290522060040154613aac9082611c52565b600093845260026020526040909320600401929092555050565b60006117be8284615141565b6000828152600260208181526040808420909201548251630fb365d160e41b8152925184936001600160a01b039092169263fb365d1092600480820193918290030181865afa158015613b29573d6000803e3d6000fd5b505050506040513d601f19601f82011682018060405250810190613b4d9190614bff565b905060005b8351811015613b995781848281518110613b6e57613b6e61512b565b60200260200101511115613b8757600092505050610de4565b80613b9181614c48565b915050613b52565b506001949350505050565b6000838152600c602090815260408083206001600160a01b0386168452909152902054613bd19082613ac6565b6000848152600c602090815260408083206001600160a01b0387168452825280832093909355600b90522054613c079082611c52565b6001600160a01b0383166000908152600b6020908152604080832093909355858252600290522060040154613aac9082613ac6565b6000838152600c602090815260408083206001600160a01b0386168452909152902054613c699082613ac6565b6000848152600c602090815260408083206001600160a01b0387168452825280832093909355858252600290522060040154613ca59082613ac6565b6000848152600260205260409020600481019190915560050154613cc99082611c52565b600093845260026020526040909320600501929092555050565b604080518082019091526000815260606020820152825160001315613d3757602080840151604051613d1d92600b60fa1b91869101615154565b60408051601f198184030181529190526020840152613d62565b602080840151604051613d4c92859101615187565b60408051601f1981840301815291905260208401525b82516001600160ff1b031680845283613d7a826151b6565b9052509192915050565b6060816000805b8251811015613f5e578251601760fa1b90849083908110613dae57613dae61512b565b01602001516001600160f81b03191603613dcb5760019150613f5e565b8251601160f91b90849083908110613de557613de561512b565b01602001516001600160f81b03191603613e025760019150613f5e565b8251602f60f81b90849083908110613e1c57613e1c61512b565b01602001516001600160f81b03191603613e395760019150613f5e565b8251600960f81b90849083908110613e5357613e5361512b565b01602001516001600160f81b03191603613e705760019150613f5e565b8251600360fa1b90849083908110613e8a57613e8a61512b565b01602001516001600160f81b03191603613ea75760019150613f5e565b8251600560f91b90849083908110613ec157613ec161512b565b01602001516001600160f81b03191603613ede5760019150613f5e565b8251600d60f81b90849083908110613ef857613ef861512b565b01602001516001600160f81b03191603613f155760019150613f5e565b8251600160fb1b90849083908110613f2f57613f2f61512b565b01602001516001600160f81b03191603613f4c5760019150613f5e565b80613f5681614c48565b915050613d8b565b5080613f6c57509192915050565b60005b82518110156141d9578251601760fa1b90849083908110613f9257613f9261512b565b01602001516001600160f81b03191603613fcd5783604051602001613fb791906151ce565b60405160208183030381529060405293506141c7565b8251601160f91b90849083908110613fe757613fe761512b565b01602001516001600160f81b0319160361400c5783604051602001613fb791906151f4565b8251602f60f81b908490839081106140265761402661512b565b01602001516001600160f81b0319160361404b5783604051602001613fb7919061521a565b8251600960f81b908490839081106140655761406561512b565b01602001516001600160f81b0319160361408a5783604051602001613fb79190615240565b8251600360fa1b908490839081106140a4576140a461512b565b01602001516001600160f81b031916036140c95783604051602001613fb79190615266565b8251600560f91b908490839081106140e3576140e361512b565b01602001516001600160f81b031916036141085783604051602001613fb7919061528c565b8251600d60f81b908490839081106141225761412261512b565b01602001516001600160f81b031916036141475783604051602001613fb791906152b2565b8251600160fb1b908490839081106141615761416161512b565b01602001516001600160f81b031916036141865783604051602001613fb791906152d8565b838382815181106141995761419961512b565b602001015160f81c60f81b6040516020016141b5929190615187565b60405160208183030381529060405293505b806141d181614c48565b915050613f6f565b505050919050565b60408051602a80825260608281019093526001600160a01b038416916f181899199a1a9b1b9c1cb0b131b232b360811b9160009190602082018180368337019050509050600360fc1b8160008151811061423d5761423d61512b565b60200101906001600160f81b031916908160001a905350600f60fb1b8160018151811061426c5761426c61512b565b60200101906001600160f81b031916908160001a90535060005b601481101561439b578260048561429e84600c614bec565b602081106142ae576142ae61512b565b1a60f81b6001600160f81b031916901c60f81c60ff16601081106142d4576142d461512b565b1a60f81b826142e48360026152fe565b6142ef906002614bec565b815181106142ff576142ff61512b565b60200101906001600160f81b031916908160001a905350828461432383600c614bec565b602081106143335761433361512b565b1a600f16601081106143475761434761512b565b1a60f81b826143578360026152fe565b614362906003614bec565b815181106143725761437261512b565b60200101906001600160f81b031916908160001a9053508061439381614c48565b915050614286565b50949350505050565b6060816000036143cb5750506040805180820190915260018152600360fc1b602082015290565b8160005b81156143f557806143df81614c48565b91506143ee9050600a83615315565b91506143cf565b60008167ffffffffffffffff811115614410576144106146c7565b6040519080825280601f01601f19166020018201604052801561443a576020820181803683370190505b509050815b851561439b57614450600a87615315565b61445b90600a6152fe565b6144659087615141565b614470906030615337565b60f81b8261447d83614f2d565b925082815181106144905761449061512b565b60200101906001600160f81b031916908160001a9053506144b2600a87615315565b955061443f565b6040805180820190915260008152606060208201526020808401516040516144e392859101615187565b60408051808303601f1901815291905260208401528251600160ff1b178084526001600160ff1b03161561451d57825183613d7a82615350565b5090919050565b82805482825590600052602060002090810192821561455f579160200282015b8281111561455f578251825591602001919060010190614544565b5061456b92915061456f565b5090565b5b8082111561456b5760008155600101614570565b60005b8381101561459f578181015183820152602001614587565b50506000910152565b600081518084526145c0816020860160208601614584565b601f01601f19169290920160200192915050565b6020815260006117be60208301846145a8565b6000602082840312156145f957600080fd5b5035919050565b80356001600160a01b038116811461461757600080fd5b919050565b60008060006060848603121561463157600080fd5b833592506020840135915061464860408501614600565b90509250925092565b6000806040838503121561466457600080fd5b50508035926020909101359150565b60808152600061468660808301876145a8565b828103602084015261469881876145a8565b604084019590955250506060015292915050565b6000602082840312156146be57600080fd5b6117be82614600565b634e487b7160e01b600052604160045260246000fd5b604051601f8201601f1916810167ffffffffffffffff81118282101715614706576147066146c7565b604052919050565b600082601f83011261471f57600080fd5b813567ffffffffffffffff811115614739576147396146c7565b61474c601f8201601f19166020016146dd565b81815284602083860101111561476157600080fd5b816020850160208301376000918101602001919091529392505050565b60008060008060008060c0878903121561479757600080fd5b8635955060208701359450604087013567ffffffffffffffff808211156147bd57600080fd5b6147c98a838b0161470e565b955060608901359150808211156147df57600080fd5b506147ec89828a0161470e565b9350506080870135915060a087013590509295509295509295565b600082601f83011261481857600080fd5b8135602067ffffffffffffffff821115614834576148346146c7565b8160051b6148438282016146dd565b928352848101820192828101908785111561485d57600080fd5b83870192505b8483101561487c57823582529183019190830190614863565b979650505050505050565b600080600080600080600080610100898b0312156148a457600080fd5b88359750602089013567ffffffffffffffff808211156148c357600080fd5b6148cf8c838d0161470e565b985060408b01359150808211156148e557600080fd5b6148f18c838d0161470e565b975060608b0135965060808b0135955060a08b013591508082111561491557600080fd5b6149218c838d01614807565b945060c08b013591508082111561493757600080fd5b6149438c838d01614807565b935060e08b013591508082111561495957600080fd5b506149668b828c01614807565b9150509295985092959890939650565b60006101008a83528060208401526149908184018b6145a8565b905082810360408401526149a4818a6145a8565b60608401989098525050608081019490945260a084019290925260c083015260e0909101529392505050565b6000806000606084860312156149e557600080fd5b83359250602084013567ffffffffffffffff80821115614a0457600080fd5b614a108783880161470e565b93506040860135915080821115614a2657600080fd5b50614a338682870161470e565b9150509250925092565b60008060008060808587031215614a5357600080fd5b843567ffffffffffffffff80821115614a6b57600080fd5b614a778883890161470e565b95506020870135915080821115614a8d57600080fd5b50614a9a8782880161470e565b935050614aa960408601614600565b9150614ab760608601614600565b905092959194509250565b60c081526000614ad560c08301896145a8565b8281036020840152614ae781896145a8565b6001600160a01b03978816604085015295909616606083015250608081019290925260a0909101529392505050565b60008060008060808587031215614b2c57600080fd5b843593506020850135925060408501359150606085013567ffffffffffffffff811115614b5857600080fd5b614b648782880161470e565b91505092959194509250565b600080600060608486031215614b8557600080fd5b505081359360208301359350604090920135919050565b600181811c90821680614bb057607f821691505b602082108103614bd057634e487b7160e01b600052602260045260246000fd5b50919050565b634e487b7160e01b600052601160045260246000fd5b80820180821115610de457610de4614bd6565b600060208284031215614c1157600080fd5b5051919050565b60018060a01b0384168152826020820152606060408201526000614c3f60608301846145a8565b95945050505050565b600060018201614c5a57614c5a614bd6565b5060010190565b634e487b7160e01b600052602160045260246000fd5b601f821115614cbd57600081815260208120601f850160051c81016020861015614c9e5750805b601f850160051c820191505b8181101561178157828155600101614caa565b505050565b815167ffffffffffffffff811115614cdc57614cdc6146c7565b614cf081614cea8454614b9c565b84614c77565b602080601f831160018114614d255760008415614d0d5750858301515b600019600386901b1c1916600185901b178555611781565b600085815260208120601f198616915b82811015614d5457888601518255948401946001909101908401614d35565b5085821015614d725787850151600019600388901b60f8161c191681555b5050505050600190811b01905550565b85815260a060208201526000614d9b60a08301876145a8565b8281036040840152614dad81876145a8565b60608401959095525050608001529392505050565b600081518084526020808501945080840160005b83811015614df257815187529582019590820190600101614dd6565b509495945050505050565b60006101008a8352806020840152614e178184018b6145a8565b90508281036040840152614e2b818a6145a8565b905087606084015286608084015282810360a0840152614e4b8187614dc2565b905082810360c0840152614e5f8186614dc2565b905082810360e0840152614e738185614dc2565b9b9a5050505050505050505050565b604081526000614e9560408301856145a8565b8281036020840152614c3f81856145a8565b838152606060208201526000614ec060608301856145a8565b8281036040840152614ed281856145a8565b9695505050505050565b85815260a060208201526000614ef560a08301876145a8565b8281036040840152614f0781876145a8565b6001600160a01b0395861660608501529390941660809092019190915250949350505050565b600081614f3c57614f3c614bd6565b506000190190565b6001600160a01b0383168152604060208201819052600090614f68908301846145a8565b949350505050565b60008551614f82818460208a01614584565b6001600160f81b03198616908301908152601160f91b600182018190528551614fb2816002850160208a01614584565b63111d101160e11b600293909101928301528451614fd7816006850160208901614584565b60069201918201526007019695505050505050565b60008451614ffe818460208901614584565b601160f91b908301818152855190919061501f816001850160208a01614584565b63111d101160e11b600193909101928301528451615044816005850160208901614584565b600592019182015260060195945050505050565b6000855161506a818460208a01614584565b6001600160f81b03198616908301908152601160f91b60018201528451615098816002840160208901614584565b620111d160ed1b6002929091019182015283516150bc816005840160208801614584565b016005019695505050505050565b600084516150dc818460208901614584565b601160f91b90830190815284516150fa816001840160208901614584565b620111d160ed1b60019290910191820152835161511e816004840160208801614584565b0160040195945050505050565b634e487b7160e01b600052603260045260246000fd5b81810381811115610de457610de4614bd6565b60008451615166818460208901614584565b6001600160f81b031994851692019182525091166001820152600201919050565b60008351615199818460208801614584565b6001600160f81b0319939093169190920190815260010192915050565b60006001600160ff1b018201614c5a57614c5a614bd6565b600082516151e0818460208701614584565b61171760f21b920191825250600201919050565b60008251615206818460208701614584565b612e1160f11b920191825250600201919050565b6000825161522c818460208701614584565b615c2f60f01b920191825250600201919050565b60008251615252818460208701614584565b61171d60f21b920191825250600201919050565b60008251615278818460208701614584565b612e3360f11b920191825250600201919050565b6000825161529e818460208701614584565b612e3760f11b920191825250600201919050565b600082516152c4818460208701614584565b612e3960f11b920191825250600201919050565b600082516152ea818460208701614584565b612e3160f11b920191825250600201919050565b8082028115828204841417610de457610de4614bd6565b60008261533257634e487b7160e01b600052601260045260246000fd5b500490565b60ff8181168382160190811115610de457610de4614bd6565b6000600160ff1b8201614f3c57614f3c614bd656fe4552525f454d5054595f42414447455f545950455f4d455441444154415f5552494552525f42414447455f545950455f4e4f545f464f554e4400000000000000004552525f454d5054595f51554553545f545950455f4d455441444154415f555249a264697066735822122000e78e7e1010263e811c80e7d3cf2e64b04699b85ba0c4cab72924e3566f981864736f6c63430008130033",
  "linkReferences": {},
  "deployedLinkReferences": {}
}