{
  "_format": "hh-sol-artifact-1",
  "contractName": "PlayDAO",
  "sourceName": "contracts/PlayDAO.sol",
  "abi": [
    {
      "inputs": [
        {
          "internalType": "address",
          "name": "opAttestationStation",
          "type": "address"
        }
      ],
      "stateMutability": "nonpayable",
      "type": "constructor"
    },
    {
      "anonymous": false,
      "inputs": [
        {
          "indexed": true,
          "internalType": "uint256",
          "name": "daoID",
          "type": "uint256"
        },
        {
          "indexed": true,
          "internalType": "address",
          "name": "to",
          "type": "address"
        },
        {
          "indexed": true,
          "internalType": "address",
          "name": "from",
          "type": "address"
        },
        {
          "indexed": false,
          "internalType": "uint256",
          "name": "badgeID",
          "type": "uint256"
        },
        {
          "indexed": false,
          "internalType": "bytes32",
          "name": "hashKey",
          "type": "bytes32"
        }
      ],
      "name": "BadgeGranted",
      "type": "event"
    },
    {
      "anonymous": false,
      "inputs": [
        {
          "indexed": true,
          "internalType": "uint256",
          "name": "daoID",
          "type": "uint256"
        },
        {
          "indexed": false,
          "internalType": "uint256",
          "name": "badgeTypeID",
          "type": "uint256"
        },
        {
          "indexed": false,
          "internalType": "string",
          "name": "name",
          "type": "string"
        },
        {
          "indexed": false,
          "internalType": "string",
          "name": "metadataURI",
          "type": "string"
        }
      ],
      "name": "BadgeTypeCreated",
      "type": "event"
    },
    {
      "anonymous": false,
      "inputs": [
        {
          "indexed": false,
          "internalType": "uint256",
          "name": "daoID",
          "type": "uint256"
        },
        {
          "indexed": false,
          "internalType": "string",
          "name": "name",
          "type": "string"
        },
        {
          "indexed": false,
          "internalType": "string",
          "name": "metadataURI",
          "type": "string"
        },
        {
          "indexed": false,
          "internalType": "address",
          "name": "badgeContract",
          "type": "address"
        },
        {
          "indexed": false,
          "internalType": "address",
          "name": "owner",
          "type": "address"
        }
      ],
      "name": "DAOCreated",
      "type": "event"
    },
    {
      "anonymous": false,
      "inputs": [
        {
          "indexed": true,
          "internalType": "address",
          "name": "account",
          "type": "address"
        },
        {
          "indexed": false,
          "internalType": "uint256",
          "name": "amount",
          "type": "uint256"
        },
        {
          "indexed": false,
          "internalType": "uint256",
          "name": "total",
          "type": "uint256"
        }
      ],
      "name": "Deposited",
      "type": "event"
    },
    {
      "anonymous": false,
      "inputs": [
        {
          "indexed": true,
          "internalType": "address",
          "name": "previousOwner",
          "type": "address"
        },
        {
          "indexed": true,
          "internalType": "address",
          "name": "newOwner",
          "type": "address"
        }
      ],
      "name": "OwnershipTransferred",
      "type": "event"
    },
    {
      "anonymous": false,
      "inputs": [
        {
          "indexed": false,
          "internalType": "address",
          "name": "account",
          "type": "address"
        }
      ],
      "name": "Paused",
      "type": "event"
    },
    {
      "anonymous": false,
      "inputs": [
        {
          "indexed": true,
          "internalType": "uint256",
          "name": "daoID",
          "type": "uint256"
        },
        {
          "indexed": true,
          "internalType": "uint256",
          "name": "questID",
          "type": "uint256"
        },
        {
          "indexed": true,
          "internalType": "uint256",
          "name": "claimID",
          "type": "uint256"
        },
        {
          "indexed": false,
          "internalType": "address",
          "name": "operator",
          "type": "address"
        }
      ],
      "name": "QuestCanceled",
      "type": "event"
    },
    {
      "anonymous": false,
      "inputs": [
        {
          "indexed": true,
          "internalType": "uint256",
          "name": "daoID",
          "type": "uint256"
        },
        {
          "indexed": true,
          "internalType": "uint256",
          "name": "questTypeID",
          "type": "uint256"
        },
        {
          "indexed": true,
          "internalType": "uint256",
          "name": "questID",
          "type": "uint256"
        },
        {
          "indexed": false,
          "internalType": "uint256",
          "name": "claimID",
          "type": "uint256"
        },
        {
          "indexed": false,
          "internalType": "address",
          "name": "claimer",
          "type": "address"
        }
      ],
      "name": "QuestClaimed",
      "type": "event"
    },
    {
      "anonymous": false,
      "inputs": [
        {
          "indexed": true,
          "internalType": "uint256",
          "name": "daoID",
          "type": "uint256"
        },
        {
          "indexed": true,
          "internalType": "uint256",
          "name": "questID",
          "type": "uint256"
        },
        {
          "indexed": true,
          "internalType": "uint256",
          "name": "claimID",
          "type": "uint256"
        },
        {
          "indexed": false,
          "internalType": "address",
          "name": "verifier",
          "type": "address"
        },
        {
          "indexed": false,
          "internalType": "string",
          "name": "proofMetadataURI",
          "type": "string"
        },
        {
          "indexed": false,
          "internalType": "bytes32",
          "name": "contributorBadgeKey",
          "type": "bytes32"
        },
        {
          "indexed": false,
          "internalType": "bytes32",
          "name": "verifierBadgeKey",
          "type": "bytes32"
        }
      ],
      "name": "QuestCompleted",
      "type": "event"
    },
    {
      "anonymous": false,
      "inputs": [
        {
          "indexed": true,
          "internalType": "uint256",
          "name": "daoID",
          "type": "uint256"
        },
        {
          "indexed": true,
          "internalType": "uint256",
          "name": "questTypeID",
          "type": "uint256"
        },
        {
          "indexed": false,
          "internalType": "uint256",
          "name": "questID",
          "type": "uint256"
        },
        {
          "indexed": false,
          "internalType": "string",
          "name": "name",
          "type": "string"
        },
        {
          "indexed": false,
          "internalType": "string",
          "name": "metadataURI",
          "type": "string"
        },
        {
          "indexed": false,
          "internalType": "uint256",
          "name": "numContributions",
          "type": "uint256"
        },
        {
          "indexed": false,
          "internalType": "uint256",
          "name": "requiredStake",
          "type": "uint256"
        }
      ],
      "name": "QuestStarted",
      "type": "event"
    },
    {
      "anonymous": false,
      "inputs": [
        {
          "indexed": true,
          "internalType": "uint256",
          "name": "daoID",
          "type": "uint256"
        },
        {
          "indexed": false,
          "internalType": "uint256",
          "name": "questTypeID",
          "type": "uint256"
        },
        {
          "indexed": false,
          "internalType": "string",
          "name": "name",
          "type": "string"
        },
        {
          "indexed": false,
          "internalType": "string",
          "name": "metadataURI",
          "type": "string"
        },
        {
          "indexed": false,
          "internalType": "uint256",
          "name": "contributorBadgeTypeID",
          "type": "uint256"
        },
        {
          "indexed": false,
          "internalType": "uint256",
          "name": "verifierBadgeTypeID",
          "type": "uint256"
        },
        {
          "indexed": false,
          "internalType": "uint256[]",
          "name": "starterDeps",
          "type": "uint256[]"
        },
        {
          "indexed": false,
          "internalType": "uint256[]",
          "name": "contributorDeps",
          "type": "uint256[]"
        },
        {
          "indexed": false,
          "internalType": "uint256[]",
          "name": "verifierDeps",
          "type": "uint256[]"
        }
      ],
      "name": "QuestTypeCreated",
      "type": "event"
    },
    {
      "anonymous": false,
      "inputs": [
        {
          "indexed": false,
          "internalType": "address",
          "name": "account",
          "type": "address"
        }
      ],
      "name": "Unpaused",
      "type": "event"
    },
    {
      "anonymous": false,
      "inputs": [
        {
          "indexed": true,
          "internalType": "address",
          "name": "account",
          "type": "address"
        },
        {
          "indexed": false,
          "internalType": "uint256",
          "name": "amount",
          "type": "uint256"
        },
        {
          "indexed": false,
          "internalType": "uint256",
          "name": "remaining",
          "type": "uint256"
        }
      ],
      "name": "Withdrew",
      "type": "event"
    },
    {
      "anonymous": false,
      "inputs": [
        {
          "indexed": true,
          "internalType": "uint256",
          "name": "daoID",
          "type": "uint256"
        },
        {
          "indexed": true,
          "internalType": "address",
          "name": "account",
          "type": "address"
        },
        {
          "indexed": false,
          "internalType": "uint256",
          "name": "amount",
          "type": "uint256"
        },
        {
          "indexed": false,
          "internalType": "uint256",
          "name": "remaining",
          "type": "uint256"
        }
      ],
      "name": "WithdrewFromDAO",
      "type": "event"
    },
    {
      "inputs": [],
      "name": "ERR_BADGE_TYPE_NOT_FOUND",
      "outputs": [
        {
          "internalType": "string",
          "name": "",
          "type": "string"
        }
      ],
      "stateMutability": "view",
      "type": "function"
    },
    {
      "inputs": [],
      "name": "ERR_CANCEL_CLAIM_NOT_ALLOWED",
      "outputs": [
        {
          "internalType": "string",
          "name": "",
          "type": "string"
        }
      ],
      "stateMutability": "view",
      "type": "function"
    },
    {
      "inputs": [],
      "name": "ERR_CLAIM_NOT_ALLOWED",
      "outputs": [
        {
          "internalType": "string",
          "name": "",
          "type": "string"
        }
      ],
      "stateMutability": "view",
      "type": "function"
    },
    {
      "inputs": [],
      "name": "ERR_CLAIM_NOT_FOUND",
      "outputs": [
        {
          "internalType": "string",
          "name": "",
          "type": "string"
        }
      ],
      "stateMutability": "view",
      "type": "function"
    },
    {
      "inputs": [],
      "name": "ERR_DAO_NOT_FOUND",
      "outputs": [
        {
          "internalType": "string",
          "name": "",
          "type": "string"
        }
      ],
      "stateMutability": "view",
      "type": "function"
    },
    {
      "inputs": [],
      "name": "ERR_EMPTY_BADGE_TYPE_METADATA_URI",
      "outputs": [
        {
          "internalType": "string",
          "name": "",
          "type": "string"
        }
      ],
      "stateMutability": "view",
      "type": "function"
    },
    {
      "inputs": [],
      "name": "ERR_EMPTY_BADGE_TYPE_NAME",
      "outputs": [
        {
          "internalType": "string",
          "name": "",
          "type": "string"
        }
      ],
      "stateMutability": "view",
      "type": "function"
    },
    {
      "inputs": [],
      "name": "ERR_EMPTY_DAO_BADGE_CONTRACT",
      "outputs": [
        {
          "internalType": "string",
          "name": "",
          "type": "string"
        }
      ],
      "stateMutability": "view",
      "type": "function"
    },
    {
      "inputs": [],
      "name": "ERR_EMPTY_DAO_METADATA_URI",
      "outputs": [
        {
          "internalType": "string",
          "name": "",
          "type": "string"
        }
      ],
      "stateMutability": "view",
      "type": "function"
    },
    {
      "inputs": [],
      "name": "ERR_EMPTY_DAO_NAME",
      "outputs": [
        {
          "internalType": "string",
          "name": "",
          "type": "string"
        }
      ],
      "stateMutability": "view",
      "type": "function"
    },
    {
      "inputs": [],
      "name": "ERR_EMPTY_DAO_OWNER",
      "outputs": [
        {
          "internalType": "string",
          "name": "",
          "type": "string"
        }
      ],
      "stateMutability": "view",
      "type": "function"
    },
    {
      "inputs": [],
      "name": "ERR_EMPTY_QUEST_METADATA_URI",
      "outputs": [
        {
          "internalType": "string",
          "name": "",
          "type": "string"
        }
      ],
      "stateMutability": "view",
      "type": "function"
    },
    {
      "inputs": [],
      "name": "ERR_EMPTY_QUEST_NAME",
      "outputs": [
        {
          "internalType": "string",
          "name": "",
          "type": "string"
        }
      ],
      "stateMutability": "view",
      "type": "function"
    },
    {
      "inputs": [],
      "name": "ERR_EMPTY_QUEST_TYPE_METADATA_URI",
      "outputs": [
        {
          "internalType": "string",
          "name": "",
          "type": "string"
        }
      ],
      "stateMutability": "view",
      "type": "function"
    },
    {
      "inputs": [],
      "name": "ERR_EMPTY_QUEST_TYPE_NAME",
      "outputs": [
        {
          "internalType": "string",
          "name": "",
          "type": "string"
        }
      ],
      "stateMutability": "view",
      "type": "function"
    },
    {
      "inputs": [],
      "name": "ERR_INSUFFICIENT_STAKE",
      "outputs": [
        {
          "internalType": "string",
          "name": "",
          "type": "string"
        }
      ],
      "stateMutability": "view",
      "type": "function"
    },
    {
      "inputs": [],
      "name": "ERR_NOT_DAO_OWNER",
      "outputs": [
        {
          "internalType": "string",
          "name": "",
          "type": "string"
        }
      ],
      "stateMutability": "view",
      "type": "function"
    },
    {
      "inputs": [],
      "name": "ERR_NO_MORE_CLAIM",
      "outputs": [
        {
          "internalType": "string",
          "name": "",
          "type": "string"
        }
      ],
      "stateMutability": "view",
      "type": "function"
    },
    {
      "inputs": [],
      "name": "ERR_QUEST_CLAIMED_ALREADY",
      "outputs": [
        {
          "internalType": "string",
          "name": "",
          "type": "string"
        }
      ],
      "stateMutability": "view",
      "type": "function"
    },
    {
      "inputs": [],
      "name": "ERR_QUEST_NOT_FOUND",
      "outputs": [
        {
          "internalType": "string",
          "name": "",
          "type": "string"
        }
      ],
      "stateMutability": "view",
      "type": "function"
    },
    {
      "inputs": [],
      "name": "ERR_QUEST_NOT_ONGOING",
      "outputs": [
        {
          "internalType": "string",
          "name": "",
          "type": "string"
        }
      ],
      "stateMutability": "view",
      "type": "function"
    },
    {
      "inputs": [],
      "name": "ERR_QUEST_TYPE_NOT_FOUND",
      "outputs": [
        {
          "internalType": "string",
          "name": "",
          "type": "string"
        }
      ],
      "stateMutability": "view",
      "type": "function"
    },
    {
      "inputs": [],
      "name": "ERR_SELF_VERIFICATION",
      "outputs": [
        {
          "internalType": "string",
          "name": "",
          "type": "string"
        }
      ],
      "stateMutability": "view",
      "type": "function"
    },
    {
      "inputs": [],
      "name": "ERR_START_QUEST_NOT_ALLOWED",
      "outputs": [
        {
          "internalType": "string",
          "name": "",
          "type": "string"
        }
      ],
      "stateMutability": "view",
      "type": "function"
    },
    {
      "inputs": [],
      "name": "ERR_VERIFY_CLAIM_NOT_ALLOWED",
      "outputs": [
        {
          "internalType": "string",
          "name": "",
          "type": "string"
        }
      ],
      "stateMutability": "view",
      "type": "function"
    },
    {
      "inputs": [],
      "name": "ERR_WRONG_BADGE_TYPE_ID",
      "outputs": [
        {
          "internalType": "string",
          "name": "",
          "type": "string"
        }
      ],
      "stateMutability": "view",
      "type": "function"
    },
    {
      "inputs": [],
      "name": "ERR_ZERO_NUM_CONTRIBUTIONS",
      "outputs": [
        {
          "internalType": "string",
          "name": "",
          "type": "string"
        }
      ],
      "stateMutability": "view",
      "type": "function"
    },
    {
      "inputs": [
        {
          "internalType": "uint256",
          "name": "",
          "type": "uint256"
        }
      ],
      "name": "_DAOs",
      "outputs": [
        {
          "internalType": "string",
          "name": "name",
          "type": "string"
        },
        {
          "internalType": "string",
          "name": "metadataURI",
          "type": "string"
        },
        {
          "internalType": "address",
          "name": "badgeContract",
          "type": "address"
        },
        {
          "internalType": "address",
          "name": "owner",
          "type": "address"
        },
        {
          "internalType": "uint256",
          "name": "totalStaked",
          "type": "uint256"
        },
        {
          "internalType": "uint256",
          "name": "balance",
          "type": "uint256"
        }
      ],
      "stateMutability": "view",
      "type": "function"
    },
    {
      "inputs": [
        {
          "internalType": "uint256",
          "name": "",
          "type": "uint256"
        },
        {
          "internalType": "uint256",
          "name": "",
          "type": "uint256"
        }
      ],
      "name": "_questTypes",
      "outputs": [
        {
          "internalType": "string",
          "name": "name",
          "type": "string"
        },
        {
          "internalType": "string",
          "name": "metadataURI",
          "type": "string"
        },
        {
          "internalType": "uint256",
          "name": "contributorBadgeTypeID",
          "type": "uint256"
        },
        {
          "internalType": "uint256",
          "name": "verifierBadgeTypeID",
          "type": "uint256"
        }
      ],
      "stateMutability": "view",
      "type": "function"
    },
    {
      "inputs": [
        {
          "internalType": "uint256",
          "name": "",
          "type": "uint256"
        },
        {
          "internalType": "uint256",
          "name": "",
          "type": "uint256"
        }
      ],
      "name": "_quests",
      "outputs": [
        {
          "internalType": "uint256",
          "name": "questTypeID",
          "type": "uint256"
        },
        {
          "internalType": "string",
          "name": "name",
          "type": "string"
        },
        {
          "internalType": "string",
          "name": "metadataURI",
          "type": "string"
        },
        {
          "internalType": "uint256",
          "name": "limitContributors",
          "type": "uint256"
        },
        {
          "internalType": "uint256",
          "name": "numOngoings",
          "type": "uint256"
        },
        {
          "internalType": "uint256",
          "name": "numComplted",
          "type": "uint256"
        },
        {
          "internalType": "uint256",
          "name": "numCanceled",
          "type": "uint256"
        },
        {
          "internalType": "uint256",
          "name": "requiredStake",
          "type": "uint256"
        }
      ],
      "stateMutability": "view",
      "type": "function"
    },
    {
      "inputs": [
        {
          "internalType": "uint256",
          "name": "daoID",
          "type": "uint256"
        }
      ],
      "name": "balanceOf",
      "outputs": [
        {
          "internalType": "uint256",
          "name": "",
          "type": "uint256"
        }
      ],
      "stateMutability": "view",
      "type": "function"
    },
    {
      "inputs": [
        {
          "internalType": "uint256",
          "name": "daoID",
          "type": "uint256"
        },
        {
          "internalType": "uint256",
          "name": "questID",
          "type": "uint256"
        },
        {
          "internalType": "uint256",
          "name": "claimID",
          "type": "uint256"
        }
      ],
      "name": "cancelClaim",
      "outputs": [],
      "stateMutability": "nonpayable",
      "type": "function"
    },
    {
      "inputs": [
        {
          "internalType": "uint256",
          "name": "daoID",
          "type": "uint256"
        },
        {
          "internalType": "uint256",
          "name": "questID",
          "type": "uint256"
        }
      ],
      "name": "claimQuest",
      "outputs": [],
      "stateMutability": "payable",
      "type": "function"
    },
    {
      "inputs": [
        {
          "internalType": "uint256",
          "name": "daoID",
          "type": "uint256"
        },
        {
          "internalType": "uint256",
          "name": "questID",
          "type": "uint256"
        },
        {
          "internalType": "uint256",
          "name": "claimID",
          "type": "uint256"
        },
        {
          "internalType": "string",
          "name": "proofMetadataURI",
          "type": "string"
        }
      ],
      "name": "completeQuest",
      "outputs": [],
      "stateMutability": "nonpayable",
      "type": "function"
    },
    {
      "inputs": [
        {
          "internalType": "uint256",
          "name": "daoID",
          "type": "uint256"
        },
        {
          "internalType": "string",
          "name": "name",
          "type": "string"
        },
        {
          "internalType": "string",
          "name": "metadataURI",
          "type": "string"
        }
      ],
      "name": "createBadgeType",
      "outputs": [],
      "stateMutability": "nonpayable",
      "type": "function"
    },
    {
      "inputs": [
        {
          "internalType": "string",
          "name": "name",
          "type": "string"
        },
        {
          "internalType": "string",
          "name": "metadataURI",
          "type": "string"
        },
        {
          "internalType": "address",
          "name": "badgeContractAddress",
          "type": "address"
        },
        {
          "internalType": "address",
          "name": "owner",
          "type": "address"
        }
      ],
      "name": "createDAO",
      "outputs": [],
      "stateMutability": "nonpayable",
      "type": "function"
    },
    {
      "inputs": [
        {
          "internalType": "uint256",
          "name": "daoID",
          "type": "uint256"
        },
        {
          "internalType": "string",
          "name": "name",
          "type": "string"
        },
        {
          "internalType": "string",
          "name": "metadataURI",
          "type": "string"
        },
        {
          "internalType": "uint256",
          "name": "contributorBadgeTypeID",
          "type": "uint256"
        },
        {
          "internalType": "uint256",
          "name": "verifierBadgeTypeID",
          "type": "uint256"
        },
        {
          "internalType": "uint256[]",
          "name": "starterDeps",
          "type": "uint256[]"
        },
        {
          "internalType": "uint256[]",
          "name": "contributorDeps",
          "type": "uint256[]"
        },
        {
          "internalType": "uint256[]",
          "name": "verifierDeps",
          "type": "uint256[]"
        }
      ],
      "name": "createQuestType",
      "outputs": [],
      "stateMutability": "nonpayable",
      "type": "function"
    },
    {
      "inputs": [],
      "name": "deposit",
      "outputs": [],
      "stateMutability": "payable",
      "type": "function"
    },
    {
      "inputs": [
        {
          "internalType": "address",
          "name": "account",
          "type": "address"
        }
      ],
      "name": "depositedOf",
      "outputs": [
        {
          "internalType": "uint256",
          "name": "",
          "type": "uint256"
        }
      ],
      "stateMutability": "view",
      "type": "function"
    },
    {
      "inputs": [
        {
          "internalType": "uint256",
          "name": "daoID",
          "type": "uint256"
        },
        {
          "internalType": "uint256",
          "name": "badgeTypeID",
          "type": "uint256"
        },
        {
          "internalType": "address",
          "name": "to",
          "type": "address"
        }
      ],
      "name": "grantBadge",
      "outputs": [],
      "stateMutability": "nonpayable",
      "type": "function"
    },
    {
      "inputs": [],
      "name": "owner",
      "outputs": [
        {
          "internalType": "address",
          "name": "",
          "type": "address"
        }
      ],
      "stateMutability": "view",
      "type": "function"
    },
    {
      "inputs": [],
      "name": "pause",
      "outputs": [],
      "stateMutability": "nonpayable",
      "type": "function"
    },
    {
      "inputs": [],
      "name": "paused",
      "outputs": [
        {
          "internalType": "bool",
          "name": "",
          "type": "bool"
        }
      ],
      "stateMutability": "view",
      "type": "function"
    },
    {
      "inputs": [],
      "name": "renounceOwnership",
      "outputs": [],
      "stateMutability": "nonpayable",
      "type": "function"
    },
    {
      "inputs": [
        {
          "internalType": "uint256",
          "name": "daoID",
          "type": "uint256"
        },
        {
          "internalType": "uint256",
          "name": "questTypeID",
          "type": "uint256"
        },
        {
          "internalType": "string",
          "name": "name",
          "type": "string"
        },
        {
          "internalType": "string",
          "name": "metadataURI",
          "type": "string"
        },
        {
          "internalType": "uint256",
          "name": "numContributions",
          "type": "uint256"
        },
        {
          "internalType": "uint256",
          "name": "requiredStake",
          "type": "uint256"
        }
      ],
      "name": "startQuest",
      "outputs": [],
      "stateMutability": "nonpayable",
      "type": "function"
    },
    {
      "inputs": [
        {
          "internalType": "uint256",
          "name": "daoID",
          "type": "uint256"
        },
        {
          "internalType": "uint256",
          "name": "questID",
          "type": "uint256"
        }
      ],
      "name": "totalClaims",
      "outputs": [
        {
          "internalType": "uint256",
          "name": "",
          "type": "uint256"
        }
      ],
      "stateMutability": "view",
      "type": "function"
    },
    {
      "inputs": [],
      "name": "totalDAOs",
      "outputs": [
        {
          "internalType": "uint256",
          "name": "",
          "type": "uint256"
        }
      ],
      "stateMutability": "view",
      "type": "function"
    },
    {
      "inputs": [
        {
          "internalType": "uint256",
          "name": "daoID",
          "type": "uint256"
        }
      ],
      "name": "totalQuestTypes",
      "outputs": [
        {
          "internalType": "uint256",
          "name": "",
          "type": "uint256"
        }
      ],
      "stateMutability": "view",
      "type": "function"
    },
    {
      "inputs": [
        {
          "internalType": "uint256",
          "name": "daoID",
          "type": "uint256"
        }
      ],
      "name": "totalQuests",
      "outputs": [
        {
          "internalType": "uint256",
          "name": "",
          "type": "uint256"
        }
      ],
      "stateMutability": "view",
      "type": "function"
    },
    {
      "inputs": [
        {
          "internalType": "uint256",
          "name": "daoID",
          "type": "uint256"
        }
      ],
      "name": "totalStaked",
      "outputs": [
        {
          "internalType": "uint256",
          "name": "",
          "type": "uint256"
        }
      ],
      "stateMutability": "view",
      "type": "function"
    },
    {
      "inputs": [
        {
          "internalType": "address",
          "name": "newOwner",
          "type": "address"
        }
      ],
      "name": "transferOwnership",
      "outputs": [],
      "stateMutability": "nonpayable",
      "type": "function"
    },
    {
      "inputs": [],
      "name": "unpause",
      "outputs": [],
      "stateMutability": "nonpayable",
      "type": "function"
    },
    {
      "inputs": [
        {
          "internalType": "uint256",
          "name": "amount",
          "type": "uint256"
        }
      ],
      "name": "withdraw",
      "outputs": [],
      "stateMutability": "nonpayable",
      "type": "function"
    },
    {
      "inputs": [
        {
          "internalType": "uint256",
          "name": "daoID",
          "type": "uint256"
        },
        {
          "internalType": "uint256",
          "name": "amount",
          "type": "uint256"
        }
      ],
      "name": "withdrawFromDAO",
      "outputs": [],
      "stateMutability": "nonpayable",
      "type": "function"
    },
    {
      "stateMutability": "payable",
      "type": "receive"
    }
  ],
  "bytecode": "0x60806040523480156200001157600080fd5b5060405162005a7d38038062005a7d8339810160408190526200003491620000c2565b6200003f3362000072565b6000805460ff60a01b19169055600180546001600160a01b0319166001600160a01b0392909216919091179055620000f4565b600080546001600160a01b038381166001600160a01b0319831681178455604051919092169283917f8be0079c531659141344cd1fd0a4f28419497f9722a3daafe3b4186f6b6457e09190a35050565b600060208284031215620000d557600080fd5b81516001600160a01b0381168114620000ed57600080fd5b9392505050565b61597980620001046000396000f3fe6080604052600436106103395760003560e01c80638da5cb5b116101ab578063bb3fb995116100f7578063dc5dba1f11610095578063ecf0d5681161006f578063ecf0d56814610ce0578063ef16d99114610d25578063f2fde38b14610d45578063f7e6873e14610d6557600080fd5b8063dc5dba1f14610c19578063e32508de14610c62578063e7620db214610ca357600080fd5b8063d441b4e3116100d1578063d441b4e314610b44578063d91fba8114610b76578063dadd6b9114610bb5578063db63516e14610bd557600080fd5b8063bb3fb99514610ae2578063c5e5655b14610af7578063d0e30db014610b3c57600080fd5b80639d92da9611610164578063a40205aa1161013e578063a40205aa14610a1a578063a4c0426d14610a3a578063abf6477814610a5a578063b413045914610a9957600080fd5b80639d92da961461097d5780639f75fb37146109b15780639fd5a5d8146109d157600080fd5b80638da5cb5b1461086e5780638ed0ac26146108965780638f383280146108d75780638fed1e96146108f75780639bcae5061461090c5780639cc7f7081461094d57600080fd5b80634a28b911116102855780636b68003b1161022357806381d50034116101fd57806381d50034146107bc57806382286ec7146107f95780638456cb5914610839578063860766ce1461084e57600080fd5b80636b68003b146107555780636f0965671461076a578063715018a6146107a757600080fd5b806358b219b01161025f57806358b219b01461069e5780635c975abb146106d55780635c99d8cc146106ff57806369ae65351461073557600080fd5b80634a28b911146105f25780635566f2a31461063b578063576c4f961461067e57600080fd5b806326f8ca0d116102f25780632e1a7d4d116102cc5780632e1a7d4d1461054a5780633f4ba83a1461056a57806341cb8c201461057f57806343223762146105b057600080fd5b806326f8ca0d146104e7578063277de7ca146105075780632d4a47e71461051a57600080fd5b8063120420651461034f578063152520fb146103aa578063171aae19146103e85780631cd70c11146104165780631e0c01a914610455578063200e8d231461049e57600080fd5b3661034a576103483334610dae565b005b600080fd5b34801561035b57600080fd5b50610394604051806040016040528060198152602001784552525f454d5054595f42414447455f545950455f4e414d4560381b81525081565b6040516103a19190614abd565b60405180910390f35b3480156103b657600080fd5b50610394604051806040016040528060128152602001714552525f454d5054595f44414f5f4e414d4560701b81525081565b3480156103f457600080fd5b50610408610403366004614ad0565b610e31565b6040519081526020016103a1565b34801561042257600080fd5b506103946040518060400160405280601381526020017222a9292fa2a6a82a2cafa220a7afa7aba722a960691b81525081565b34801561046157600080fd5b506103946040518060400160405280601b81526020017f4552525f53544152545f51554553545f4e4f545f414c4c4f574544000000000081525081565b3480156104aa57600080fd5b506103946040518060400160405280601a81526020017f4552525f454d5054595f44414f5f4d455441444154415f55524900000000000081525081565b3480156104f357600080fd5b50610348610502366004614b05565b610e47565b610348610515366004614b3a565b611013565b34801561052657600080fd5b5061053a610535366004614b3a565b6110f7565b6040516103a19493929190614b5c565b34801561055657600080fd5b50610348610565366004614ad0565b61123a565b34801561057657600080fd5b50610348611247565b34801561058b57600080fd5b5061040861059a366004614ad0565b6000908152600460208190526040909120015490565b3480156105bc57600080fd5b50610394604051806040016040528060168152602001754552525f494e53554646494349454e545f5354414b4560501b81525081565b3480156105fe57600080fd5b506103946040518060400160405280601c81526020017f4552525f454d5054595f44414f5f42414447455f434f4e54524143540000000081525081565b34801561064757600080fd5b506103946040518060400160405280601781526020017611549497d5d493d391d7d0905111d157d516541157d251604a1b81525081565b34801561068a57600080fd5b50610408610699366004614ad0565b611261565b3480156106aa57600080fd5b5061039460405180604001604052806018815260200160008051602061590383398151915281525081565b3480156106e157600080fd5b50600054600160a01b900460ff1660405190151581526020016103a1565b34801561070b57600080fd5b5061040861071a366004614b95565b6001600160a01b03166000908152600d602052604090205490565b34801561074157600080fd5b50610348610750366004614b3a565b611275565b34801561076157600080fd5b50610394611353565b34801561077657600080fd5b50610394604051806040016040528060118152602001704552525f4e4f5f4d4f52455f434c41494d60781b81525081565b3480156107b357600080fd5b5061034861136f565b3480156107c857600080fd5b506103946040518060400160405280601181526020017011549497d11053d7d393d517d193d55391607a1b81525081565b34801561080557600080fd5b50610394604051806040016040528060148152602001734552525f454d5054595f51554553545f4e414d4560601b81525081565b34801561084557600080fd5b50610348611381565b34801561085a57600080fd5b50610348610869366004614c67565b611399565b34801561087a57600080fd5b506000546040516001600160a01b0390911681526020016103a1565b3480156108a257600080fd5b506103946040518060400160405280601581526020017422a9292fa9a2a6232fab22a924a324a1a0aa24a7a760591b81525081565b3480156108e357600080fd5b506103486108f2366004614d70565b611488565b34801561090357600080fd5b50610394611580565b34801561091857600080fd5b506103946040518060400160405280601581526020017411549497d0d310525357d393d517d0531313d5d151605a1b81525081565b34801561095957600080fd5b50610408610968366004614ad0565b60009081526004602052604090206005015490565b34801561098957600080fd5b5061099d610998366004614b3a565b61159c565b6040516103a1989796959493929190614e5f565b3480156109bd57600080fd5b506103486109cc366004614eb9565b6116f8565b3480156109dd57600080fd5b506103946040518060400160405280601c81526020017f4552525f5645524946595f434c41494d5f4e4f545f414c4c4f5745440000000081525081565b348015610a2657600080fd5b50610348610a35366004614f26565b6117e6565b348015610a4657600080fd5b50610408610a55366004614b3a565b611800565b348015610a6657600080fd5b506103946040518060400160405280601381526020017211549497d4555154d517d393d517d193d55391606a1b81525081565b348015610aa557600080fd5b506103946040518060400160405280601c81526020017f4552525f43414e43454c5f434c41494d5f4e4f545f414c4c4f5745440000000081525081565b348015610aee57600080fd5b50610408611822565b348015610b0357600080fd5b50610394604051806040016040528060198152602001784552525f51554553545f434c41494d45445f414c524541445960381b81525081565b610348611832565b348015610b5057600080fd5b50610b64610b5f366004614ad0565b611844565b6040516103a196959493929190614fab565b348015610b8257600080fd5b506103946040518060400160405280601381526020017211549497d0d310525357d393d517d193d55391606a1b81525081565b348015610bc157600080fd5b50610348610bd0366004614fff565b611997565b348015610be157600080fd5b506103946040518060400160405280601881526020017711549497d4555154d517d516541157d393d517d193d5539160421b81525081565b348015610c2557600080fd5b506103946040518060400160405280601a81526020017f4552525f5a45524f5f4e554d5f434f4e545249425554494f4e5300000000000081525081565b348015610c6e57600080fd5b50610394604051806040016040528060158152602001744552525f51554553545f4e4f545f4f4e474f494e4760581b81525081565b348015610caf57600080fd5b506103946040518060400160405280601181526020017022a9292fa727aa2fa220a7afa7aba722a960791b81525081565b348015610cec57600080fd5b50610394604051806040016040528060198152602001784552525f454d5054595f51554553545f545950455f4e414d4560381b81525081565b348015610d3157600080fd5b50610348610d40366004615059565b611aef565b348015610d5157600080fd5b50610348610d60366004614b95565b611c39565b348015610d7157600080fd5b506103946040518060400160405280601c81526020017f4552525f454d5054595f51554553545f4d455441444154415f5552490000000081525081565b6001600160a01b0382166000908152600d6020526040902054610dd19082611caf565b6001600160a01b0383166000818152600d6020526040908190208390555190917f73a19dd210f1a7f902193214c0ee91dd35ee5b4d920cba8d519eca65a7b488ca91610e2591858252602082015260400190565b60405180910390a25050565b6000818152600760205260408120545b92915050565b610e4f611cbb565b600083815260046020526040902080548491610ef291610e6e90615085565b80601f0160208091040260200160405190810160405280929190818152602001828054610e9a90615085565b8015610ee75780601f10610ebc57610100808354040283529160200191610ee7565b820191906000526020600020905b815481529060010190602001808311610eca57829003601f168201915b505050505051151590565b6040518060400160405280601181526020017011549497d11053d7d393d517d193d55391607a1b81525090610f435760405162461bcd60e51b8152600401610f3a9190614abd565b60405180910390fd5b50600084815260046020908152604091829020600301548251808401909352601183527022a9292fa727aa2fa220a7afa7aba722a960791b91830191909152859133916001600160a01b03168214610fae5760405162461bcd60e51b8152600401610f3a9190614abd565b508585610fbb8282611d08565b60405180604001604052806018815260200160008051602061590383398151915281525090610ffd5760405162461bcd60e51b8152600401610f3a9190614abd565b50611009888888611d8c565b5050505050505050565b61101b611cbb565b60008281526004602052604090208054839161103a91610e6e90615085565b6040518060400160405280601181526020017011549497d11053d7d393d517d193d55391607a1b815250906110825760405162461bcd60e51b8152600401610f3a9190614abd565b50600083815260076020526040902054839083908111156040518060400160405280601381526020017211549497d4555154d517d393d517d193d55391606a1b815250906110e35760405162461bcd60e51b8152600401610f3a9190614abd565b506110f085853334612025565b5050505050565b600660209081526000928352604080842090915290825290208054819061111d90615085565b80601f016020809104026020016040519081016040528092919081815260200182805461114990615085565b80156111965780601f1061116b57610100808354040283529160200191611196565b820191906000526020600020905b81548152906001019060200180831161117957829003601f168201915b5050505050908060010180546111ab90615085565b80601f01602080910402602001604051908101604052809291908181526020018280546111d790615085565b80156112245780601f106111f957610100808354040283529160200191611224565b820191906000526020600020905b81548152906001019060200180831161120757829003601f168201915b5050505050908060020154908060030154905084565b6112443382612402565b50565b61124f6124bb565b611257612515565b61125f612565565b565b600081815260056020526040812054610e41565b60008281526004602052604090208054839161129491610e6e90615085565b6040518060400160405280601181526020017011549497d11053d7d393d517d193d55391607a1b815250906112dc5760405162461bcd60e51b8152600401610f3a9190614abd565b50600083815260046020908152604091829020600301548251808401909352601183527022a9292fa727aa2fa220a7afa7aba722a960791b91830191909152849133916001600160a01b031682146113475760405162461bcd60e51b8152600401610f3a9190614abd565b506110f08533866125ba565b6040518060600160405280602181526020016159236021913981565b6113776124bb565b61125f600061267c565b6113896124bb565b611391611cbb565b61125f6126cc565b6113a1611cbb565b6000868152600460205260409020805487916113c091610e6e90615085565b6040518060400160405280601181526020017011549497d11053d7d393d517d193d55391607a1b815250906114085760405162461bcd60e51b8152600401610f3a9190614abd565b50600087815260056020526040902054879087908111156040518060400160405280601881526020017711549497d4555154d517d516541157d393d517d193d5539160421b8152509061146e5760405162461bcd60e51b8152600401610f3a9190614abd565b5061147d89898989898961270f565b505050505050505050565b611490611cbb565b6000888152600460205260409020805489916114af91610e6e90615085565b6040518060400160405280601181526020017011549497d11053d7d393d517d193d55391607a1b815250906114f75760405162461bcd60e51b8152600401610f3a9190614abd565b50600089815260046020908152604091829020600301548251808401909352601183527022a9292fa727aa2fa220a7afa7aba722a960791b918301919091528a9133916001600160a01b031682146115625760405162461bcd60e51b8152600401610f3a9190614abd565b506115738b8b8b8b8b8b8b8b6129ef565b5050505050505050505050565b6040518060600160405280602181526020016158e26021913981565b6008602090815260009283526040808420909152908252902080546001820180549192916115c990615085565b80601f01602080910402602001604051908101604052809291908181526020018280546115f590615085565b80156116425780601f1061161757610100808354040283529160200191611642565b820191906000526020600020905b81548152906001019060200180831161162557829003601f168201915b50505050509080600201805461165790615085565b80601f016020809104026020016040519081016040528092919081815260200182805461168390615085565b80156116d05780601f106116a5576101008083540402835291602001916116d0565b820191906000526020600020905b8154815290600101906020018083116116b357829003601f168201915b5050505050908060030154908060040154908060050154908060060154908060070154905088565b611700611cbb565b60008381526004602052604090208054849161171f91610e6e90615085565b6040518060400160405280601181526020017011549497d11053d7d393d517d193d55391607a1b815250906117675760405162461bcd60e51b8152600401610f3a9190614abd565b50600084815260046020908152604091829020600301548251808401909352601183527022a9292fa727aa2fa220a7afa7aba722a960791b91830191909152859133916001600160a01b031682146117d25760405162461bcd60e51b8152600401610f3a9190614abd565b506117de868686612e0a565b505050505050565b6117ee611cbb565b6117fa84848484612f77565b50505050565b60008281526009602090815260408083208484529091528120545b9392505050565b600061182d60035490565b905090565b61183a611cbb565b61125f3334610dae565b60046020526000908152604090208054819061185f90615085565b80601f016020809104026020016040519081016040528092919081815260200182805461188b90615085565b80156118d85780601f106118ad576101008083540402835291602001916118d8565b820191906000526020600020905b8154815290600101906020018083116118bb57829003601f168201915b5050505050908060010180546118ed90615085565b80601f016020809104026020016040519081016040528092919081815260200182805461191990615085565b80156119665780601f1061193b57610100808354040283529160200191611966565b820191906000526020600020905b81548152906001019060200180831161194957829003601f168201915b5050505060028301546003840154600485015460059095015493946001600160a01b03928316949290911692509086565b61199f611cbb565b6000848152600460205260409020805485916119be91610e6e90615085565b6040518060400160405280601181526020017011549497d11053d7d393d517d193d55391607a1b81525090611a065760405162461bcd60e51b8152600401610f3a9190614abd565b50600085815260076020526040902054859085908111156040518060400160405280601381526020017211549497d4555154d517d393d517d193d55391606a1b81525090611a675760405162461bcd60e51b8152600401610f3a9190614abd565b5060008781526009602090815260408083208984529091529020548790879087908111156040518060400160405280601381526020017211549497d0d310525357d393d517d193d55391606a1b81525090611ad55760405162461bcd60e51b8152600401610f3a9190614abd565b50611ae38a8a8a8a336131eb565b50505050505050505050565b611af7611cbb565b600083815260046020526040902080548491611b1691610e6e90615085565b6040518060400160405280601181526020017011549497d11053d7d393d517d193d55391607a1b81525090611b5e5760405162461bcd60e51b8152600401610f3a9190614abd565b50600084815260076020526040902054849084908111156040518060400160405280601381526020017211549497d4555154d517d393d517d193d55391606a1b81525090611bbf5760405162461bcd60e51b8152600401610f3a9190614abd565b5060008681526009602090815260408083208884529091529020548690869086908111156040518060400160405280601381526020017211549497d0d310525357d393d517d193d55391606a1b81525090611c2d5760405162461bcd60e51b8152600401610f3a9190614abd565b5061147d898989613850565b611c416124bb565b6001600160a01b038116611ca65760405162461bcd60e51b815260206004820152602660248201527f4f776e61626c653a206e6577206f776e657220697320746865207a65726f206160448201526564647265737360d01b6064820152608401610f3a565b6112448161267c565b600061181b82846150d5565b600054600160a01b900460ff161561125f5760405162461bcd60e51b815260206004820152601060248201526f14185d5cd8589b194e881c185d5cd95960821b6044820152606401610f3a565b6000828152600460208181526040808420600201548151630fb365d160e41b815291516001600160a01b039091169363fb365d109383820193909291908290030181865afa158015611d5e573d6000803e3d6000fd5b505050506040513d601f19601f82011682018060405250810190611d8291906150e8565b9091111592915050565b82600c600084815260200190815260200160002054146040518060400160405280601781526020017611549497d5d493d391d7d0905111d157d516541157d251604a1b81525090611df05760405162461bcd60e51b8152600401610f3a9190614abd565b50604080518082019091526000815260606020820152611e0f81613aad565b9050611e5f604051806040016040528060048152602001635479706560e01b8152506040518060400160405280600581526020016411dc985b9d60da1b81525083613ad09092919063ffffffff16565b604080518082019091526006815265125cdcdd595960d21b6020820152909150611e8b90829030613b76565b60408051808201909152600381526244414f60e81b6020820152909150611eb490829086613c1d565b60408051808201909152600981526814995c5d595cdd195960ba1b6020820152909150611ee390829033613b76565b9050611f17604051806040016040528060058152602001644e6f6e636560d81b815250611f0f60025490565b839190613c1d565b9050611f2281613c84565b905060008160200151805190602001209050611f4383828460200151613ca7565b5060008581526004602090815260409182902060020154825180830185905283518082039093018352808401938490526253df9f60e71b9093526001600160a01b0316916329efcf8091611f9d9187918991604401615101565b600060405180830381600087803b158015611fb757600080fd5b505af1158015611fcb573d6000803e3d6000fd5b505060408051878152602081018590523393506001600160a01b038716925088917f830f9f6fef1216cd54338eb9640e9625bac56df55e0a7d0fa075dca734436483910160405180910390a46110f0600280546001019055565b60008481526008602090815260408083208684528252808320878452600683528184208154855283529281902060050180548251818502810185019093528083526120a993899392919083018282801561209e57602002820191906000526020600020905b81548152602001906001019080831161208a575b505050505085613dfd565b6040518060400160405280601581526020017411549497d0d310525357d393d517d0531313d5d151605a1b815250906120f55760405162461bcd60e51b8152600401610f3a9190614abd565b506000858152600b6020908152604080832087845282528083206001600160a01b038716845282529182902054825180840190935260198352784552525f51554553545f434c41494d45445f414c524541445960381b9183019190915260ff16156121735760405162461bcd60e51b8152600401610f3a9190614abd565b5080600301548160050154826004015461218d91906150d5565b10604051806040016040528060118152602001704552525f4e4f5f4d4f52455f434c41494d60781b815250906121d65760405162461bcd60e51b8152600401610f3a9190614abd565b5081156121e7576121e78383610dae565b8060070154600d6000856001600160a01b03166001600160a01b03168152602001908152602001600020541015604051806040016040528060168152602001754552525f494e53554646494349454e545f5354414b4560501b815250906122615760405162461bcd60e51b8152600401610f3a9190614abd565b5061227185848360070154613eef565b60048101805490600061228383615131565b90915550506000858152600b6020908152604080832087845282528083206001600160a01b03871684528252808320805460ff191660011790558783526009825280832087845290915290206122dc9080546001019055565b600085815260096020908152604080832087845282528083205481516080810183526001600160a01b0388811682528185018681528285018781528551808801875288815260608501528c8852600a87528588208c8952875285882085895290965293909520815181549087166001600160a01b03199182161782559351600182018054919097169481168517875594519295919490936001600160a81b031990911617600160a01b8360028111156123975761239761514a565b0217905550606082015160028201906123b090826151ab565b50508254604080518481526001600160a01b038816602082015288935089917ff7ef2508bb2ddf882787d355581ad8f7fa9391b81b323ef36cb2c9b3482ee834910160405180910390a4505050505050565b6001600160a01b0382166000908152600d60205260409020546124259082613fa8565b6001600160a01b0383166000818152600d6020526040808220939093559151909183156108fc02918491818181858888f1935050505015801561246c573d6000803e3d6000fd5b506001600160a01b0382166000818152600d6020908152604091829020548251858152918201527fadec52fcd1408589179b85e44b434374db078b4eaf793e7d1a1bb0ae4ecfeee59101610e25565b6000546001600160a01b0316331461125f5760405162461bcd60e51b815260206004820181905260248201527f4f776e61626c653a2063616c6c6572206973206e6f7420746865206f776e65726044820152606401610f3a565b600054600160a01b900460ff1661125f5760405162461bcd60e51b815260206004820152601460248201527314185d5cd8589b194e881b9bdd081c185d5cd95960621b6044820152606401610f3a565b61256d612515565b6000805460ff60a01b191690557f5db9ee0a495bf2e6ff9c91a7834c1ba4fdd244a5e8aa4e537bd38aeae4b073aa335b6040516001600160a01b03909116815260200160405180910390a1565b6000838152600460205260409020600501546125d69082613fa8565b6000848152600460205260408082206005019290925590516001600160a01b0384169183156108fc02918491818181858888f1935050505015801561261f573d6000803e3d6000fd5b50600083815260046020908152604091829020600501548251848152918201526001600160a01b0384169185917fad05c6f34c1d0f1cdeef8906ab2d7c74fea0487adf9f98e930b12a2f59135188910160405180910390a3505050565b600080546001600160a01b038381166001600160a01b0319831681178455604051919092169283917f8be0079c531659141344cd1fd0a4f28419497f9722a3daafe3b4186f6b6457e09190a35050565b6126d4611cbb565b6000805460ff60a01b1916600160a01b1790557f62e78cea01bee320cd4e420270b5ea74000d11b0c9f74754ebdbfc544b05a25861259d3390565b83511515604051806040016040528060198152602001784552525f454d5054595f51554553545f545950455f4e414d4560381b815250906127635760405162461bcd60e51b8152600401610f3a9190614abd565b50825115156040518060400160405280601c81526020017f4552525f454d5054595f51554553545f4d455441444154415f55524900000000815250906127bc5760405162461bcd60e51b8152600401610f3a9190614abd565b5060408051808201909152601a81527f4552525f5a45524f5f4e554d5f434f4e545249425554494f4e5300000000000060208201528261280f5760405162461bcd60e51b8152600401610f3a9190614abd565b5060008681526006602090815260408083208884528252918290206004018054835181840281018401909452808452612882938a939092919083018282801561287757602002820191906000526020600020905b815481526020019060010190808311612863575b505050505033613dfd565b6040518060400160405280601b81526020017f4552525f53544152545f51554553545f4e4f545f414c4c4f5745440000000000815250906128d65760405162461bcd60e51b8152600401610f3a9190614abd565b50600086815260076020908152604080832080546001908101918290558251610100810184528a81528085018a81528185018a9052606082018990526080820187905260a0820187905260c0820187905260e082018890528c87526008865284872084885290955292909420825181559251909391929182019061295a90826151ab565b506040820151600282019061296f90826151ab565b50606082015181600301556080820151816004015560a0820151816005015560c0820151816006015560e0820151816007015590505085877fc73523a26432ebd11dd03a831db1a4f7f057a70ce0b18c111a50cf6ca419182883888888886040516129de95949392919061526b565b60405180910390a350505050505050565b86511515604051806040016040528060198152602001784552525f454d5054595f51554553545f545950455f4e414d4560381b81525090612a435760405162461bcd60e51b8152600401610f3a9190614abd565b50855115156040518060600160405280602181526020016159236021913990612a7f5760405162461bcd60e51b8152600401610f3a9190614abd565b50612a8a8886611d08565b60405180604001604052806018815260200160008051602061590383398151915281525090612acc5760405162461bcd60e51b8152600401610f3a9190614abd565b5087600c600087815260200190815260200160002054146040518060400160405280601781526020017611549497d5d493d391d7d0905111d157d516541157d251604a1b81525090612b315760405162461bcd60e51b8152600401610f3a9190614abd565b50612b3c8885611d08565b60405180604001604052806018815260200160008051602061590383398151915281525090612b7e5760405162461bcd60e51b8152600401610f3a9190614abd565b5087600c600086815260200190815260200160002054146040518060400160405280601781526020017611549497d5d493d391d7d0905111d157d516541157d251604a1b81525090612be35760405162461bcd60e51b8152600401610f3a9190614abd565b50612bee8884613fb4565b60405180604001604052806018815260200160008051602061590383398151915281525090612c305760405162461bcd60e51b8152600401610f3a9190614abd565b50612c3b8883613fb4565b60405180604001604052806018815260200160008051602061590383398151915281525090612c7d5760405162461bcd60e51b8152600401610f3a9190614abd565b50612c888882613fb4565b60405180604001604052806018815260200160008051602061590383398151915281525090612cca5760405162461bcd60e51b8152600401610f3a9190614abd565b506000888152600560209081526040808320805460010190819055815160e0810183528b81528084018b90528083018a9052606081018990526080810188905260a0810187905260c081018690528c855260068452828520828652909352922081518190612d3890826151ab565b5060208201516001820190612d4d90826151ab565b50604082015160028201556060820151600382015560808201518051612d7d916004840191602090910190614a0d565b5060a08201518051612d99916005840191602090910190614a0d565b5060c08201518051612db5916006840191602090910190614a0d565b50905050887fec35fe0264aa660686063e253b07bb6245fbf3d068bd83e664049f4e83e34b3d828a8a8a8a8a8a8a604051612df79897969594939291906152e6565b60405180910390a2505050505050505050565b81511515604051806040016040528060198152602001784552525f454d5054595f42414447455f545950455f4e414d4560381b81525090612e5e5760405162461bcd60e51b8152600401610f3a9190614abd565b50805115156040518060600160405280602181526020016158e26021913990612e9a5760405162461bcd60e51b8152600401610f3a9190614abd565b50600083815260046020819052604080832060020154905163038c547f60e11b81526001600160a01b0390911691630718a8fe91612edc91879187910161536b565b6020604051808303816000875af1158015612efb573d6000803e3d6000fd5b505050506040513d601f19601f82011682018060405250810190612f1f91906150e8565b6000818152600c6020526040908190208690555190915084907fef0b9088382c158b6d4fba36d3a3c2ded49b7908e5e039abc026c697c5a5325190612f6990849087908790615390565b60405180910390a250505050565b83511515604051806040016040528060128152602001714552525f454d5054595f44414f5f4e414d4560701b81525090612fc45760405162461bcd60e51b8152600401610f3a9190614abd565b50825115156040518060400160405280601a81526020017f4552525f454d5054595f44414f5f4d455441444154415f5552490000000000008152509061301d5760405162461bcd60e51b8152600401610f3a9190614abd565b5060408051808201909152601c81527f4552525f454d5054595f44414f5f42414447455f434f4e54524143540000000060208201526001600160a01b0383166130795760405162461bcd60e51b8152600401610f3a9190614abd565b5060408051808201909152601381527222a9292fa2a6a82a2cafa220a7afa7aba722a960691b60208201526001600160a01b0382166130cb5760405162461bcd60e51b8152600401610f3a9190614abd565b506130da600380546001019055565b60006130e560035490565b6040805160c08101825287815260208082018890526001600160a01b03808816838501528616606083015260006080830181905260a0830181905284815260049091529190912081519293509091819061313f90826151ab565b506020820151600182019061315490826151ab565b506040828101516002830180546001600160a01b039283166001600160a01b03199182161790915560608501516003850180549190931691161790556080830151600483015560a090920151600590910155517f753b3b83ee44963ae0e15950e8696d5fef5ed1ae9b55e6106cd3d00567ec9ba9906131dc90839088908890889088906153c5565b60405180910390a15050505050565b60008581526008602090815260408083208784528252808320888452600a83528184208885528352818420878552909252822090916001820154600160a01b900460ff1660028111156132405761324061514a565b14604051806040016040528060158152602001744552525f51554553545f4e4f545f4f4e474f494e4760581b8152509061328d5760405162461bcd60e51b8152600401610f3a9190614abd565b50805460408051808201909152601581527422a9292fa9a2a6232fab22a924a324a1a0aa24a7a760591b6020820152906001600160a01b03908116908516036132e95760405162461bcd60e51b8152600401610f3a9190614abd565b50600087815260066020818152604080842086548552825292839020909101805483518184028101840190945280845261335b938b939092919083018282801561209e576020028201919060005260206000209081548152602001906001019080831161208a57505050505085613dfd565b6040518060400160405280601c81526020017f4552525f5645524946595f434c41494d5f4e4f545f414c4c4f57454400000000815250906133af5760405162461bcd60e51b8152600401610f3a9190614abd565b50805460078301546133ce9189916001600160a01b0390911690614087565b6005820180549060006133e083615131565b90915550506004820180549060006133f783615416565b909155505060018101805460ff60a01b1916600160a01b17905560408051808201909152600081526060602082015261342f81613aad565b9050613485604051806040016040528060048152602001635479706560e01b8152506040518060400160405280600b81526020016a10dbdb9d1c9a589d5d195960aa1b81525083613ad09092919063ffffffff16565b604080518082019091526006815265125cdcdd595960d21b60208201529091506134b190829030613b76565b60408051808201909152600381526244414f60e81b60208201529091506134da9082908a613c1d565b60408051808201909152600881526715995c9a599a595960c21b602082015290915061350890829086613b76565b9050613534604051806040016040528060058152602001644e6f6e636560d81b815250611f0f60025490565b905061353f81613c84565b60208181015180519082012060008b81526004835260408082206002908101548854600687528385208b54865287529383902090910154825180870186905283518082039097018752808401938490526253df9f60e71b90935295965092946001600160a01b03938416946329efcf80946135be941692604401615101565b600060405180830381600087803b1580156135d857600080fd5b505af11580156135ec573d6000803e3d6000fd5b50508454602085015161360e93506001600160a01b0390911691508390613ca7565b5060408051808201909152600081526060602082015261362d81613aad565b9050613680604051806040016040528060048152602001635479706560e01b8152506040518060400160405280600881526020016715995c9a599a595960c21b81525083613ad09092919063ffffffff16565b604080518082019091526006815265125cdcdd595960d21b60208201529091506136ac90829030613b76565b60408051808201909152600381526244414f60e81b60208201529091506136d59082908c613c1d565b60408051808201909152600681526515185c99d95d60d21b6020820152855491925061370c918391906001600160a01b0316613b76565b9050613738604051806040016040528060058152602001644e6f6e636560d81b815250611f0f60025490565b905061374381613c84565b60208181015180519082012060008d815260048352604080822060020154600685528183208b54845285529181902060030154815180860185905282518082039096018652808301928390526253df9f60e71b90925294955091936001600160a01b03909116926329efcf80926137c0928c929091604401615101565b600060405180830381600087803b1580156137da57600080fd5b505af11580156137ee573d6000803e3d6000fd5b5050505061380187828460200151613ca7565b50888a8c7f494948f4224f61deca1c9586bfd517f7115fdc74a5e94092d728e70d23e3e8f78a8c888760405161383a949392919061542d565b60405180910390a4611573600280546001019055565b60008381526008602090815260408083208584528252808320868452600a83528184208685528352818420858552909252822090916001820154600160a01b900460ff1660028111156138a5576138a561514a565b14604051806040016040528060158152602001744552525f51554553545f4e4f545f4f4e474f494e4760581b815250906138f25760405162461bcd60e51b8152600401610f3a9190614abd565b5080546001600160a01b031633148061398557506000858152600660208181526040808420600883528185208986528352818520548552825292839020909101805483518184028101840190945280845261398593899390929190830182828015612877576020028201919060005260206000209081548152602001906001019080831161286357505050505033613dfd565b6040518060400160405280601c81526020017f4552525f43414e43454c5f434c41494d5f4e4f545f414c4c4f57454400000000815250906139d95760405162461bcd60e51b8152600401610f3a9190614abd565b506000858152600a6020908152604080832087845282528083208684528252808320600101805460ff60a01b1916600160a11b17905583548884526008835281842088855290925290912060070154613a3f9187916001600160a01b0390911690614121565b600682018054906000613a5183615131565b9091555050600482018054906000613a6883615416565b90915550506040513381528390859087907f1ef401ee500254c5ed793961e7461e63de2521ebda38e55798fd786ebefd9af79060200160405180910390a45050505050565b604080518082019091526000815260606020820152610e4182607b60f81b6141cc565b6040805180820190915260008152606060208201526000613af08361426d565b9050600085600001511215613b3657602080860151604051613b1c92600b60fa1b918891869101615464565b60408051601f198184030181529190526020860152613b63565b602080860151604051613b4d9287918591016154e0565b60408051601f1981840301815291905260208601525b50508251600160ff1b1783525090919050565b604080518082019091526000815260606020820152835160001315613bd6578360200151600b60fa1b84613ba9856146ca565b604051602001613bbc9493929190615464565b60408051601f198184030181529190526020850152613c0d565b836020015183613be5846146ca565b604051602001613bf7939291906154e0565b60408051601f1981840301815291905260208501525b50508151600160ff1b1782525090565b604080518082019091526000815260606020820152835160001315613c63578360200151600b60fa1b84613c508561488d565b604051602001613bbc949392919061554c565b836020015183613c728461488d565b604051602001613bf7939291906155be565b604080518082019091526000815260606020820152610e4182607d60f81b6149a2565b6001546000906001600160a01b0316613cc25750600061181b565b604080516001808252818301909252600091816020015b60408051606080820183526000808352602083015291810191909152815260200190600190039081613cd95790505090508481600081518110613d1e57613d1e61561f565b6020026020010151600001906001600160a01b031690816001600160a01b0316815250508381600081518110613d5657613d5661561f565b602002602001015160200181815250508281600081518110613d7a57613d7a61561f565b602090810291909101015160409081019190915260015490516305eb5ea160e41b81526001600160a01b03909116908190635eb5ea1090613dbf908590600401615635565b600060405180830381600087803b158015613dd957600080fd5b505af1158015613ded573d6000803e3d6000fd5b5060019998505050505050505050565b6000838152600460205260408120600201546001600160a01b0316815b8451811015613ee357816001600160a01b031662fdd58e8587600081518110613e4557613e4561561f565b60200260200101516040518363ffffffff1660e01b8152600401613e7e9291906001600160a01b03929092168252602082015260400190565b602060405180830381865afa158015613e9b573d6000803e3d6000fd5b505050506040513d601f19601f82011682018060405250810190613ebf91906150e8565b600003613ed15760009250505061181b565b80613edb81615131565b915050613e1a565b50600195945050505050565b6001600160a01b0382166000908152600d6020526040902054613f129082613fa8565b6001600160a01b0383166000818152600d6020908152604080832094909455868252600e8152838220928252919091522054613f4e9082611caf565b6000848152600e602090815260408083206001600160a01b03871684528252808320939093558582526004908190529190200154613f8c9082611caf565b6000938452600460208190526040909420909301929092555050565b600061181b82846156bd565b6000828152600460208181526040808420600201548151630fb365d160e41b8152915185946001600160a01b039092169363fb365d109380840193919291908290030181865afa15801561400c573d6000803e3d6000fd5b505050506040513d601f19601f8201168201806040525081019061403091906150e8565b905060005b835181101561407c57818482815181106140515761405161561f565b6020026020010151111561406a57600092505050610e41565b8061407481615131565b915050614035565b506001949350505050565b6000838152600e602090815260408083206001600160a01b03861684529091529020546140b49082613fa8565b6000848152600e602090815260408083206001600160a01b0387168452825280832093909355600d905220546140ea9082611caf565b6001600160a01b0383166000908152600d60209081526040808320939093558582526004908190529190200154613f8c9082613fa8565b6000838152600e602090815260408083206001600160a01b038616845290915290205461414e9082613fa8565b6000848152600e602090815260408083206001600160a01b0387168452825280832093909355858252600490819052919020015461418c9082613fa8565b600084815260046020819052604090912090810191909155600501546141b29082611caf565b600093845260046020526040909320600501929092555050565b6040805180820190915260008152606060208201528251600013156142205760208084015160405161420692600b60fa1b918691016156d0565b60408051601f19818403018152919052602084015261424b565b60208084015160405161423592859101615703565b60408051601f1981840301815291905260208401525b82516001600160ff1b03168084528361426382615732565b9052509192915050565b6060816000805b8251811015614447578251601760fa1b908490839081106142975761429761561f565b01602001516001600160f81b031916036142b45760019150614447565b8251601160f91b908490839081106142ce576142ce61561f565b01602001516001600160f81b031916036142eb5760019150614447565b8251602f60f81b908490839081106143055761430561561f565b01602001516001600160f81b031916036143225760019150614447565b8251600960f81b9084908390811061433c5761433c61561f565b01602001516001600160f81b031916036143595760019150614447565b8251600360fa1b908490839081106143735761437361561f565b01602001516001600160f81b031916036143905760019150614447565b8251600560f91b908490839081106143aa576143aa61561f565b01602001516001600160f81b031916036143c75760019150614447565b8251600d60f81b908490839081106143e1576143e161561f565b01602001516001600160f81b031916036143fe5760019150614447565b8251600160fb1b908490839081106144185761441861561f565b01602001516001600160f81b031916036144355760019150614447565b8061443f81615131565b915050614274565b508061445557509192915050565b60005b82518110156146c2578251601760fa1b9084908390811061447b5761447b61561f565b01602001516001600160f81b031916036144b657836040516020016144a0919061574a565b60405160208183030381529060405293506146b0565b8251601160f91b908490839081106144d0576144d061561f565b01602001516001600160f81b031916036144f557836040516020016144a09190615770565b8251602f60f81b9084908390811061450f5761450f61561f565b01602001516001600160f81b0319160361453457836040516020016144a09190615796565b8251600960f81b9084908390811061454e5761454e61561f565b01602001516001600160f81b0319160361457357836040516020016144a091906157bc565b8251600360fa1b9084908390811061458d5761458d61561f565b01602001516001600160f81b031916036145b257836040516020016144a091906157e2565b8251600560f91b908490839081106145cc576145cc61561f565b01602001516001600160f81b031916036145f157836040516020016144a09190615808565b8251600d60f81b9084908390811061460b5761460b61561f565b01602001516001600160f81b0319160361463057836040516020016144a0919061582e565b8251600160fb1b9084908390811061464a5761464a61561f565b01602001516001600160f81b0319160361466f57836040516020016144a09190615854565b838382815181106146825761468261561f565b602001015160f81c60f81b60405160200161469e929190615703565b60405160208183030381529060405293505b806146ba81615131565b915050614458565b505050919050565b60408051602a80825260608281019093526001600160a01b038416916f181899199a1a9b1b9c1cb0b131b232b360811b9160009190602082018180368337019050509050600360fc1b816000815181106147265761472661561f565b60200101906001600160f81b031916908160001a905350600f60fb1b816001815181106147555761475561561f565b60200101906001600160f81b031916908160001a90535060005b6014811015614884578260048561478784600c6150d5565b602081106147975761479761561f565b1a60f81b6001600160f81b031916901c60f81c60ff16601081106147bd576147bd61561f565b1a60f81b826147cd83600261587a565b6147d89060026150d5565b815181106147e8576147e861561f565b60200101906001600160f81b031916908160001a905350828461480c83600c6150d5565b6020811061481c5761481c61561f565b1a600f16601081106148305761483061561f565b1a60f81b8261484083600261587a565b61484b9060036150d5565b8151811061485b5761485b61561f565b60200101906001600160f81b031916908160001a9053508061487c81615131565b91505061476f565b50949350505050565b6060816000036148b45750506040805180820190915260018152600360fc1b602082015290565b8160005b81156148de57806148c881615131565b91506148d79050600a83615891565b91506148b8565b60008167ffffffffffffffff8111156148f9576148f9614bb0565b6040519080825280601f01601f191660200182016040528015614923576020820181803683370190505b509050815b851561488457614939600a87615891565b61494490600a61587a565b61494e90876156bd565b6149599060306158b3565b60f81b8261496683615416565b925082815181106149795761497961561f565b60200101906001600160f81b031916908160001a90535061499b600a87615891565b9550614928565b6040805180820190915260008152606060208201526020808401516040516149cc92859101615703565b60408051808303601f1901815291905260208401528251600160ff1b178084526001600160ff1b031615614a0657825183614263826158cc565b5090919050565b828054828255906000526020600020908101928215614a48579160200282015b82811115614a48578251825591602001919060010190614a2d565b50614a54929150614a58565b5090565b5b80821115614a545760008155600101614a59565b60005b83811015614a88578181015183820152602001614a70565b50506000910152565b60008151808452614aa9816020860160208601614a6d565b601f01601f19169290920160200192915050565b60208152600061181b6020830184614a91565b600060208284031215614ae257600080fd5b5035919050565b80356001600160a01b0381168114614b0057600080fd5b919050565b600080600060608486031215614b1a57600080fd5b8335925060208401359150614b3160408501614ae9565b90509250925092565b60008060408385031215614b4d57600080fd5b50508035926020909101359150565b608081526000614b6f6080830187614a91565b8281036020840152614b818187614a91565b604084019590955250506060015292915050565b600060208284031215614ba757600080fd5b61181b82614ae9565b634e487b7160e01b600052604160045260246000fd5b604051601f8201601f1916810167ffffffffffffffff81118282101715614bef57614bef614bb0565b604052919050565b600082601f830112614c0857600080fd5b813567ffffffffffffffff811115614c2257614c22614bb0565b614c35601f8201601f1916602001614bc6565b818152846020838601011115614c4a57600080fd5b816020850160208301376000918101602001919091529392505050565b60008060008060008060c08789031215614c8057600080fd5b8635955060208701359450604087013567ffffffffffffffff80821115614ca657600080fd5b614cb28a838b01614bf7565b95506060890135915080821115614cc857600080fd5b50614cd589828a01614bf7565b9350506080870135915060a087013590509295509295509295565b600082601f830112614d0157600080fd5b8135602067ffffffffffffffff821115614d1d57614d1d614bb0565b8160051b614d2c828201614bc6565b9283528481018201928281019087851115614d4657600080fd5b83870192505b84831015614d6557823582529183019190830190614d4c565b979650505050505050565b600080600080600080600080610100898b031215614d8d57600080fd5b88359750602089013567ffffffffffffffff80821115614dac57600080fd5b614db88c838d01614bf7565b985060408b0135915080821115614dce57600080fd5b614dda8c838d01614bf7565b975060608b0135965060808b0135955060a08b0135915080821115614dfe57600080fd5b614e0a8c838d01614cf0565b945060c08b0135915080821115614e2057600080fd5b614e2c8c838d01614cf0565b935060e08b0135915080821115614e4257600080fd5b50614e4f8b828c01614cf0565b9150509295985092959890939650565b60006101008a8352806020840152614e798184018b614a91565b90508281036040840152614e8d818a614a91565b60608401989098525050608081019490945260a084019290925260c083015260e0909101529392505050565b600080600060608486031215614ece57600080fd5b83359250602084013567ffffffffffffffff80821115614eed57600080fd5b614ef987838801614bf7565b93506040860135915080821115614f0f57600080fd5b50614f1c86828701614bf7565b9150509250925092565b60008060008060808587031215614f3c57600080fd5b843567ffffffffffffffff80821115614f5457600080fd5b614f6088838901614bf7565b95506020870135915080821115614f7657600080fd5b50614f8387828801614bf7565b935050614f9260408601614ae9565b9150614fa060608601614ae9565b905092959194509250565b60c081526000614fbe60c0830189614a91565b8281036020840152614fd08189614a91565b6001600160a01b03978816604085015295909616606083015250608081019290925260a0909101529392505050565b6000806000806080858703121561501557600080fd5b843593506020850135925060408501359150606085013567ffffffffffffffff81111561504157600080fd5b61504d87828801614bf7565b91505092959194509250565b60008060006060848603121561506e57600080fd5b505081359360208301359350604090920135919050565b600181811c9082168061509957607f821691505b6020821081036150b957634e487b7160e01b600052602260045260246000fd5b50919050565b634e487b7160e01b600052601160045260246000fd5b80820180821115610e4157610e416150bf565b6000602082840312156150fa57600080fd5b5051919050565b60018060a01b03841681528260208201526060604082015260006151286060830184614a91565b95945050505050565b600060018201615143576151436150bf565b5060010190565b634e487b7160e01b600052602160045260246000fd5b601f8211156151a657600081815260208120601f850160051c810160208610156151875750805b601f850160051c820191505b818110156117de57828155600101615193565b505050565b815167ffffffffffffffff8111156151c5576151c5614bb0565b6151d9816151d38454615085565b84615160565b602080601f83116001811461520e57600084156151f65750858301515b600019600386901b1c1916600185901b1785556117de565b600085815260208120601f198616915b8281101561523d5788860151825594840194600190910190840161521e565b508582101561525b5787850151600019600388901b60f8161c191681555b5050505050600190811b01905550565b85815260a06020820152600061528460a0830187614a91565b82810360408401526152968187614a91565b60608401959095525050608001529392505050565b600081518084526020808501945080840160005b838110156152db578151875295820195908201906001016152bf565b509495945050505050565b60006101008a83528060208401526153008184018b614a91565b90508281036040840152615314818a614a91565b905087606084015286608084015282810360a084015261533481876152ab565b905082810360c084015261534881866152ab565b905082810360e084015261535c81856152ab565b9b9a5050505050505050505050565b60408152600061537e6040830185614a91565b82810360208401526151288185614a91565b8381526060602082015260006153a96060830185614a91565b82810360408401526153bb8185614a91565b9695505050505050565b85815260a0602082015260006153de60a0830187614a91565b82810360408401526153f08187614a91565b6001600160a01b0395861660608501529390941660809092019190915250949350505050565b600081615425576154256150bf565b506000190190565b6001600160a01b038516815260806020820181905260009061545190830186614a91565b6040830194909452506060015292915050565b60008551615476818460208a01614a6d565b6001600160f81b03198616908301908152601160f91b6001820181905285516154a6816002850160208a01614a6d565b63111d101160e11b6002939091019283015284516154cb816006850160208901614a6d565b60069201918201526007019695505050505050565b600084516154f2818460208901614a6d565b601160f91b9083018181528551909190615513816001850160208a01614a6d565b63111d101160e11b600193909101928301528451615538816005850160208901614a6d565b600592019182015260060195945050505050565b6000855161555e818460208a01614a6d565b6001600160f81b03198616908301908152601160f91b6001820152845161558c816002840160208901614a6d565b620111d160ed1b6002929091019182015283516155b0816005840160208801614a6d565b016005019695505050505050565b600084516155d0818460208901614a6d565b601160f91b90830190815284516155ee816001840160208901614a6d565b620111d160ed1b600192909101918201528351615612816004840160208801614a6d565b0160040195945050505050565b634e487b7160e01b600052603260045260246000fd5b60006020808301818452808551808352604092508286019150828160051b87010184880160005b838110156156af57888303603f19018552815180516001600160a01b031684528781015188850152860151606087850181905261569b81860183614a91565b96890196945050509086019060010161565c565b509098975050505050505050565b81810381811115610e4157610e416150bf565b600084516156e2818460208901614a6d565b6001600160f81b031994851692019182525091166001820152600201919050565b60008351615715818460208801614a6d565b6001600160f81b0319939093169190920190815260010192915050565b60006001600160ff1b018201615143576151436150bf565b6000825161575c818460208701614a6d565b61171760f21b920191825250600201919050565b60008251615782818460208701614a6d565b612e1160f11b920191825250600201919050565b600082516157a8818460208701614a6d565b615c2f60f01b920191825250600201919050565b600082516157ce818460208701614a6d565b61171d60f21b920191825250600201919050565b600082516157f4818460208701614a6d565b612e3360f11b920191825250600201919050565b6000825161581a818460208701614a6d565b612e3760f11b920191825250600201919050565b60008251615840818460208701614a6d565b612e3960f11b920191825250600201919050565b60008251615866818460208701614a6d565b612e3160f11b920191825250600201919050565b8082028115828204841417610e4157610e416150bf565b6000826158ae57634e487b7160e01b600052601260045260246000fd5b500490565b60ff8181168382160190811115610e4157610e416150bf565b6000600160ff1b8201615425576154256150bf56fe4552525f454d5054595f42414447455f545950455f4d455441444154415f5552494552525f42414447455f545950455f4e4f545f464f554e4400000000000000004552525f454d5054595f51554553545f545950455f4d455441444154415f555249a2646970667358221220a6c68c5088f6b7098977ebebab10a6e96f713aecaa6d0db30515362aedcd141a64736f6c63430008110033",
  "linkReferences": {},
  "deployedLinkReferences": {}
}