{
	"contractName": "Badge",
	"address": "0x6cbE49a72Bdcfe6a96F801a5F8734c8f239303AC",
	"abi": [
		{
			"anonymous": false,
			"inputs": [
				{
					"indexed": true,
					"internalType": "address",
					"name": "account",
					"type": "address"
				},
				{
					"indexed": true,
					"internalType": "address",
					"name": "operator",
					"type": "address"
				},
				{
					"indexed": false,
					"internalType": "bool",
					"name": "approved",
					"type": "bool"
				}
			],
			"name": "ApprovalForAll",
			"type": "event"
		},
		{
			"anonymous": false,
			"inputs": [
				{
					"indexed": false,
					"internalType": "uint8",
					"name": "version",
					"type": "uint8"
				}
			],
			"name": "Initialized",
			"type": "event"
		},
		{
			"anonymous": false,
			"inputs": [
				{
					"indexed": false,
					"internalType": "address",
					"name": "issued",
					"type": "address"
				},
				{
					"indexed": false,
					"internalType": "address",
					"name": "owner",
					"type": "address"
				},
				{
					"indexed": false,
					"internalType": "uint256",
					"name": "tokenID",
					"type": "uint256"
				},
				{
					"indexed": false,
					"internalType": "bytes",
					"name": "data",
					"type": "bytes"
				}
			],
			"name": "Mint",
			"type": "event"
		},
		{
			"anonymous": false,
			"inputs": [
				{
					"indexed": true,
					"internalType": "bytes32",
					"name": "role",
					"type": "bytes32"
				},
				{
					"indexed": true,
					"internalType": "bytes32",
					"name": "previousAdminRole",
					"type": "bytes32"
				},
				{
					"indexed": true,
					"internalType": "bytes32",
					"name": "newAdminRole",
					"type": "bytes32"
				}
			],
			"name": "RoleAdminChanged",
			"type": "event"
		},
		{
			"anonymous": false,
			"inputs": [
				{
					"indexed": true,
					"internalType": "bytes32",
					"name": "role",
					"type": "bytes32"
				},
				{
					"indexed": true,
					"internalType": "address",
					"name": "account",
					"type": "address"
				},
				{
					"indexed": true,
					"internalType": "address",
					"name": "sender",
					"type": "address"
				}
			],
			"name": "RoleGranted",
			"type": "event"
		},
		{
			"anonymous": false,
			"inputs": [
				{
					"indexed": true,
					"internalType": "bytes32",
					"name": "role",
					"type": "bytes32"
				},
				{
					"indexed": true,
					"internalType": "address",
					"name": "account",
					"type": "address"
				},
				{
					"indexed": true,
					"internalType": "address",
					"name": "sender",
					"type": "address"
				}
			],
			"name": "RoleRevoked",
			"type": "event"
		},
		{
			"anonymous": false,
			"inputs": [
				{
					"indexed": true,
					"internalType": "address",
					"name": "operator",
					"type": "address"
				},
				{
					"indexed": true,
					"internalType": "address",
					"name": "from",
					"type": "address"
				},
				{
					"indexed": true,
					"internalType": "address",
					"name": "to",
					"type": "address"
				},
				{
					"indexed": false,
					"internalType": "uint256[]",
					"name": "ids",
					"type": "uint256[]"
				},
				{
					"indexed": false,
					"internalType": "uint256[]",
					"name": "values",
					"type": "uint256[]"
				}
			],
			"name": "TransferBatch",
			"type": "event"
		},
		{
			"anonymous": false,
			"inputs": [
				{
					"indexed": true,
					"internalType": "address",
					"name": "operator",
					"type": "address"
				},
				{
					"indexed": true,
					"internalType": "address",
					"name": "from",
					"type": "address"
				},
				{
					"indexed": true,
					"internalType": "address",
					"name": "to",
					"type": "address"
				},
				{
					"indexed": false,
					"internalType": "uint256",
					"name": "id",
					"type": "uint256"
				},
				{
					"indexed": false,
					"internalType": "uint256",
					"name": "value",
					"type": "uint256"
				}
			],
			"name": "TransferSingle",
			"type": "event"
		},
		{
			"anonymous": false,
			"inputs": [
				{
					"indexed": false,
					"internalType": "string",
					"name": "value",
					"type": "string"
				},
				{
					"indexed": true,
					"internalType": "uint256",
					"name": "id",
					"type": "uint256"
				}
			],
			"name": "URI",
			"type": "event"
		},
		{
			"inputs": [],
			"name": "ADMIN_ROLE",
			"outputs": [
				{
					"internalType": "bytes32",
					"name": "",
					"type": "bytes32"
				}
			],
			"stateMutability": "view",
			"type": "function"
		},
		{
			"inputs": [],
			"name": "DEFAULT_ADMIN_ROLE",
			"outputs": [
				{
					"internalType": "bytes32",
					"name": "",
					"type": "bytes32"
				}
			],
			"stateMutability": "view",
			"type": "function"
		},
		{
			"inputs": [],
			"name": "ERR_ADMIN_ROLE_REQUIRED",
			"outputs": [
				{
					"internalType": "string",
					"name": "",
					"type": "string"
				}
			],
			"stateMutability": "view",
			"type": "function"
		},
		{
			"inputs": [],
			"name": "ERR_MINTER_ROLE_REQUIRED",
			"outputs": [
				{
					"internalType": "string",
					"name": "",
					"type": "string"
				}
			],
			"stateMutability": "view",
			"type": "function"
		},
		{
			"inputs": [],
			"name": "ERR_TRANSFER_NOT_ALLOWED",
			"outputs": [
				{
					"internalType": "string",
					"name": "",
					"type": "string"
				}
			],
			"stateMutability": "view",
			"type": "function"
		},
		{
			"inputs": [],
			"name": "MINTER_ROLE",
			"outputs": [
				{
					"internalType": "bytes32",
					"name": "",
					"type": "bytes32"
				}
			],
			"stateMutability": "view",
			"type": "function"
		},
		{
			"inputs": [
				{
					"internalType": "address",
					"name": "account",
					"type": "address"
				},
				{
					"internalType": "uint256",
					"name": "id",
					"type": "uint256"
				}
			],
			"name": "balanceOf",
			"outputs": [
				{
					"internalType": "uint256",
					"name": "",
					"type": "uint256"
				}
			],
			"stateMutability": "view",
			"type": "function"
		},
		{
			"inputs": [
				{
					"internalType": "address[]",
					"name": "accounts",
					"type": "address[]"
				},
				{
					"internalType": "uint256[]",
					"name": "ids",
					"type": "uint256[]"
				}
			],
			"name": "balanceOfBatch",
			"outputs": [
				{
					"internalType": "uint256[]",
					"name": "",
					"type": "uint256[]"
				}
			],
			"stateMutability": "view",
			"type": "function"
		},
		{
			"inputs": [
				{
					"internalType": "string",
					"name": "name",
					"type": "string"
				},
				{
					"internalType": "string",
					"name": "badgeTypeURI",
					"type": "string"
				}
			],
			"name": "createNewBadgeType",
			"outputs": [
				{
					"internalType": "uint256",
					"name": "",
					"type": "uint256"
				}
			],
			"stateMutability": "nonpayable",
			"type": "function"
		},
		{
			"inputs": [
				{
					"internalType": "bytes32",
					"name": "role",
					"type": "bytes32"
				}
			],
			"name": "getRoleAdmin",
			"outputs": [
				{
					"internalType": "bytes32",
					"name": "",
					"type": "bytes32"
				}
			],
			"stateMutability": "view",
			"type": "function"
		},
		{
			"inputs": [
				{
					"internalType": "address",
					"name": "to",
					"type": "address"
				}
			],
			"name": "grantMinterRole",
			"outputs": [],
			"stateMutability": "nonpayable",
			"type": "function"
		},
		{
			"inputs": [
				{
					"internalType": "bytes32",
					"name": "role",
					"type": "bytes32"
				},
				{
					"internalType": "address",
					"name": "account",
					"type": "address"
				}
			],
			"name": "grantRole",
			"outputs": [],
			"stateMutability": "nonpayable",
			"type": "function"
		},
		{
			"inputs": [
				{
					"internalType": "bytes32",
					"name": "role",
					"type": "bytes32"
				},
				{
					"internalType": "address",
					"name": "account",
					"type": "address"
				}
			],
			"name": "hasRole",
			"outputs": [
				{
					"internalType": "bool",
					"name": "",
					"type": "bool"
				}
			],
			"stateMutability": "view",
			"type": "function"
		},
		{
			"inputs": [
				{
					"internalType": "address",
					"name": "minter",
					"type": "address"
				}
			],
			"name": "initialize",
			"outputs": [],
			"stateMutability": "nonpayable",
			"type": "function"
		},
		{
			"inputs": [
				{
					"internalType": "address",
					"name": "account",
					"type": "address"
				},
				{
					"internalType": "address",
					"name": "operator",
					"type": "address"
				}
			],
			"name": "isApprovedForAll",
			"outputs": [
				{
					"internalType": "bool",
					"name": "",
					"type": "bool"
				}
			],
			"stateMutability": "view",
			"type": "function"
		},
		{
			"inputs": [
				{
					"internalType": "address",
					"name": "owner",
					"type": "address"
				},
				{
					"internalType": "uint256",
					"name": "badgeTypeID",
					"type": "uint256"
				},
				{
					"internalType": "bytes",
					"name": "data",
					"type": "bytes"
				}
			],
			"name": "mintBadge",
			"outputs": [],
			"stateMutability": "nonpayable",
			"type": "function"
		},
		{
			"inputs": [
				{
					"internalType": "uint256",
					"name": "id",
					"type": "uint256"
				}
			],
			"name": "name",
			"outputs": [
				{
					"internalType": "string",
					"name": "",
					"type": "string"
				}
			],
			"stateMutability": "view",
			"type": "function"
		},
		{
			"inputs": [
				{
					"internalType": "bytes32",
					"name": "role",
					"type": "bytes32"
				},
				{
					"internalType": "address",
					"name": "account",
					"type": "address"
				}
			],
			"name": "renounceRole",
			"outputs": [],
			"stateMutability": "nonpayable",
			"type": "function"
		},
		{
			"inputs": [
				{
					"internalType": "bytes32",
					"name": "role",
					"type": "bytes32"
				},
				{
					"internalType": "address",
					"name": "account",
					"type": "address"
				}
			],
			"name": "revokeRole",
			"outputs": [],
			"stateMutability": "nonpayable",
			"type": "function"
		},
		{
			"inputs": [
				{
					"internalType": "address",
					"name": "from",
					"type": "address"
				},
				{
					"internalType": "address",
					"name": "to",
					"type": "address"
				},
				{
					"internalType": "uint256[]",
					"name": "ids",
					"type": "uint256[]"
				},
				{
					"internalType": "uint256[]",
					"name": "amounts",
					"type": "uint256[]"
				},
				{
					"internalType": "bytes",
					"name": "data",
					"type": "bytes"
				}
			],
			"name": "safeBatchTransferFrom",
			"outputs": [],
			"stateMutability": "nonpayable",
			"type": "function"
		},
		{
			"inputs": [
				{
					"internalType": "address",
					"name": "from",
					"type": "address"
				},
				{
					"internalType": "address",
					"name": "to",
					"type": "address"
				},
				{
					"internalType": "uint256",
					"name": "id",
					"type": "uint256"
				},
				{
					"internalType": "uint256",
					"name": "amount",
					"type": "uint256"
				},
				{
					"internalType": "bytes",
					"name": "data",
					"type": "bytes"
				}
			],
			"name": "safeTransferFrom",
			"outputs": [],
			"stateMutability": "nonpayable",
			"type": "function"
		},
		{
			"inputs": [
				{
					"internalType": "address",
					"name": "operator",
					"type": "address"
				},
				{
					"internalType": "bool",
					"name": "approved",
					"type": "bool"
				}
			],
			"name": "setApprovalForAll",
			"outputs": [],
			"stateMutability": "nonpayable",
			"type": "function"
		},
		{
			"inputs": [
				{
					"internalType": "bytes4",
					"name": "interfaceId",
					"type": "bytes4"
				}
			],
			"name": "supportsInterface",
			"outputs": [
				{
					"internalType": "bool",
					"name": "",
					"type": "bool"
				}
			],
			"stateMutability": "view",
			"type": "function"
		},
		{
			"inputs": [],
			"name": "totalOfBadgeTypes",
			"outputs": [
				{
					"internalType": "uint256",
					"name": "",
					"type": "uint256"
				}
			],
			"stateMutability": "view",
			"type": "function"
		},
		{
			"inputs": [
				{
					"internalType": "uint256",
					"name": "id",
					"type": "uint256"
				}
			],
			"name": "uri",
			"outputs": [
				{
					"internalType": "string",
					"name": "",
					"type": "string"
				}
			],
			"stateMutability": "view",
			"type": "function"
		}
	],
	"transactionHash": "0xa3c3137dd9db704c656b1b3f6650feb91b5d681ce6198ce8465ad628a9179713",
	"solcInputHash": "43d75d5ca845ea9c0e48439319b44fd1",
	"numDeployments": 1,
	"args": [],
	"bytecode": "0x608060405234801561001057600080fd5b5061253b806100206000396000f3fe608060405234801561001057600080fd5b50600436106101715760003560e01c80633dd1eb61116100de578063a22cb46511610097578063d547741f11610071578063d547741f146103ce578063e985e9c5146103e1578063f242432a1461041d578063fb365d101461043057600080fd5b8063a22cb46514610393578063c4d66de8146103a6578063d5391393146103b957600080fd5b80633dd1eb61146102e85780634e1273f4146102fb57806366e0df9e1461031b57806375b238fc1461035157806391d1485414610378578063a217fddf1461038b57600080fd5b806311709407116101305780631170940714610240578063248a9ca31461027757806329efcf801461029a5780632eb2c2d6146102af5780632f2ff15d146102c257806336568abe146102d557600080fd5b8062ad800c14610176578062fdd58e1461019f57806301e99f5b146101c057806301ffc9a7146101f75780630718a8fe1461021a5780630e89341c1461022d575b600080fd5b61018961018436600461191b565b610438565b6040516101969190611984565b60405180910390f35b6101b26101ad3660046119b3565b6104da565b604051908152602001610196565b6101896040518060400160405280601881526020017711549497d514905394d1915497d393d517d0531313d5d15160421b81525081565b61020a6102053660046119f3565b610575565b6040519015158152602001610196565b6101b2610228366004611ac7565b610580565b61018961023b36600461191b565b6105c8565b6101896040518060400160405280601881526020017711549497d3525395115497d493d31157d49154555254915160421b81525081565b6101b261028536600461191b565b60009081526065602052604090206001015490565b6102ad6102a8366004611b2b565b6105d3565b005b6102ad6102bd366004611c17565b61068a565b6102ad6102d0366004611cc1565b6106d6565b6102ad6102e3366004611cc1565b610700565b6102ad6102f6366004611ced565b61077e565b61030e610309366004611d08565b610812565b6040516101969190611e04565b6101896040518060400160405280601781526020017611549497d05113525397d493d31157d491545552549151604a1b81525081565b6101b27fa49807205ce4d355092ef5a8a18f56e8913cf4a201fbe287825b095693c2177581565b61020a610386366004611cc1565b61093c565b6101b2600081565b6102ad6103a1366004611e17565b610967565b6102ad6103b4366004611ced565b610972565b6101b26000805160206124e683398151915281565b6102ad6103dc366004611cc1565b610ae5565b61020a6103ef366004611e53565b6001600160a01b03918216600090815260986020908152604080832093909416825291909152205460ff1690565b6102ad61042b366004611e7d565b610b0a565b6101b2610b4f565b600081815260fc6020526040902080546060919061045590611ee2565b80601f016020809104026020016040519081016040528092919081815260200182805461048190611ee2565b80156104ce5780601f106104a3576101008083540402835291602001916104ce565b820191906000526020600020905b8154815290600101906020018083116104b157829003601f168201915b50505050509050919050565b60006001600160a01b03831661054a5760405162461bcd60e51b815260206004820152602a60248201527f455243313135353a2061646472657373207a65726f206973206e6f742061207660448201526930b634b21037bbb732b960b11b60648201526084015b60405180910390fd5b5060008181526097602090815260408083206001600160a01b03861684529091529020545b92915050565b600061056f82610b5f565b600061059060fb80546001019055565b600061059b60fb5490565b600081815260fc602052604090209091506105b68582611f62565b506105c18184610b9f565b9392505050565b606061056f82610bfc565b6105eb6000805160206124e68339815191523361093c565b6040518060400160405280601881526020017711549497d3525395115497d493d31157d49154555254915160421b8152509061063a5760405162461bcd60e51b81526004016105419190611984565b506106488383600184610cdb565b7f30c99b8e9449992bd7616d2645b02ee0a2b6f229a45d6b56b686963ff0c534973384848460405161067d9493929190612022565b60405180910390a1505050565b6001600160a01b0385163314806106a657506106a685336103ef565b6106c25760405162461bcd60e51b81526004016105419061205f565b6106cf8585858585610e00565b5050505050565b6000828152606560205260409020600101546106f181610fee565b6106fb8383610ff8565b505050565b6001600160a01b03811633146107705760405162461bcd60e51b815260206004820152602f60248201527f416363657373436f6e74726f6c3a2063616e206f6e6c792072656e6f756e636560448201526e103937b632b9903337b91039b2b63360891b6064820152608401610541565b61077a828261107e565b5050565b6107a87fa49807205ce4d355092ef5a8a18f56e8913cf4a201fbe287825b095693c217753361093c565b6040518060400160405280601781526020017611549497d05113525397d493d31157d491545552549151604a1b815250906107f65760405162461bcd60e51b81526004016105419190611984565b5061080f6000805160206124e683398151915282610ff8565b50565b606081518351146108775760405162461bcd60e51b815260206004820152602960248201527f455243313135353a206163636f756e747320616e6420696473206c656e677468604482015268040dad2e6dac2e8c6d60bb1b6064820152608401610541565b6000835167ffffffffffffffff81111561089357610893611a10565b6040519080825280602002602001820160405280156108bc578160200160208202803683370190505b50905060005b8451811015610934576109078582815181106108e0576108e06120ad565b60200260200101518583815181106108fa576108fa6120ad565b60200260200101516104da565b828281518110610919576109196120ad565b602090810291909101015261092d816120d9565b90506108c2565b509392505050565b60009182526065602090815260408084206001600160a01b0393909316845291905290205460ff1690565b61077a3383836110e5565b600054610100900460ff16158080156109925750600054600160ff909116105b806109ac5750303b1580156109ac575060005460ff166001145b610a0f5760405162461bcd60e51b815260206004820152602e60248201527f496e697469616c697a61626c653a20636f6e747261637420697320616c72656160448201526d191e481a5b9a5d1a585b1a5e995960921b6064820152608401610541565b6000805460ff191660011790558015610a32576000805461ff0019166101001790555b610a3a6111c5565b610a52604051806020016040528060008152506111ee565b610a5a61121e565b610a847fa49807205ce4d355092ef5a8a18f56e8913cf4a201fbe287825b095693c217753361124d565b610a9c6000805160206124e68339815191528361124d565b801561077a576000805461ff0019169055604051600181527f7f26b83ff96e1f2b6a682f133852f6798a09c465da95921460cefb38474024989060200160405180910390a15050565b600082815260656020526040902060010154610b0081610fee565b6106fb838361107e565b6001600160a01b038516331480610b265750610b2685336103ef565b610b425760405162461bcd60e51b81526004016105419061205f565b6106cf8585858585611257565b6000610b5a60fb5490565b905090565b60006001600160e01b03198216636cdb3d1360e11b1480610b9057506001600160e01b031982166303a24d0760e21b145b8061056f575061056f82611393565b600082815260ca60205260409020610bb78282611f62565b50817f6bb7ff708619ba0610cba295a58592e0451dee2622938c8755667688daf3529b610be3846105c8565b604051610bf09190611984565b60405180910390a25050565b600081815260ca6020526040812080546060929190610c1a90611ee2565b80601f0160208091040260200160405190810160405280929190818152602001828054610c4690611ee2565b8015610c935780601f10610c6857610100808354040283529160200191610c93565b820191906000526020600020905b815481529060010190602001808311610c7657829003601f168201915b505050505090506000815111610cb157610cac836113c8565b6105c1565b60c981604051602001610cc59291906120f2565b6040516020818303038152906040529392505050565b6001600160a01b038416610d3b5760405162461bcd60e51b815260206004820152602160248201527f455243313135353a206d696e7420746f20746865207a65726f206164647265736044820152607360f81b6064820152608401610541565b336000610d47856113d7565b90506000610d54856113d7565b9050610d6583600089858589611422565b60008681526097602090815260408083206001600160a01b038b16845290915281208054879290610d97908490612179565b909155505060408051878152602081018790526001600160a01b03808a1692600092918716917fc3d58168c5ae7397731d063d5bbf3d657854427343f4c083240f7aacaa2d0f62910160405180910390a4610df78360008989898961147f565b50505050505050565b8151835114610e625760405162461bcd60e51b815260206004820152602860248201527f455243313135353a2069647320616e6420616d6f756e7473206c656e677468206044820152670dad2e6dac2e8c6d60c31b6064820152608401610541565b6001600160a01b038416610e885760405162461bcd60e51b81526004016105419061218c565b33610e97818787878787611422565b60005b8451811015610f80576000858281518110610eb757610eb76120ad565b602002602001015190506000858381518110610ed557610ed56120ad565b60209081029190910181015160008481526097835260408082206001600160a01b038e168352909352919091205490915081811015610f265760405162461bcd60e51b8152600401610541906121d1565b60008381526097602090815260408083206001600160a01b038e8116855292528083208585039055908b16825281208054849290610f65908490612179565b9250508190555050505080610f79906120d9565b9050610e9a565b50846001600160a01b0316866001600160a01b0316826001600160a01b03167f4a39dc06d4c0dbc64b70af90fd698a233a518aa5d07e595d983b8c0526c8f7fb8787604051610fd092919061221b565b60405180910390a4610fe68187878787876115da565b505050505050565b61080f8133611695565b611002828261093c565b61077a5760008281526065602090815260408083206001600160a01b03851684529091529020805460ff1916600117905561103a3390565b6001600160a01b0316816001600160a01b0316837f2f8788117e7eff1d82e926ec794901d17c78024a50270940304540a733656f0d60405160405180910390a45050565b611088828261093c565b1561077a5760008281526065602090815260408083206001600160a01b0385168085529252808320805460ff1916905551339285917ff6391f5c32d9c69d2a47ea670b442974b53935d1edc7fd64eb21e047a839171b9190a45050565b816001600160a01b0316836001600160a01b0316036111585760405162461bcd60e51b815260206004820152602960248201527f455243313135353a2073657474696e6720617070726f76616c20737461747573604482015268103337b91039b2b63360b91b6064820152608401610541565b6001600160a01b03838116600081815260986020908152604080832094871680845294825291829020805460ff191686151590811790915591519182527f17307eab39ab6107e8899845ad3d59bd9653f200f220920489ca2b5937696c31910160405180910390a3505050565b600054610100900460ff166111ec5760405162461bcd60e51b815260040161054190612249565b565b600054610100900460ff166112155760405162461bcd60e51b815260040161054190612249565b61080f816116ee565b600054610100900460ff166112455760405162461bcd60e51b815260040161054190612249565b6111ec61171e565b61077a8282610ff8565b6001600160a01b03841661127d5760405162461bcd60e51b81526004016105419061218c565b336000611289856113d7565b90506000611296856113d7565b90506112a6838989858589611422565b60008681526097602090815260408083206001600160a01b038c168452909152902054858110156112e95760405162461bcd60e51b8152600401610541906121d1565b60008781526097602090815260408083206001600160a01b038d8116855292528083208985039055908a16825281208054889290611328908490612179565b909155505060408051888152602081018890526001600160a01b03808b16928c821692918816917fc3d58168c5ae7397731d063d5bbf3d657854427343f4c083240f7aacaa2d0f62910160405180910390a4611388848a8a8a8a8a61147f565b505050505050505050565b60006001600160e01b03198216637965db0b60e01b148061056f57506301ffc9a760e01b6001600160e01b031983161461056f565b60606099805461045590611ee2565b60408051600180825281830190925260609160009190602080830190803683370190505090508281600081518110611411576114116120ad565b602090810291909101015292915050565b60408051808201909152601881527711549497d514905394d1915497d393d517d0531313d5d15160421b60208201526001600160a01b038616156114795760405162461bcd60e51b81526004016105419190611984565b50610fe6565b6001600160a01b0384163b15610fe65760405163f23a6e6160e01b81526001600160a01b0385169063f23a6e61906114c39089908990889088908890600401612294565b6020604051808303816000875af19250505080156114fe575060408051601f3d908101601f191682019092526114fb918101906122d9565b60015b6115aa5761150a6122f6565b806308c379a003611543575061151e612312565b806115295750611545565b8060405162461bcd60e51b81526004016105419190611984565b505b60405162461bcd60e51b815260206004820152603460248201527f455243313135353a207472616e7366657220746f206e6f6e2d455243313135356044820152732932b1b2b4bb32b91034b6b83632b6b2b73a32b960611b6064820152608401610541565b6001600160e01b0319811663f23a6e6160e01b14610df75760405162461bcd60e51b81526004016105419061239c565b6001600160a01b0384163b15610fe65760405163bc197c8160e01b81526001600160a01b0385169063bc197c819061161e90899089908890889088906004016123e4565b6020604051808303816000875af1925050508015611659575060408051601f3d908101601f19168201909252611656918101906122d9565b60015b6116655761150a6122f6565b6001600160e01b0319811663bc197c8160e01b14610df75760405162461bcd60e51b81526004016105419061239c565b61169f828261093c565b61077a576116ac81611761565b6116b7836020611773565b6040516020016116c8929190612442565b60408051601f198184030181529082905262461bcd60e51b825261054191600401611984565b600054610100900460ff166117155760405162461bcd60e51b815260040161054190612249565b61080f8161190f565b600054610100900460ff166117455760405162461bcd60e51b815260040161054190612249565b60408051602081019091526000815260c99061080f9082611f62565b606061056f6001600160a01b03831660145b606060006117828360026124b7565b61178d906002612179565b67ffffffffffffffff8111156117a5576117a5611a10565b6040519080825280601f01601f1916602001820160405280156117cf576020820181803683370190505b509050600360fc1b816000815181106117ea576117ea6120ad565b60200101906001600160f81b031916908160001a905350600f60fb1b81600181518110611819576118196120ad565b60200101906001600160f81b031916908160001a905350600061183d8460026124b7565b611848906001612179565b90505b60018111156118c0576f181899199a1a9b1b9c1cb0b131b232b360811b85600f166010811061187c5761187c6120ad565b1a60f81b828281518110611892576118926120ad565b60200101906001600160f81b031916908160001a90535060049490941c936118b9816124ce565b905061184b565b5083156105c15760405162461bcd60e51b815260206004820181905260248201527f537472696e67733a20686578206c656e67746820696e73756666696369656e746044820152606401610541565b609961077a8282611f62565b60006020828403121561192d57600080fd5b5035919050565b60005b8381101561194f578181015183820152602001611937565b50506000910152565b60008151808452611970816020860160208601611934565b601f01601f19169290920160200192915050565b6020815260006105c16020830184611958565b80356001600160a01b03811681146119ae57600080fd5b919050565b600080604083850312156119c657600080fd5b6119cf83611997565b946020939093013593505050565b6001600160e01b03198116811461080f57600080fd5b600060208284031215611a0557600080fd5b81356105c1816119dd565b634e487b7160e01b600052604160045260246000fd5b601f8201601f1916810167ffffffffffffffff81118282101715611a4c57611a4c611a10565b6040525050565b600082601f830112611a6457600080fd5b813567ffffffffffffffff811115611a7e57611a7e611a10565b604051611a95601f8301601f191660200182611a26565b818152846020838601011115611aaa57600080fd5b816020850160208301376000918101602001919091529392505050565b60008060408385031215611ada57600080fd5b823567ffffffffffffffff80821115611af257600080fd5b611afe86838701611a53565b93506020850135915080821115611b1457600080fd5b50611b2185828601611a53565b9150509250929050565b600080600060608486031215611b4057600080fd5b611b4984611997565b925060208401359150604084013567ffffffffffffffff811115611b6c57600080fd5b611b7886828701611a53565b9150509250925092565b600067ffffffffffffffff821115611b9c57611b9c611a10565b5060051b60200190565b600082601f830112611bb757600080fd5b81356020611bc482611b82565b604051611bd18282611a26565b83815260059390931b8501820192828101915086841115611bf157600080fd5b8286015b84811015611c0c5780358352918301918301611bf5565b509695505050505050565b600080600080600060a08688031215611c2f57600080fd5b611c3886611997565b9450611c4660208701611997565b9350604086013567ffffffffffffffff80821115611c6357600080fd5b611c6f89838a01611ba6565b94506060880135915080821115611c8557600080fd5b611c9189838a01611ba6565b93506080880135915080821115611ca757600080fd5b50611cb488828901611a53565b9150509295509295909350565b60008060408385031215611cd457600080fd5b82359150611ce460208401611997565b90509250929050565b600060208284031215611cff57600080fd5b6105c182611997565b60008060408385031215611d1b57600080fd5b823567ffffffffffffffff80821115611d3357600080fd5b818501915085601f830112611d4757600080fd5b81356020611d5482611b82565b604051611d618282611a26565b83815260059390931b8501820192828101915089841115611d8157600080fd5b948201945b83861015611da657611d9786611997565b82529482019490820190611d86565b96505086013592505080821115611dbc57600080fd5b50611b2185828601611ba6565b600081518084526020808501945080840160005b83811015611df957815187529582019590820190600101611ddd565b509495945050505050565b6020815260006105c16020830184611dc9565b60008060408385031215611e2a57600080fd5b611e3383611997565b915060208301358015158114611e4857600080fd5b809150509250929050565b60008060408385031215611e6657600080fd5b611e6f83611997565b9150611ce460208401611997565b600080600080600060a08688031215611e9557600080fd5b611e9e86611997565b9450611eac60208701611997565b93506040860135925060608601359150608086013567ffffffffffffffff811115611ed657600080fd5b611cb488828901611a53565b600181811c90821680611ef657607f821691505b602082108103611f1657634e487b7160e01b600052602260045260246000fd5b50919050565b601f8211156106fb57600081815260208120601f850160051c81016020861015611f435750805b601f850160051c820191505b81811015610fe657828155600101611f4f565b815167ffffffffffffffff811115611f7c57611f7c611a10565b611f9081611f8a8454611ee2565b84611f1c565b602080601f831160018114611fc55760008415611fad5750858301515b600019600386901b1c1916600185901b178555610fe6565b600085815260208120601f198616915b82811015611ff457888601518255948401946001909101908401611fd5565b50858210156120125787850151600019600388901b60f8161c191681555b5050505050600190811b01905550565b6001600160a01b038581168252841660208201526040810183905260806060820181905260009061205590830184611958565b9695505050505050565b6020808252602e908201527f455243313135353a2063616c6c6572206973206e6f7420746f6b656e206f776e60408201526d195c881bdc88185c1c1c9bdd995960921b606082015260800190565b634e487b7160e01b600052603260045260246000fd5b634e487b7160e01b600052601160045260246000fd5b6000600182016120eb576120eb6120c3565b5060010190565b600080845461210081611ee2565b60018281168015612118576001811461212d5761215c565b60ff198416875282151583028701945061215c565b8860005260208060002060005b858110156121535781548a82015290840190820161213a565b50505082870194505b505050508351612170818360208801611934565b01949350505050565b8082018082111561056f5761056f6120c3565b60208082526025908201527f455243313135353a207472616e7366657220746f20746865207a65726f206164604082015264647265737360d81b606082015260800190565b6020808252602a908201527f455243313135353a20696e73756666696369656e742062616c616e636520666f60408201526939103a3930b739b332b960b11b606082015260800190565b60408152600061222e6040830185611dc9565b82810360208401526122408185611dc9565b95945050505050565b6020808252602b908201527f496e697469616c697a61626c653a20636f6e7472616374206973206e6f74206960408201526a6e697469616c697a696e6760a81b606082015260800190565b6001600160a01b03868116825285166020820152604081018490526060810183905260a0608082018190526000906122ce90830184611958565b979650505050505050565b6000602082840312156122eb57600080fd5b81516105c1816119dd565b600060033d111561230f5760046000803e5060005160e01c5b90565b600060443d10156123205790565b6040516003193d81016004833e81513d67ffffffffffffffff816024840111818411171561235057505050505090565b82850191508151818111156123685750505050505090565b843d87010160208285010111156123825750505050505090565b61239160208286010187611a26565b509095945050505050565b60208082526028908201527f455243313135353a204552433131353552656365697665722072656a656374656040820152676420746f6b656e7360c01b606082015260800190565b6001600160a01b0386811682528516602082015260a06040820181905260009061241090830186611dc9565b82810360608401526124228186611dc9565b905082810360808401526124368185611958565b98975050505050505050565b7f416363657373436f6e74726f6c3a206163636f756e742000000000000000000081526000835161247a816017850160208801611934565b7001034b99036b4b9b9b4b733903937b6329607d1b60179184019182015283516124ab816028840160208801611934565b01602801949350505050565b808202811582820484141761056f5761056f6120c3565b6000816124dd576124dd6120c3565b50600019019056fe9f2df0fed2c77648de5860a4cc508cd0818c85b8b8a1ab4ceeef8d981c8956a6a264697066735822122015eff89023cac3cab022720e15c836e73885b8756fae4e0facec745c07a806f964736f6c63430008110033",
	"deployedBytecode": "0x60806040526004361061004e5760003560e01c80633659cfe6146100655780634f1ef286146100855780635c60da1b146100ae5780638f283970146100db578063f851a440146100fb5761005d565b3661005d5761005b610110565b005b61005b610110565b34801561007157600080fd5b5061005b61008036600461051d565b6101c8565b610098610093366004610538565b61020e565b6040516100a591906105bb565b60405180910390f35b3480156100ba57600080fd5b506100c361033e565b6040516001600160a01b0390911681526020016100a5565b3480156100e757600080fd5b5061005b6100f636600461051d565b6103a9565b34801561010757600080fd5b506100c36103e4565b600061013a7f360894a13ba1a3210667c828492db98dca3e2076cc3735a920a3ca505d382bbc5490565b90506001600160a01b0381166101a55760405162461bcd60e51b815260206004820152602560248201527f50726f78793a20696d706c656d656e746174696f6e206e6f7420696e697469616044820152641b1a5e995960da1b60648201526084015b60405180910390fd5b3660008037600080366000845af43d6000803e806101c2573d6000fd5b503d6000f35b600080516020610621833981519152546001600160a01b0316336001600160a01b031614806101f5575033155b156102065761020381610432565b50565b610203610110565b60606102266000805160206106218339815191525490565b6001600160a01b0316336001600160a01b03161480610243575033155b1561032f5761025184610432565b600080856001600160a01b0316858560405161026e929190610610565b600060405180830381855af49150503d80600081146102a9576040519150601f19603f3d011682016040523d82523d6000602084013e6102ae565b606091505b5091509150816103265760405162461bcd60e51b815260206004820152603960248201527f50726f78793a2064656c656761746563616c6c20746f206e657720696d706c6560448201527f6d656e746174696f6e20636f6e7472616374206661696c656400000000000000606482015260840161019c565b91506103379050565b610337610110565b9392505050565b60006103566000805160206106218339815191525490565b6001600160a01b0316336001600160a01b03161480610373575033155b1561039e57507f360894a13ba1a3210667c828492db98dca3e2076cc3735a920a3ca505d382bbc5490565b6103a6610110565b90565b600080516020610621833981519152546001600160a01b0316336001600160a01b031614806103d6575033155b15610206576102038161048d565b60006103fc6000805160206106218339815191525490565b6001600160a01b0316336001600160a01b03161480610419575033155b1561039e57506000805160206106218339815191525490565b7f360894a13ba1a3210667c828492db98dca3e2076cc3735a920a3ca505d382bbc8190556040516001600160a01b038216907fbc7cd75a20ee27fd9adebab32041f755214dbc6bffa90cc0225b39da2e5c2d3b90600090a250565b60006104a56000805160206106218339815191525490565b600080516020610621833981519152839055604080516001600160a01b038084168252851660208201529192507f7e644d79422f17c01e4894b5f4f588d331ebfa28653d42ae832dc59e38c9798f910160405180910390a15050565b80356001600160a01b038116811461051857600080fd5b919050565b60006020828403121561052f57600080fd5b61033782610501565b60008060006040848603121561054d57600080fd5b61055684610501565b9250602084013567ffffffffffffffff8082111561057357600080fd5b818601915086601f83011261058757600080fd5b81358181111561059657600080fd5b8760208285010111156105a857600080fd5b6020830194508093505050509250925092565b600060208083528351808285015260005b818110156105e8578581018301518582016040015282016105cc565b818111156105fa576000604083870101525b50601f01601f1916929092016040019392505050565b818382376000910190815291905056feb53127684a568b3173ae13b9f8a6016e243e63b6e8ee1178d6a717850b5d6103a164736f6c634300080f000a",
	"devdoc": {
		"kind": "dev",
		"methods": {
			"balanceOf(address,uint256)": {
				"details": "See {IERC1155-balanceOf}. Requirements: - `account` cannot be the zero address."
			},
			"balanceOfBatch(address[],uint256[])": {
				"details": "See {IERC1155-balanceOfBatch}. Requirements: - `accounts` and `ids` must have the same length."
			},
			"getRoleAdmin(bytes32)": {
				"details": "Returns the admin role that controls `role`. See {grantRole} and {revokeRole}. To change a role's admin, use {_setRoleAdmin}."
			},
			"grantRole(bytes32,address)": {
				"details": "Grants `role` to `account`. If `account` had not been already granted `role`, emits a {RoleGranted} event. Requirements: - the caller must have ``role``'s admin role. May emit a {RoleGranted} event."
			},
			"hasRole(bytes32,address)": {
				"details": "Returns `true` if `account` has been granted `role`."
			},
			"isApprovedForAll(address,address)": {
				"details": "See {IERC1155-isApprovedForAll}."
			},
			"renounceRole(bytes32,address)": {
				"details": "Revokes `role` from the calling account. Roles are often managed via {grantRole} and {revokeRole}: this function's purpose is to provide a mechanism for accounts to lose their privileges if they are compromised (such as when a trusted device is misplaced). If the calling account had been revoked `role`, emits a {RoleRevoked} event. Requirements: - the caller must be `account`. May emit a {RoleRevoked} event."
			},
			"revokeRole(bytes32,address)": {
				"details": "Revokes `role` from `account`. If `account` had been granted `role`, emits a {RoleRevoked} event. Requirements: - the caller must have ``role``'s admin role. May emit a {RoleRevoked} event."
			},
			"safeBatchTransferFrom(address,address,uint256[],uint256[],bytes)": {
				"details": "See {IERC1155-safeBatchTransferFrom}."
			},
			"safeTransferFrom(address,address,uint256,uint256,bytes)": {
				"details": "See {IERC1155-safeTransferFrom}."
			},
			"setApprovalForAll(address,bool)": {
				"details": "See {IERC1155-setApprovalForAll}."
			}
		},
		"version": 1
	},
	"userdoc": {
		"kind": "user",
		"methods": {},
		"version": 1
	},
	"storageLayout": {
		"storage": [
			{
				"astId": 547,
				"contract": "contracts/Badge.sol:Badge",
				"label": "_initialized",
				"offset": 0,
				"slot": "0",
				"type": "t_uint8"
			},
			{
				"astId": 550,
				"contract": "contracts/Badge.sol:Badge",
				"label": "_initializing",
				"offset": 1,
				"slot": "0",
				"type": "t_bool"
			},
			{
				"astId": 2698,
				"contract": "contracts/Badge.sol:Badge",
				"label": "__gap",
				"offset": 0,
				"slot": "1",
				"type": "t_array(t_uint256)50_storage"
			},
			{
				"astId": 2917,
				"contract": "contracts/Badge.sol:Badge",
				"label": "__gap",
				"offset": 0,
				"slot": "51",
				"type": "t_array(t_uint256)50_storage"
			},
			{
				"astId": 39,
				"contract": "contracts/Badge.sol:Badge",
				"label": "_roles",
				"offset": 0,
				"slot": "101",
				"type": "t_mapping(t_bytes32,t_struct(RoleData)34_storage)"
			},
			{
				"astId": 334,
				"contract": "contracts/Badge.sol:Badge",
				"label": "__gap",
				"offset": 0,
				"slot": "102",
				"type": "t_array(t_uint256)49_storage"
			},
			{
				"astId": 865,
				"contract": "contracts/Badge.sol:Badge",
				"label": "_balances",
				"offset": 0,
				"slot": "151",
				"type": "t_mapping(t_uint256,t_mapping(t_address,t_uint256))"
			},
			{
				"astId": 871,
				"contract": "contracts/Badge.sol:Badge",
				"label": "_operatorApprovals",
				"offset": 0,
				"slot": "152",
				"type": "t_mapping(t_address,t_mapping(t_address,t_bool))"
			},
			{
				"astId": 873,
				"contract": "contracts/Badge.sol:Badge",
				"label": "_uri",
				"offset": 0,
				"slot": "153",
				"type": "t_string_storage"
			},
			{
				"astId": 2080,
				"contract": "contracts/Badge.sol:Badge",
				"label": "__gap",
				"offset": 0,
				"slot": "154",
				"type": "t_array(t_uint256)47_storage"
			},
			{
				"astId": 2278,
				"contract": "contracts/Badge.sol:Badge",
				"label": "_baseURI",
				"offset": 0,
				"slot": "201",
				"type": "t_string_storage"
			},
			{
				"astId": 2282,
				"contract": "contracts/Badge.sol:Badge",
				"label": "_tokenURIs",
				"offset": 0,
				"slot": "202",
				"type": "t_mapping(t_uint256,t_string_storage)"
			},
			{
				"astId": 2357,
				"contract": "contracts/Badge.sol:Badge",
				"label": "__gap",
				"offset": 0,
				"slot": "203",
				"type": "t_array(t_uint256)48_storage"
			},
			{
				"astId": 4876,
				"contract": "contracts/Badge.sol:Badge",
				"label": "_badgeIDCounter",
				"offset": 0,
				"slot": "251",
				"type": "t_struct(Counter)3801_storage"
			},
			{
				"astId": 4880,
				"contract": "contracts/Badge.sol:Badge",
				"label": "_badgeNames",
				"offset": 0,
				"slot": "252",
				"type": "t_mapping(t_uint256,t_string_storage)"
			}
		],
		"types": {
			"t_address": {
				"encoding": "inplace",
				"label": "address",
				"numberOfBytes": "20"
			},
			"t_array(t_uint256)47_storage": {
				"base": "t_uint256",
				"encoding": "inplace",
				"label": "uint256[47]",
				"numberOfBytes": "1504"
			},
			"t_array(t_uint256)48_storage": {
				"base": "t_uint256",
				"encoding": "inplace",
				"label": "uint256[48]",
				"numberOfBytes": "1536"
			},
			"t_array(t_uint256)49_storage": {
				"base": "t_uint256",
				"encoding": "inplace",
				"label": "uint256[49]",
				"numberOfBytes": "1568"
			},
			"t_array(t_uint256)50_storage": {
				"base": "t_uint256",
				"encoding": "inplace",
				"label": "uint256[50]",
				"numberOfBytes": "1600"
			},
			"t_bool": {
				"encoding": "inplace",
				"label": "bool",
				"numberOfBytes": "1"
			},
			"t_bytes32": {
				"encoding": "inplace",
				"label": "bytes32",
				"numberOfBytes": "32"
			},
			"t_mapping(t_address,t_bool)": {
				"encoding": "mapping",
				"key": "t_address",
				"label": "mapping(address => bool)",
				"numberOfBytes": "32",
				"value": "t_bool"
			},
			"t_mapping(t_address,t_mapping(t_address,t_bool))": {
				"encoding": "mapping",
				"key": "t_address",
				"label": "mapping(address => mapping(address => bool))",
				"numberOfBytes": "32",
				"value": "t_mapping(t_address,t_bool)"
			},
			"t_mapping(t_address,t_uint256)": {
				"encoding": "mapping",
				"key": "t_address",
				"label": "mapping(address => uint256)",
				"numberOfBytes": "32",
				"value": "t_uint256"
			},
			"t_mapping(t_bytes32,t_struct(RoleData)34_storage)": {
				"encoding": "mapping",
				"key": "t_bytes32",
				"label": "mapping(bytes32 => struct AccessControlUpgradeable.RoleData)",
				"numberOfBytes": "32",
				"value": "t_struct(RoleData)34_storage"
			},
			"t_mapping(t_uint256,t_mapping(t_address,t_uint256))": {
				"encoding": "mapping",
				"key": "t_uint256",
				"label": "mapping(uint256 => mapping(address => uint256))",
				"numberOfBytes": "32",
				"value": "t_mapping(t_address,t_uint256)"
			},
			"t_mapping(t_uint256,t_string_storage)": {
				"encoding": "mapping",
				"key": "t_uint256",
				"label": "mapping(uint256 => string)",
				"numberOfBytes": "32",
				"value": "t_string_storage"
			},
			"t_string_storage": {
				"encoding": "bytes",
				"label": "string",
				"numberOfBytes": "32"
			},
			"t_struct(Counter)3801_storage": {
				"encoding": "inplace",
				"label": "struct Counters.Counter",
				"members": [
					{
						"astId": 3800,
						"contract": "contracts/Badge.sol:Badge",
						"label": "_value",
						"offset": 0,
						"slot": "0",
						"type": "t_uint256"
					}
				],
				"numberOfBytes": "32"
			},
			"t_struct(RoleData)34_storage": {
				"encoding": "inplace",
				"label": "struct AccessControlUpgradeable.RoleData",
				"members": [
					{
						"astId": 31,
						"contract": "contracts/Badge.sol:Badge",
						"label": "members",
						"offset": 0,
						"slot": "0",
						"type": "t_mapping(t_address,t_bool)"
					},
					{
						"astId": 33,
						"contract": "contracts/Badge.sol:Badge",
						"label": "adminRole",
						"offset": 0,
						"slot": "1",
						"type": "t_bytes32"
					}
				],
				"numberOfBytes": "64"
			},
			"t_uint256": {
				"encoding": "inplace",
				"label": "uint256",
				"numberOfBytes": "32"
			},
			"t_uint8": {
				"encoding": "inplace",
				"label": "uint8",
				"numberOfBytes": "1"
			}
		}
	}
}